:0300000002109A51
:0C109A00787FE4F6D8FD7581E30210E1D8
:10069A002B4353595349443A43484950002B495034
:1006AA00442C002B4950442C342C32363A52504CAC
:1006BA003A00534D41525420535543434553530036
:1006CA0041542B5253540041542B43574D4F4445E8
:1006DA003D310041542B43574A41503D2233363075
:1006EA007765222C227A74793030313230303122D7
:1006FA000041542B43495053544152543D332C2208
:10070A00554450222C22636C6F75642E61692D74D6
:10071A0068696E6B65722E636F6D222C35303031CD
:10072A002C323436382C30005250543A2230786108
:10073A0031623233343637222C22307861663332D2
:10074A0031323334222C223139322E3136382E309E
:10075A002E313233222C226C69676874222C2231A2
:10076A00323334353661220041542B4349504D55BA
:10077A00583D310041542B43495053544152543D42
:10078A00342C22554450222C22636C6F75642E61DE
:10079A00692D7468696E6B65722E636F6D222C35D4
:1007AA003030312C323436382C300041542B4353FC
:1007BA00595349440041542B4357534D41525453C2
:1007CA00544152543D3100303030303030303030C6
:1007DA00303030303030303030303030303030300F
:1007EA00303030303030303030310041542B4349D2
:1007FA005053454E443D342C0041542B43495053E9
:10080A00454E443D332C363300323436392C3000D1
:10081A000000C0C1C1810140C30103C00280C241BE
:10082A00C60106C00780C7410500C5C1C48104408E
:10083A00CC010CC00D80CD410F00CFC1CE810E403E
:10084A000A00CAC1CB810B40C90109C00880C8414E
:10085A00D80118C01980D9411B00DBC1DA811A40BE
:10086A001E00DEC1DF811F40DD011DC01C80DC418E
:10087A001400D4C1D5811540D70117C01680D641BE
:10088A00D20112C01380D3411100D1C1D0811040CE
:10089A00F00130C03180F1413300F3C1F2813240BE
:1008AA003600F6C1F7813740F50135C03480F4418E
:1008BA003C00FCC1FD813D40FF013FC03E80FE413E
:1008CA00FA013AC03B80FB413900F9C1F88138404E
:1008DA002800E8C1E9812940EB012BC02A80EA41BE
:1008EA00EE012EC02F80EF412D00EDC1EC812C408E
:1008FA00E40124C02580E5412700E7C1E6812640BE
:10090A002200E2C1E3812340E10121C02080E041CD
:10091A00A00160C06180A1416300A3C1A2816240BD
:10092A006600A6C1A7816740A50165C06480A4418D
:10093A006C00ACC1AD816D40AF016FC06E80AE413D
:10094A00AA016AC06B80AB416900A9C1A88168404D
:10095A007800B8C1B9817940BB017BC07A80BA41BD
:10096A00BE017EC07F80BF417D00BDC1BC817C408D
:10097A00B40174C07580B5417700B7C1B6817640BD
:10098A007200B2C1B3817340B10171C07080B041CD
:10099A00500090C191815140930153C052809241BD
:1009AA00960156C057809741550095C1948154408D
:1009BA009C015CC05D809D415F009FC19E815E403D
:1009CA005A009AC19B815B40990159C0588098414D
:1009DA00880148C0498089414B008BC18A814A40BD
:1009EA004E008EC18F814F408D014DC04C808C418D
:1009FA00440084C185814540870147C046808641BD
:100A0A00820142C043808341410081C180814040CC
:100E4600817A00C106C103815700C101810A008170
:100E56000110810B0B817D3A8100012040A36A6954
:100E6600736966736668656C6C6F3A3939393939F6
:100E76003B6F6F70000000000000000000000000E3
:100E8600000000000000000000000000000000005C
:100E96000000000000000000000000000000A0406C
:100EA6000E552500AAFF0000000002310AFE0000D0
:100EB60000000008007CC852FE3D64294C494748A2
:100EC60054023A3F6C02550000000000000000008A
:100ED600000000000000000000000000000000000C
:100EE60000089A2441D6394883AC008802000000E5
:100EF6000000001EDE884F00000000000000008E8B
:100F06006C0000000000001EDE0000000000008AE9
:100F16005854454D503A3132333B00814E00C1049E
:100F2600082A30303030303030300822303030301F
:100F36003030303088643030303030303030820CF1
:100F4600000001E30001A200C105C107C108817BC1
:060F560000817C00C100D7
:0D14AA00E4F5C7F5C5F5C675C380F5C4228D
:1014680075C78175C5018FC4EEF5C375C65A75C6B3
:07147800A500AFC21214AA87
:01147F00224A
:1000030075C78175C5028FC4EEF5C3AF058FC27581
:09001300C65A75C6A5000214AA24
:1014800075C78175C5038FC4EEF5C375C65A75C699
:05149000A5000214AAF2
:10129E00E4FFFEEFC394155010EE9006FB93FD7421
:1012AE00322EF8A6050F0E80EAE4FF740E2FF8E238
:1012BE00FD642C600A74322EF8A6050F0E80EC74B5
:1012CE00322EF8762C0E0F0F740E2FF8E2FD6422DC
:1012DE00600A74322EF8A6050F0E80EC74322EF8CA
:1012EE00762C0EE4FFEF90081393FD600A74322EF5
:0D12FE00F8A6050F0E80EE74322EF8E4F60F
:01130B0022BF
:0614950008E2C4540FFF41
:0F149B00EFC3940AEF50042430FF222437FF22BE
:10100600E47884F2FFEF90073293FE600974322F82
:10101600F8A6060F80EF74322FF8E4F6780612145D
:10102600968F39E2540FFF12149B8F3A1214958F44
:101036003BE2540FFF12149B8F3C1214958F3DE236
:10104600540FFF12149B8F3E1214958F3FE2540FDC
:10105600FF12149B8F4078731214968F46E2540F3A
:10106600FF12149B8F47181214968F48E2540FFFF5
:1010760012149B8F49181214968F4AE2540FFF12CE
:10108600149B8F4B181214968F4CE2540FFF1214B8
:031096009B8F4DE0
:011099002234
:10112600E4FEEE9007F593FD74BA2EF582E43400E2
:10113600F583EDF00EEEB40DE9C204EF75F06484AC
:1011460060122430FD74BA2EF582E43400F583ED86
:10115600F00ED204EF75F06484E5F075F00A846051
:10116600142430FD74BA2EF582E43400F583EDF0D4
:101176000ED204801130040E74BA2EF582E43400C7
:10118600F5837430F00EEF75F00A84E5F02430FF35
:1011960074BA2EF582E43400F583EFF00E74BA2E9D
:0911A600F582E43400F583E4F065
:0111AF00221D
:10122C007892EBF208EAF208E9F208ECF208EDF237
:10123C0074FF08F208F2789508E2FF24FFF218E236
:10124C00FE34FFF2D3EF9400EE64809480403B7840
:10125C009708E208F2FF7892E2FB0808E2F9240111
:10126C00F218E2FA3400F2120D26FEEF6E75F0025F
:10127C00A4241AF582E5F03408F5837897E2FFE4AC
:10128C0093F27401936F08F280AC7897E2FE08E257
:01129C00FF52
:01129D00222E
:0D0A1A007884EFF208EBF208EAF208E9F246
:100A2700E4788FF208F208F278A37655788EE224FC
:100A37001EFBE433FA7C007DFFAF03FE120D6C78DA
:100A4700A4A6057C007DFFAF03AE02120D6C78A54E
:100A5700A6077884E2FF700678A676A08008EFB430
:100A6700010478A676AAEF700578A7F68008EFB498
:100A7700010478A776EE78A876F30876C00876C0E2
:100A87000876F3087602E4788FF2788FE2FFFDC3E9
:100A970074079DFDE49400FC7885E2FB08E2FA0800
:100AA700E2F98D828C83120D3FFE74AD2FF8A606F6
:100AB700788FE204F2E2B408D178B57608E4788F4B
:100AC700F27888E2FB08E2FA08E2F9788FE2FFF5AC
:100AD70082758300120D3FFE74B62FF8A606788F35
:100AE700E204F2E2B408DAE4788FF2788EE2FF08E3
:100AF700E2FEC39F5020788BE2FB08E2FA08E2F996
:100B07008E82758300120D3FFD74BE2EF8A6057800
:100B17008FE204F280D57532557B007A0079A3EF16
:100B2700241BFDE433FC12122C7890EEF208EFF24E
:100B37007F017D01788EE2241BFBE433FAEFC39B30
:100B4700EA6480F8748098503D74A32FF8E6FEB4E9
:100B5700551074322DF876540D74322DF876010D38
:100B67008021EEB4541074322DF876540D74322D62
:100B7700F876020D800D74A32FF8E6FE74322DF877
:100B8700A6060D0F80AE7890E2FA08E2FBEAFF7442
:100B9700322DF8A6070DAF0374322DF8A6070D7492
:100BA700322DF876550D74322DF8760D0D74322DE1
:0D0BB700F8760A0D784EEDF22432F8E4F6DF
:010BC400220E
:10130C00E2FB08E2FA08E2F9120D26F599E2240153
:0E131C00F218E23400F27F017E007D007C00BA
:05132A007888120E217D
:10132F00E4788CF2788CE2FFE4FCFDFE7888E2FB37
:10133F0008E2F908E2FA08E2CBF8D3120E104011D6
:10134F0000007F167E80DEFEDFFC788CE204F280E8
:01135F00D3BA
:01136000226A
:0811B0007FD07E077D007C006A
:0511B8007884120E21F5
:1011BD007888120E2D00000000E47F64FEFDFC789F
:1011CD0084E2FB08E2F908E2FA08E2CBF8120DC15D
:1011DD00C004C005C006C0077888E2FC08E2FD081F
:1011ED00E2FE08E2FBAA06A905A804D007D006D0A6
:1011FD0005D004C3120E1050257888E2FC08E2FDDC
:10120D0008E2FE08E2FFE4FAF9F8EF2401FFEA3EF6
:0E121D00FEE93DFDE83CFC7888120E21809B26
:01122B0022A0
:0613F3007BFF7A0679D1B0
:1013F9007884EBF208EAF208E9F2788412130C789F
:1014090084E2FB08E2FA08E2F9120D2670EC7599FC
:101419000D7F01FEFDFC12132A75990A7F017E00DA
:071429007D007C0002132A84
:0A13B2007B007A007932784EE2FDEC
:0413BC007884EDF252
:1013C00008EBF208EAF208E9F27884E2600B08120E
:1013D000130C7884E214F280F07885E2FB08E2FADC
:1013E00008E2F9120D2670F17F017E007D007C007D
:0313F00002132ABB
:100F5D00787B7401F208F2787BE2240EF8E2FF64EC
:100F6D0055605AEFB45414787BE2240FF8E2B401C3
:100F7D000A787CE22432F87655801B787BE2FF24D8
:100F8D000EF8E2B4541C740F2FF8E2B40214787CFE
:100F9D00E22432F87654787CE204F218E22402F26C
:100FAD0080B5787BE2240EF8E2FF787CE22432F8FB
:100FBD00A607787CE204F218E204F2809A787CE2CB
:100FCD002432F87655753255780EE532F2787B7409
:100FDD0001F2787BE2FF2432F8E6FE6455600D7471
:100FED000E2FF8EEF2787BE204F280E6787BE224B5
:090FFD000EF87455F2780EF22290
:10143000C202E47862F208F2E598543F4440F5981D
:1014400053A23F538EEF438E01438E0475D6FF7532
:10145000D7D0438E10D29CD2ACD2AFE4F5B175B2E6
:08146000FF18F2C2B3C2B4226E
:10002600E47881F208F208F21214307FE87E0312B7
:1000360011B42093167F007E12121480C291D2B49E
:100046007FC87E001211B4D291C2B47F2C7E0112F9
:1000560011B47F807E12121468BF5504C20080025C
:10006600D200C201E4780AF278017416F2780B74B1
:100076000DF2787D743AF278007402F21213F37F6F
:10008600E87E031211B430000E7BFF7A0779BF12A7
:1000960013F91211B08002D207C290C291C2B77F83
:1000A600C87E001211B4D290D291D2B77FC87E001A
:1000B6001211B42007030202E020000302017EE4CD
:1000C600787FF2787FE2FF240EF8E2FE640D603658
:1000D60078E306EFFD3395E0FC749A2DF582740003
:1000E6003CF583EEF0787FE2FDFF3395E0FEEF24EA
:1000F60001FFEE3412FE740E2DF8E2FD12000378B5
:100106007FE204F280BD78E3E6FD7F007E121200F6
:1001160003E4787FF2787FE2F978E3E6FFE92F24BB
:1001260019F8E2FF640D603B787FE2FD3395E0FC51
:1001360074CE2DF58274003CF583EFF0E9FF33951C
:10014600E0FEEF2441FFEE3412FE74CE2DF58274EC
:10015600003CF583E0FD12000378A206787FE204F6
:10016600F280B278A2E6FD7F407E121200037D5532
:100176007F8012000302020E7F007E12121468783E
:10018600E3A6077F4012146878A2A607E4787FF2F8
:10019600787FE2FFC378E3E66480F8EF64809850E6
:1001A60029EF3395E0FEEF2401FFEE3412FE121420
:1001B60068787FE2FD3395E0FC749A2DF582740031
:1001C6003CF583EFF0E204F280C6E4787FF2787FB4
:1001D600E2FFC378A2E66480F8EF6480985029EFC6
:1001E6003395E0FEEF2441FFEE3412FE12146878D8
:1001F6007FE2FD3395E0FC74CE2DF58274003CF56C
:1002060083EFF0E204F280C6E4FF787FF2787FE2C3
:10021600FEC3648094BF500D74322EF8E4F6787FE6
:10022600E204F280E8E4787FF2787FE2FEC364803D
:10023600948A5021EEFD3395E0FC74DD2DF5827431
:10024600063CF583E493FE74322FF8A606787FE227
:1002560004F20F80D4E4787FF2787FE2FEC378E37D
:10026600E66480F8EE6480985020EEFD3395E0FC5D
:10027600749A2DF58274003CF583E0FE74322FF8F3
:10028600A606787FE204F20F80CF74322FF876222A
:100296000F74322FF8762C0F74322FF876220FE473
:1002A600787FF2787FE2FEC378A2E66480F8EE6497
:1002B60080985020EEFD3395E0FC74CE2DF58274C7
:1002C600003CF583E0FE74322FF8A606787FE20440
:1002D600F20F80CF74322FF8762220070302009F98
:1002E600D290D291D2B7C201E4780AF278017410A2
:1002F600F2780B740CF2787D743AF278007401F29D
:100306007BFF7A0779B51213F91211B020050302A3
:1003160004CFC205E47880F218F218F2787FE2FF83
:10032600C3648094885019740E2FF8E2FF787EE239
:10033600242AF8A607787FE204F218E204F280DCA9
:10034600787F740FF2E418F2787FE2FFC36480943A
:10035600975019740E2FF8E2FF787EE22422F8A651
:1003660007787FE204F218E204F280DC787F741CDE
:10037600F2E418F2787FE2FFC3648094A450197403
:100386000E2FF8E2FF787EE22464F8EFF2787FE23F
:1003960004F218E204F280DCE4787FF2787FE2FF70
:1003A600C3648094885035742A2FF8E6FFC39441BD
:1003B600400CEFD394465006E624C9F68017E6FFB4
:1003C600C39461400CEFD394665006E624A9F680E8
:1003D6000474D026F6787FE204F280C0E4787FF2D7
:1003E600787FE2FFC364809488500D74022FF8E48E
:1003F600F2787FE204F280E8E530C454F0253178E3
:1004060009F2E52EC454F0252F18F2E52CC454F059
:10041600252D18F2E52AC454F0252B18F2E4787F2E
:10042600F2787FE2FFC364809488503574642FF8B5
:10043600E2FFC39441400CEFD394465006E224C930
:10044600F28017E2FFC39461400CEFD39466500626
:10045600E224A9F28004E224D0F2787FE204F2805A
:10046600C0E4787FF2787FE2FFC364809488500D01
:1004760074222FF8E4F6787FE204F280E8786AE2E4
:10048600C454F0FF08E22FF5297868E2C454F0FF5F
:1004960008E22FF5287866E2C454F0FF08E22FF54B
:1004A600277864E2C454F0FF08E22FF526E4787F4B
:1004B600F2787FE2FF2422F8E6FE746C2FF8EEF263
:1004C600787FE204F2E2B408E8C201E4780AF2783E
:1004D600017410F2780B7407F2787D7422F27800BA
:1004E6007403F21211B01213F31211B07B007A00EA
:1004F60079321213F97F107E271211B47BFF7A0727
:1005060079721213F91211B07BFF7A07797E1213F2
:10051600F91211B030004BC290C291C2B77FC87EAB
:10052600001211B4D290D291D2B77FC87E001211B8
:10053600B43008E312129E7B007A0079321213F966
:100546001211B01210067BFF7A0879031213F97F95
:10055600E87E031211B47B007A0079321213F91285
:1005660011B01213F3C201E4780AF27801740CF2A6
:10057600780B7405F2787D743AF2E47800F27888A4
:1005860074FEF2087400F208744FF20874FEF20862
:100596007400F208746CF2087408F27BFE7A007933
:1005A60002E4FF120A1A784EE2FF121126E4787A64
:1005B600F27B017A0079BA1213F91211B01213B252
:1005C6007FA07E0F1211B4E4787EF27FC87E0012FF
:1005D60011B47FC87E001211B4787EE204F2E2C341
:1005E600648094BC40E57888E4F2087400F20874EC
:1005F6009AF20874FEF2087400F2087458F208744D
:100606000AF27BFE7A0079027F01120A1A784EE21C
:10061600FF1211267B017A0079BA1213F91211B072
:100626001213B2C291D2B47FC87E001211B4D29115
:10063600C2B4780DE22401F218E23400F2E2FA08BC
:10064600E2FB7C037DE8FFAE02120D6C7E007F6448
:10065600CFCDCFCECCCE120D6CEF2430785DF27CB0
:10066600007D64AF03AE02120D6C7E007F0ACFCD13
:10067600CFCECCCE120D6CEF2430785EF2780CE241
:10068600FE08E2FF7C007D0A120D6CED2430785FD7
:04069600F20205CD9A
:1013610020013E7801E2FF780AE2FEC39F50320875
:10137100E2FFEEC39F50148E82758300120D3FB5BC
:101381009907780AE204F28013800D780AE204F2E8
:10139100787DE2B59906D201E4780AF2E47862F246
:1013A100227801E2FF780AE2C39F4004C201E4F21D
:0113B1002219
:03002300020BC508
:100BC500C0E0C083C082C0D075D000C000C001C0E5
:100BD50002C003C006C007209803020D0AC2982070
:100BE50001377800E214601514601A14601F24039D
:100BF5006003020D0A7BFF7A0679A780167BFF7AD0
:100C050006799A800E7BFF7A0679BC80067BFF7A8F
:100C15000679AD121361020D0A7862E2FF240EF81F
:100C2500E599F2740E2FF8E2B45505787AE204F2EC
:100C35007862E2C3943E5005E204F280097862E4EA
:100C4500F2C201787AF27800E2147003020CE8141B
:100C55007003020CF4147003020D002403600302F8
:100C65000D0A787AE264026003020D0AC201786215
:100C7500E27857F2787AE4F27862F2C290C291C2D1
:100C8500B7120F5DD203782EE2B43A1408E2FFB42E
:100C95003006C2B3D2908008EFB43104D2B3C2900B
:100CA5007811E264A0705E7817E27059200656D27A
:100CB500067821E278A1F67822E278A0F67823E298
:100CC500789FF67824E2789EF67825E2789DF67886
:100CD50026E2789CF67827E2789BF67828E2789ADF
:100CE500F680227862E2D39428401AD205801678DD
:100CF50062E2D3940A400ED207800A7862E2D39466
:100D0500144002D208309904C299C202D007D00615
:100D1500D003D002D001D000D0D0D082D083D0E093
:010D2500329B
:1010A600020026E493A3F8E493A34003F68001F23A
:1010B60008DFF48029E493A3F85407240CC8C3334B
:1010C600C4540F4420C8834004F456800146F6DF1A
:1010D600E4800B0102040810204080900E46E47E56
:1010E600019360BCA3FF543F30E509541FFEE4930F
:1010F600A360010ECF54C025E060A840B8E493A3D6
:10110600FAE493A3F8E493A3C8C582C8CAC583CA00
:10111600F0A3C8C582C8CAC583CADFE9DEE780BEB8
:010F5C000094
:100D2600BB010689828A83E0225002E722BBFE02CB
:090D3600E32289828A83E49322FE
:100D3F00BB010CE58229F582E5833AF583E0225069
:100D4F0006E92582F8E622BBFE06E92582F8E222B3
:0D0D5F00E58229F582E5833AF583E49322CD
:100D6C00BC000BBE0029EF8DF084FFADF022E4CC6B
:100D7C00F875F008EF2FFFEE33FEEC33FCEE9DEC34
:100D8C00984005FCEE9DFE0FD5F0E9E4CEFD22ED7A
:100D9C00F8F5F0EE8420D21CFEADF075F008EF2FC4
:100DAC00FFED33FD4007985006D5F0F222C398FDB5
:050DBC000FD5F0EA2252
:100DC100E88FF0A4CC8BF0A42CFCE98EF0A42CFCD1
:100DD1008AF0EDA42CFCEA8EF0A4CDA8F08BF0A44F
:100DE1002DCC3825F0FDE98FF0A42CCD35F0FCEBAE
:100DF1008EF0A4FEA9F0EB8FF0A4CFC5F02ECD3973
:0F0E0100FEE43CFCEAA42DCE35F0FDE43CFC22DF
:100E1000EB9FF5F0EA9E42F0E99D42F0E89C45F038
:010E200022AF
:0C0E2100ECF208EDF208EEF208EFF2220D
:100E2D00D083D082E493F208740193F20874029394
:090E3D00F208740393F2740473CB
:00000001FF
