:0300000002023EBB
:0C023E00787FE4F6D8FD7581230202856C
:1005730028FBA84506000029284AF9330500000492
:0A056200080800000000000000007F
:04050A007F057E00EB
:10050E00EF1FAA0670011E4A600BE4FDEDC3940CAA
:05051E0050EE0D80F716
:0105230022B5
:0204B300A90797
:1004B500E4FBC294E913929412050AD294E9C3139A
:0C04C500F90BBB08ED7F057E0002050E60
:0F0467007FCC1204B37FBE1204B3120476A90730
:10047600E4FBC294ECC313FCD2943094034304808F
:0904860012050A0BBB08EBAF04E0
:01048F00224A
:10039C007FCC1204B37F441204B37FC87E001205D5
:0103AC000E42
:1003AD00C200D2947F0C7E0012050EC2947F507E47
:1003BD000012050ED2947F0A7E0012050EA29492B1
:0603CD000012050AA20067
:0103D3002207
:1004EF00E4F9FFFE1203AD12039C120467EFC4542C
:0A04FF00F0FEE9C4540F4206AF06F8
:0105090022CF
:10043D00E4FDFCFBFAF9F8FE1203AD12039C120465
:10044D0067EF540FFCE9FDE4AE04AF0512010EE4B5
:09045D00FBFA7980783D120003DE
:010466002273
:06040C008B158A1689170A
:10041200E4F5181203AD7F331204B3E4F5181204A5
:1004220076AB15AA16A917851882758300EF1202FA
:0A0432000E0518E518C3940840E415
:01043C00229D
:0803D4008F108B118A128913AE
:1003DC00E4FCF5147F551204B3E4F514E514C3954D
:1003EC0010501CE4FCAB11AA12A9138C827583006B
:0F03FC001201E1FF1204B30CBC08EA051480DD06
:01040B0022CE
:1002CA00E4F521F522FB7A00790812040CD2007FAA
:1002DA00801204D5E4F52174082521F8E6C4540FE8
:1002EA00F522C3940AE5225004243080022437FF01
:1002FA0012052474082521F8E6540FF522C3940A3E
:10030A00E5225004243080022437FF1205240521F7
:07031A00E521C3940840C077
:0103210022B9
:100361001204D17F051205921204D17F0512059264
:100371001204D17F05120592D2007F381204D5D222
:10038100007F081204D5D2007F011204D5D2007F6C
:0B039100061204D5D2007F0C0204D538
:100490008B1D8A1E891FAB1DAA1EA91F1201C8FF32
:1004A00060101205247401251FF51FE4351EF51E8A
:0204B00080E4E6
:0104B2002227
:10054F00EF540FFFED30E003430740430780D20025
:03055F000204D5BE
:100524008F2312053BD2A2C2A1C2A0852380D2A0F0
:0705340000000000C2A0223C
:0404D100C2007F38AE
:1004D5008F2330000312053BC2A2C2A1C2A085230F
:0A04E50080D2A000000000C2A02297
:10053B007580FFC2A2D2A1D2A0000000E58020E707
:04054B00FBC2A0222D
:0A05A00000007F0C7EA8DEFEDFFCE9
:0105AA00222E
:0E059200AD07AF051DEF60051205A080F52234
:06056C000419000000006C
:0E05830000007F167E037DE3DDFEDEFCDFFA66
:010591002247
:10032200120361E4FDFF12054F12043D8F1C8E1B68
:100332008D1A8C19120147EF75F00A844430FF12AE
:100342000524AF1CAE1BAD1AAC19120147EF75F0B4
:0F0352000A84E5F04430FF12052412058380C4AD
:10000300EC4D6011E8497017ED33EC3304600DE4F7
:10001300FCFFFEFD22E933E8330470F80201B3125A
:10002300017E58046009E4CC24815006285009025B
:1000330001BD2840030201BAC0E0EB4A7044B98015
:1000430006D0E0FB0201A9EF4E701CBD8008EBFF58
:10005300EAFEE9FD80EBE98DF0A4FEE5F00200EC99
:10006300E9CDF9EAFEEBFFEF89F0A4FCE5F0CE89D8
:10007300F0A42EFFE435F0CD89F0A42DFEE435F095
:100083008067EF4E7005BD80D780C3EF8BF0A4ACC3
:10009300F0EE8BF0A42CFCE435F0F8EF8AF0A42CFE
:1000A300E5F038FCE433CB8DF0A42CFCE5F03BF811
:1000B300EE8AF0A42CFCE5F038F8E433CF89F0A401
:1000C3002CFCE5F038CF3400CE89F0A42FFFE5F007
:1000D3003EFEE433C98DF0A42EFEE5F039CD8AF05F
:1000E300A42FFFE5F03EFEE43DFD33D0E0FB5007D7
:1000F3000BBB000F0201BDEC2CFCEF33FFEE33FE14
:06010300ED33FD02019541
:1001090075F020800E75F010800575F0087D007E71
:10011900007F003392D530D503120230EC33401002
:10012900EF33FFEE33FEED33FDEC33FCD5F0ED227A
:0E013900E5F0247EA2D513CC92E7CDCEFF22B6
:10014700EDD2E7CD33EC3392D524814006E4FFFEB0
:10015700FDFC22FCE4CFCECDCC24E0501174FF800F
:10016700EDC3CC13CCCD13CDCE13CECF13CF0470AC
:07017700F030D5DE0202307A
:10017E00E9D2E7C933E833F892D5EDD2E7CD33ECC7
:07018E0033FC5002B2D52240
:10019500EC30E7100FBF000C0EBE00080DBD0004CB
:1001A5000BEB6014A2D5EB13FCED92E7FD2274FF77
:1001B500FCFDFEFF22E480F8A2D574FF13FC7D80D0
:0301C500E480EFE4
:10024A00020322E493A3F8E493A34003F68001F2A5
:10025A0008DFF48029E493A3F85407240CC8C333B5
:10026A00C4540F4420C8834004F456800146F6DF84
:10027A00E4800B0102040810204080900562E47EAD
:10028A00019360BCA3FF543F30E509541FFEE49379
:10029A00A360010ECF54C025E060A840B8E493A340
:1002AA00FAE493A3F8E493A3C8C582C8CAC583CA6B
:1002BA00F0A3C8C582C8CAC583CADFE9DEE780BE23
:010572000088
:1001C800BB010689828A83E0225002E722BBFE0235
:0901D800E32289828A83E4932268
:1001E100BB010CE58229F582E5833AF583E02250D3
:1001F10006E92582F8E622BBFE06E92582F8E2221D
:0D020100E58229F582E5833AF583E4932236
:10020E00F8BB010DE58229F582E5833AF583E8F026
:10021E00225006E92582C8F622BBFE05E92582C8D2
:02022E00F222BA
:0E023000C3E49FFFE49EFEE49DFDE49CFC22DF
:00000001FF
