:03000000020225D4
:0C022500787FE4F6D8FD75812002026CA1
:0A04310008080000000000000000B1
:040417007F057E00DF
:10041B00EF1FAA0670011E4A600BE4FDEDC3940C9E
:05042B0050EE0D80F70A
:0104300022A9
:0203DE00A9076D
:1003E000E4FBC2B7E91392B7120417D2B7E9C313FB
:0C03F000F90BBB08ED7F057E0002041B2A
:0F03B5007FCC1203DE7FBE1203DE1203C4A90742
:1003C400E4FBC2B7ECC313FCD2B730B703430480D9
:0903D4001204170BBB08EBAF0487
:0103DD0022FD
:1002EA007FCC1203DE7F441203DE7FC87E00120435
:0102FA001BE8
:1002FB00C200D2B77F0C7E0012041BC2B77F507EA8
:10030B000012041BD2B77F0A7E0012041BA2B79205
:06031B0000120417A2000D
:0103210022B9
:1003FC00E4F9FFFE1202FB1202EA1203B5EFC45439
:0A040C00F0FEE9C4540F4206AF06EB
:0104160022C3
:10038B00E4FDFCFBFAF9F8FE1202FB1202EA12037F
:10039B00B5EF540FFCE9FDE4AE04AF0512010EE41A
:0903AB00FBFA7980783D12000391
:0103B4002226
:06035A008B158A168917BD
:10036000E4F5181202FB7F331203DEE4F5181203E2
:10037000C4AB15AA16A917851882758300EF120160
:0A038000F50518E518C3940840E4E1
:01038A002250
:080322008F108B118A12891360
:10032A00E4FCF5147F551203DEE4F514E514C395D5
:10033A0010501CE4FCAB11AA12A9138C827583001D
:0F034A001201C8FF1203DE0CBC08EA051480DDA7
:010359002281
:06043B000419000000009E
:0E04420000007F167E037DE3DDFEDEFCDFFAA8
:010450002289
:1002B10012000012038B8F1C8E1B8D1A8C191201D8
:1002C10047EF75F00A844430FF120000AF1CAE1BEB
:1002D100AD1AAC19120147EF75F00A84E5F044300C
:0902E100FF12000012044280CA61
:10000300EC4D6011E8497017ED33EC3304600DE4F7
:10001300FCFFFEFD22E933E8330470F80201B3125A
:10002300017E58046009E4CC24815006285009025B
:1000330001BD2840030201BAC0E0EB4A7044B98015
:1000430006D0E0FB0201A9EF4E701CBD8008EBFF58
:10005300EAFEE9FD80EBE98DF0A4FEE5F00200EC99
:10006300E9CDF9EAFEEBFFEF89F0A4FCE5F0CE89D8
:10007300F0A42EFFE435F0CD89F0A42DFEE435F095
:100083008067EF4E7005BD80D780C3EF8BF0A4ACC3
:10009300F0EE8BF0A42CFCE435F0F8EF8AF0A42CFE
:1000A300E5F038FCE433CB8DF0A42CFCE5F03BF811
:1000B300EE8AF0A42CFCE5F038F8E433CF89F0A401
:1000C3002CFCE5F038CF3400CE89F0A42FFFE5F007
:1000D3003EFEE433C98DF0A42EFEE5F039CD8AF05F
:1000E300A42FFFE5F03EFEE43DFD33D0E0FB5007D7
:1000F3000BBB000F0201BDEC2CFCEF33FFEE33FE14
:06010300ED33FD02019541
:1001090075F020800E75F010800575F0087D007E71
:10011900007F003392D530D503120217EC3340101B
:10012900EF33FFEE33FEED33FDEC33FCD5F0ED227A
:0E013900E5F0247EA2D513CC92E7CDCEFF22B6
:10014700EDD2E7CD33EC3392D524814006E4FFFEB0
:10015700FDFC22FCE4CFCECDCC24E0501174FF800F
:10016700EDC3CC13CCCD13CDCE13CECF13CF0470AC
:07017700F030D5DE02021793
:10017E00E9D2E7C933E833F892D5EDD2E7CD33ECC7
:07018E0033FC5002B2D52240
:10019500EC30E7100FBF000C0EBE00080DBD0004CB
:1001A5000BEB6014A2D5EB13FCED92E7FD2274FF77
:1001B500FCFDFEFF22E480F8A2D574FF13FC7D80D0
:0301C500E480EFE4
:100231000202B1E493A3F8E493A34003F68001F230
:1002410008DFF48029E493A3F85407240CC8C333CE
:10025100C4540F4420C8834004F456800146F6DF9D
:10026100E4800B0102040810204080900431E47EF8
:10027100019360BCA3FF543F30E509541FFEE49392
:10028100A360010ECF54C025E060A840B8E493A359
:10029100FAE493A3F8E493A3C8C582C8CAC583CA84
:1002A100F0A3C8C582C8CAC583CADFE9DEE780BE3C
:0104410000BA
:1001C800BB010CE58229F582E5833AF583E02250EC
:1001D80006E92582F8E622BBFE06E92582F8E22236
:0D01E800E58229F582E5833AF583E4932250
:1001F500F8BB010DE58229F582E5833AF583E8F040
:10020500225006E92582C8F622BBFE05E92582C8EB
:02021500F222D3
:0E021700C3E49FFFE49EFEE49DFDE49CFC22F8
:00000001FF
