:030000000201B842
:0C01B800787FE4F6D8FD7581200201FF7D
:0A04410008080000000000000000A1
:04039A007F057E005D
:10039E00EF1FAA0670011E4A600BE4FDEDC3940C1C
:0503AE0050EE0D80F788
:0103B3002227
:02035E00A907ED
:10036000E4FBC294E913929412039AD294E9C31362
:0C037000F90BBB08ED7F057E0002039E28
:1003B400E4FBC294ECC313FCD29430940343048052
:0903C40012039A0BBB08EBAF0415
:0103CD00220D
:10031400C200D2947F0C7E0012039EC2947F507E52
:100324000012039ED2947F0A7E0012039EA294922E
:060334000012039AA20072
:01033A0022A0
:100297001203147FCC12035E7F4412035E7FC87E75
:1002A7000012039E1203147FCC12035E7FBE12035B
:1002B7005E1203B4A9071203B4EF540FFEE9FFE47B
:1002C700AD07AC0612010EE4FBFA7980783D120007
:0102D7000323
:0102D8002203
:1003CE001203147F3312035EE4F91203B474082986
:0703DE00F8A60709B908F3B6
:0103E50022F5
:10024400E4F513F5141203CED2007F80120380E488
:10025400F51374082513F8E6C4540FF514C3940A6F
:10026400E5145004243080022437FF1203E6740896
:100274002513F8E6540FF514C3940AE51450042426
:100284003080022437FF1203E60513E513C39408F4
:0202940040C068
:010296002245
:1002D90012037C7F0512043312037C7F0512043359
:1002E90012037C7F05120433D2007F38120380D2B7
:1002F900007F08120380D2007F01120380D2007FA1
:0B03090006120380D2007F0C0203806C
:10033B008B108A118912AB10AA11A912120191FF0D
:10034B0060101203E674012512F512E43511F51154
:02035B0080E43C
:01035D00227D
:10041100EF540FFFED30E003430740430780D20064
:0304210002038053
:1003E6008F151203FDD2A2C2A1C2A0851580D2A08C
:0703F60000000000C2A0227C
:04037C00C2007F3804
:100380008F153000031203FDC2A2C2A1C2A08515C1
:0A03900080D2A000000000C2A022ED
:1003FD007580FFC2A2D2A1D2A0000000E58020E747
:04040D00FBC2A0226C
:0A044C0000007F0C7EA8DEFEDFFC3E
:010456002283
:0E043300AD07AF051DEF600512044C80F522E9
:0E04240000007F167E037DE3DDFEDEFCDFFAC6
:0104320022A7
:0B0457001202D912024412042480F8A3
:10000300EC4D6011E8497017ED33EC3304600DE4F7
:10001300FCFFFEFD22E933E8330470F802017C1291
:10002300014758046009E4CC248150062850090292
:100033000186284003020183C0E0EB4A7044B98083
:1000430006D0E0FB020172EF4E701CBD8008EBFF8F
:10005300EAFEE9FD80EBE98DF0A4FEE5F00200EC99
:10006300E9CDF9EAFEEBFFEF89F0A4FCE5F0CE89D8
:10007300F0A42EFFE435F0CD89F0A42DFEE435F095
:100083008067EF4E7005BD80D780C3EF8BF0A4ACC3
:10009300F0EE8BF0A42CFCE435F0F8EF8AF0A42CFE
:1000A300E5F038FCE433CB8DF0A42CFCE5F03BF811
:1000B300EE8AF0A42CFCE5F038F8E433CF89F0A401
:1000C3002CFCE5F038CF3400CE89F0A42FFFE5F007
:1000D3003EFEE433C98DF0A42EFEE5F039CD8AF05F
:1000E300A42FFFE5F03EFEE43DFD33D0E0FB5007D7
:1000F3000BBB000F020186EC2CFCEF33FFEE33FE4B
:06010300ED33FD02015E78
:1001090075F020800E75F010800575F0087D007E71
:10011900007F003392D530D5031201AAEC33401089
:10012900EF33FFEE33FEED33FDEC33FCD5F0ED227A
:0E013900E5F0247EA2D513CC92E7CDCEFF22B6
:10014700E9D2E7C933E833F892D5EDD2E7CD33ECFE
:0701570033FC5002B2D52277
:10015E00EC30E7100FBF000C0EBE00080DBD000402
:10016E000BEB6014A2D5EB13FCED92E7FD2274FFAE
:10017E00FCFDFEFF22E480F8A2D574FF13FC7D8007
:03018E00E480EF1B
:1001C400020457E493A3F8E493A34003F68001F2F6
:1001D40008DFF48029E493A3F85407240CC8C3333C
:1001E400C4540F4420C8834004F456800146F6DF0B
:1001F400E4800B0102040810204080900441E47E56
:10020400019360BCA3FF543F30E509541FFEE493FF
:10021400A360010ECF54C025E060A840B8E493A3C6
:10022400FAE493A3F8E493A3C8C582C8CAC583CAF1
:10023400F0A3C8C582C8CAC583CADFE9DEE780BEA9
:01044B0000B0
:10019100BB010689828A83E0225002E722BBFE026C
:0901A100E32289828A83E493229F
:0E01AA00C3E49FFFE49EFEE49DFDE49CFC2266
:00000001FF
