:03000000020646AF
:0C064600787FE4F6D8FD75814502068D32
:070A8A003132333435360030
:0E0A6C0000007F557E0C7D9BDDFEDEFCDFFA78
:010A7A002259
:1009B900120A7B120A6C120587E54560FCE5443092
:1009C900E7F7900001E0B401097BFF7A0A798A12FE
:0709D90009E0E4F54480E2AF
:100A5C006162630D0A00000000000000000000004D
:10000300603200000000000000000000000000005B
:1000130000000000000000000000000000000000DD
:1000230000000000000000000000000000000000CD
:0C00330000000000000001430001440038
:0300430002085F51
:0B085F00C0E0C083C082C0D075D0088C
:10086A00E4FFE59A30E05D539AFEAF9BE545701BC5
:10087A0074002544F582E43400F583EFF00544E57D
:10088A0044D39432403E7544008039E54420E7342D
:10089A0020E615BFAA0D75444090000074AAF00521
:1008AA004480215344BF801CE544540F2400F58240
:1008BA00E43400F583EFF00544E544540FFFBF022A
:0408CA000343448020
:0908CE00D0D0D082D083D0E032FA
:060A4B0014F9120499FFEA
:0B0A51008F9BE59A30E1FB539AFD22D9
:1009FF008B3D8A3E893FAF051DEF6011AB3D053F33
:0E0A0F00E53FAA3E7002053E120A4B80E92226
:060981008B408A4189420F
:10098700E4FFE543C39D4027EFC39D501C74002F30
:10099700F582E43400F583E0AB40AA41A9428F8297
:1009A7007583001204C40F80DFE4F5437F01227FC3
:0109B700003F
:0109B800221C
:0F0A7B00759A50759CFD438E1475AF01D2AF2252
:0808D7008F368E358D348C3311
:1008DF0078387C007D007BFF7A0A79627E007F0585
:1008EF001204737538AAAF36AE35AD34AC3312037C
:1008FF00228F39E4FFFE7D207C41AB36AA35A93427
:10090F00A83312013E1203227C007D0A1204E68DE9
:10091F003A85373BE5382539253A253BF53C7B00B1
:09092F007A0079387D050209FF08
:1009E0008B198A1A891BAB19AA1AA91B12049960C0
:0F09F0000D051BE51B7002051A120A4B80E82249
:0606D2008B288A29892A09
:1006D800782E7C007D007BFF7A0A79677E007F0593
:1006E8001204737B007A00792E7D05120981EF6070
:1006F80061E52E64AA7058E52E252F253025316531
:100708003270497BFF7A0A795C1209E0AC30E41256
:1007180002EEE4FBFA79207841120247C004C005D2
:10072800C006C007AC2FE41202EED003D002D001FD
:10073800D00012004DAB28AA29A92A120549AB2BD3
:10074800AA2CA92DE5311204B27F01227F00227F55
:0407580000227F00FC
:01075C00227A
:1007DF000D0A0041542B43574D4F44453D33004FB5
:1007EF004B0041542B5253540072656164790041A0
:1007FF00542B43575341503D224C574C222C2231FE
:10080F0032333435363738222C312C340041542BC7
:10081F0043574A41503D224D4552435552595F412E
:10082F00373841222C227A6C676D6375313822007C
:10083F0041542B4349504D55583D310041542B43A2
:10084F0049505345525645523D312C3830383600B9
:03003F0001450078
:100A3700E4FEEEC39F500C007D0B7CBEDCFEDDFCAC
:030A47000E80EF2F
:010A4A002289
:060A1D008B198A1A891BE7
:100A23007B0085191F851A20851B210B7A0079000D
:030A330012075D4A
:010A3600229D
:100938001209E07BFF7A0779DF1209E0E515451611
:1009480045146032E5184517602CE5181518700233
:10095800151714451760167F01120A37AB14AA152C
:10096800A916120A1DEA494B60E0E4F544E518456A
:090978001770037F01227F0022A9
:10058700E4F5107514FF7515077516EEF517751850
:10059700647BFF7A0779E2120938120A6C7514FF37
:1005A7007515077516F87517137518887BFF7A0781
:1005B70079F1120938120A6C120A6C7514FF751555
:1005C700077516EE7517037518E87BFF7A0779FE2E
:1005D700120938120A6C120A6C7514FF7515077523
:1005E70016EE7517037518E87BFF7A08791C120950
:1005F70038120A6C120A6C7514FF7515077516EE1A
:100607007517037518E87BFF7A08793F12093812C6
:100617000A6C120A6C7514FF7515077516EE7517B7
:10062700037518E87BFF7A08794B1209388F101287
:0E0637000A6C120A6CE5107005754501F54459
:010645002292
:1000460002038EE86480F8E933E83360110460F057
:10005600ED33EC337009E8FCE9FDEAFEEBFF220420
:1000660060DED3EB9FEA9EE99DE8C2E78CF0C2F71B
:1000760095F0400CE8CCF8E9CDF9EACEFAEBCFFBE7
:1000860012035985D0F05804700320D5B3E80470E4
:10009600075002B2D502039892D5EC0460F7E4CC7F
:1000A600C0E0C398F8603B94186008400DD0E0FBB0
:1000B600020370E4FBFAC9FC8028E830E406E4C9D0
:1000C600FBE4CAFCE830E305E4C9CACBFCE8540704
:1000D6006010F8C3E913F9EA13FAEB13FBEC13FC0F
:1000E600D8F130F52FC3E49CFCEF9BFFEE9AFEEDB2
:1000F60099FDD0E0FBEF4E4D4C701222DB0302035C
:1001060095EC2CFCEF33FFEE33FEED33FDED30E7DF
:10011600EB020370EF2BFFEE3AFEED39FDD0E0FB6C
:1001260050130BBB0003020398ED13FDEE13FEEF15
:0801360013FFEC13FC0203703F
:10013E00EC4D6011E8497017ED33EC3304600DE4BB
:10014E00FCFFFEFD22E933E8330470F802038E1241
:10015E00035958046009E4CC248150062850090242
:10016E000398284003020395C0E0EB4A7044B9801F
:10017E0006D0E0FB020384EF4E701CBD8008EBFF3F
:10018E00EAFEE9FD80EBE98DF0A4FEE5F002022720
:10019E00E9CDF9EAFEEBFFEF89F0A4FCE5F0CE899C
:1001AE00F0A42EFFE435F0CD89F0A42DFEE435F059
:1001BE008067EF4E7005BD80D780C3EF8BF0A4AC87
:1001CE00F0EE8BF0A42CFCE435F0F8EF8AF0A42CC2
:1001DE00E5F038FCE433CB8DF0A42CFCE5F03BF8D5
:1001EE00EE8AF0A42CFCE5F038F8E433CF89F0A4C5
:1001FE002CFCE5F038CF3400CE89F0A42FFFE5F0CB
:10020E003EFEE433C98DF0A42EFEE5F039CD8AF022
:10021E00A42FFFE5F03EFEE43DFD33D0E0FB50079A
:10022E000BBB000F020398EC2CFCEF33FFEE33FEFA
:06023E00ED33FD02037028
:10024400020398EC5D046005E85904700302038E10
:10025400120359580460F6EC4860F2EC7004FDFE99
:10026400FF22C860DB2481C85009C398600250068D
:100274000203959850CAF582E9294B4A7005AB826E
:1002840002038475F0007C1A7880C3EF9BEE9AED2C
:1002940099400DC3EF9BFFEE9AFEED99FDE842F005
:1002A400DC23ACF0D0E0FFD0E0FED0E0FDAB822058
:1002B400E7101BEB60BAEC2CFCEF33FFEE33FEEDE2
:1002C40033FD020370E803F830E705C0F075F00071
:1002D400EF2FFFEE33FEED33FD40B830E7C280AAC6
:1002E40075F020800E75F010800575F0087D007E95
:1002F400007F003392D530D50312053BEC33401018
:10030400EF33FFEE33FEED33FDEC33FCD5F0ED229D
:0E031400E5F0247EA2D513CC92E7CDCEFF22D9
:10032200EDD2E7CD33EC3392D524814006E4FFFED3
:10033200FDFC22FCE4CFCECDCC24E0501174FF8032
:10034200EDC3CC13CCCD13CDCE13CECF13CF0470CF
:07035200F030D5DE02053B8F
:10035900E9D2E7C933E833F892D5EDD2E7CD33ECEA
:0703690033FC5002B2D52263
:10037000EC30E7100FBF000C0EBE00080DBD0004EE
:100380000BEB6014A2D5EB13FCED92E7FD2274FF9A
:10039000FCFDFEFF22E480F8A2D574FF13FC7D80F3
:0303A000E480EF07
:100652000209B9E493A3F8E493A34003F68001F2FC
:1006620008DFF48029E493A3F85407240CC8C333A9
:10067200C4540F4420C8834004F456800146F6DF78
:10068200E4800B0102040810204080900003E47E05
:10069200019360BCA3FF543F30E509541FFEE4936D
:1006A200A360010ECF54C025E060A840B8E493A334
:1006B200FAE493A3F8E493A3C8C582C8CAC583CA5F
:1006C200F0A3C8C582C8CAC583CADFE9DEE780BE17
:0100420000BD
:1003A300E709F608DFFA8046E709F208DFFA803E3C
:1003B30088828C83E709F0A3DFFA8032E309F60829
:1003C300DFFA8078E309F208DFFA807088828C8391
:1003D300E309F0A3DFFA806489828A83E0A3F60845
:1003E300DFFA805889828A83E0A3F208DFFA804C1F
:1003F30080D280FA80C680D4806980F280338010F6
:1004030080A680EA809A80A880DA80E280CA80335E
:1004130089828A83ECFAE493A3C8C582C8CCC583D6
:10042300CCF0A3C8C582C8CCC583CCDFE9DEE780A6
:100433000D89828A83E493A3F608DFF9ECFAA9F025
:10044300EDFB2289828A83ECFAE0A3C8C582C8CC7B
:10045300C583CCF0A3C8C582C8CCC583CCDFEADE94
:10046300E880DB89828A83E493A3F208DFF980CCF6
:1004730088F0EF60010E4E60C388F0ED2402B404EF
:100483000050B9F582EB2402B4040050AF23234596
:0604930082239003F373C5
:10049900BB010689828A83E0225002E722BBFE0261
:0904A900E32289828A83E4932294
:1004B200BB010689828A83F0225002F722BBFE0129
:0204C200F32223
:1004C400F8BB010DE58229F582E5833AF583E8F06E
:1004D400225006E92582C8F622BBFE05E92582C81A
:0204E400F22202
:1004E600BC000BBE0029EF8DF084FFADF022E4CCFA
:1004F600F875F008EF2FFFEE33FEEC33FCEE9DECC3
:10050600984005FCEE9DFE0FD5F0E9E4CEFD22ED08
:10051600F8F5F0EE8420D21CFEADF075F008EF2F52
:10052600FFED33FD4007985006D5F0F222C398FD43
:050536000FD5F0EA22E0
:0E053B00C3E49FFFE49EFEE49DFDE49CFC22D1
:10054900BB010789828A8302056F5005E9F8020514
:0A05590063BBFE05E9F802057B22F2
:10075D008B1C8A1D891EAB1FAA20A921120499602A
:10076D0063AB1CAA1DA91E120499605F851F22850B
:10077D0020238521248B258A268927AB22AA23A90C
:10078D0024120499FF6023AB25AA26A927120499E8
:10079D006F7017042524F524E43523F52374012502
:1007AD0027F527E43526F52680D1AB22AA23A924E7
:1007BD001204997002800D7401251EF51EE4351D7D
:1007CD00F51D809DAB1CAA1DA91E227B007A007908
:0207DD000022F8
:0C056300ECF608EDF608EEF608EFF622C4
:0C056F00ECF0A3EDF0A3EEF0A3EFF022FF
:0C057B00ECF208EDF208EEF208EFF222BC
:00000001FF
