:0300000002024EAB
:0C024E00787FE4F6D8FD75812602029549
:1005000028FBA84506000029284AF9330500000405
:0A04EF0008120000000000000000E9
:040465007F057E0091
:10046900EF1FAA0670011E4A600BE4FDEDC3940C50
:0504790050EE0D80F7BC
:01047E00225B
:02042900A90721
:10042B00E4FBC294E9139294120465D294E9C313CA
:0C043B00F90BBB08ED7F057E0002046990
:10047F00E4FBC294ECC313FCD29430940343048086
:09048F001204650BBB08EBAF047D
:010498002241
:0503DA007FCC12042994
:1003DF00C200D2947F0C7E00120469C2947F507EBB
:1003EF0000120469D2947F0A7E00120469A29492CB
:0603FF0000120465A200DB
:0104050022D4
:10032D001203DF7FCC1204297F441204297FC87E7B
:10033D00001204691203DF7FCC1204297FBE120460
:10034D002912047FA90712047FEF540FFEE9FFE481
:10035D00AD07AC0612010EE4FBFA7980783D120070
:01036D00038C
:01036E00226C
:100499001203DF7F33120429E4F912047F7412294D
:0704A900F8A60709B908F3EA
:0104B0002229
:0203AA008F1EA4
:1003AC00E4FC7F55120429E51EB4010DEC90050008
:1003BC0093FF1204290CBC08F3E51EB4020FE4FCF5
:0D03CC00EC90050893FF1204290CBC08F307
:0103D9002201
:0401B8008E088F0915
:1001BC00E4F50AF50BF50CF50DF511F510F50FF549
:1001CC000E1203DF1203DAE5096401450870057F9E
:1001DC00011203AAE5096402450870057F021203A7
:1001EC00AA7F441204291203DF1203DAE509640121
:1001FC00450870057F011203AAE5096402450870E1
:10020C00057F021203AA7FBE12042912047F8F0AF3
:10021C0012047F8F0BE50B540F750C00F50D750D4B
:10022C0000F50CE50A420DE4AC0CAD0D12010EE428
:10023C00FBFA7980783D1200038F118E108D0F8C94
:01024C000EA3
:01024D00228E
:1002DA00E4F524F525120499D2007F8012044BE438
:1002EA00F52474122524F8E6C4540FF525C3940A9C
:1002FA00E5255004243080022437FF1204B1741219
:10030A002524F8E6540FF525C3940AE5255004245C
:10031A003080022437FF1204B10524E524C394086F
:02032A0040C0D1
:01032C0022AE
:10036F001204477F0512051F1204477F0512051F50
:10037F001204477F0512051FD2007F3812044BD29B
:10038F00007F0812044BD2007F0112044BD2007F72
:0B039F000612044BD2007F0C02044B3E
:100406008B218A228923AB21AA22A923120191FFDB
:1004160060101204B174012523F523E43522F52278
:0204260080E470
:0104280022B1
:1004DC00EF540FFFED30E003430740430780D20099
:0304EC0002044BBC
:1004B1008F261204C8D2A2C2A1C2A0852680D2A0D2
:0704C10000000000C2A022B0
:04044700C2007F3838
:10044B008F263000031204C8C2A2C2A1C2A0852607
:0A045B0080D2A000000000C2A02221
:1004C8007580FFC2A2D2A1D2A0000000E58020E77B
:0404D800FBC2A022A1
:0A052D0000007F0C7EA8DEFEDFFC5C
:0105370022A1
:0E051F00AD07AF051DEF600512052D80F5221A
:0604F900041A00000000DF
:0E05100000007F167E037DE3DDFEDEFCDFFAD9
:01051E0022BA
:0B05380012036F1202DA12051080F8A7
:10000300EC4D6011E8497017ED33EC3304600DE4F7
:10001300FCFFFEFD22E933E8330470F802017C1291
:10002300014758046009E4CC248150062850090292
:100033000186284003020183C0E0EB4A7044B98083
:1000430006D0E0FB020172EF4E701CBD8008EBFF8F
:10005300EAFEE9FD80EBE98DF0A4FEE5F00200EC99
:10006300E9CDF9EAFEEBFFEF89F0A4FCE5F0CE89D8
:10007300F0A42EFFE435F0CD89F0A42DFEE435F095
:100083008067EF4E7005BD80D780C3EF8BF0A4ACC3
:10009300F0EE8BF0A42CFCE435F0F8EF8AF0A42CFE
:1000A300E5F038FCE433CB8DF0A42CFCE5F03BF811
:1000B300EE8AF0A42CFCE5F038F8E433CF89F0A401
:1000C3002CFCE5F038CF3400CE89F0A42FFFE5F007
:1000D3003EFEE433C98DF0A42EFEE5F039CD8AF05F
:1000E300A42FFFE5F03EFEE43DFD33D0E0FB5007D7
:1000F3000BBB000F020186EC2CFCEF33FFEE33FE4B
:06010300ED33FD02015E78
:1001090075F020800E75F010800575F0087D007E71
:10011900007F003392D530D5031201AAEC33401089
:10012900EF33FFEE33FEED33FDEC33FCD5F0ED227A
:0E013900E5F0247EA2D513CC92E7CDCEFF22B6
:10014700E9D2E7C933E833F892D5EDD2E7CD33ECFE
:0701570033FC5002B2D52277
:10015E00EC30E7100FBF000C0EBE00080DBD000402
:10016E000BEB6014A2D5EB13FCED92E7FD2274FFAE
:10017E00FCFDFEFF22E480F8A2D574FF13FC7D8007
:03018E00E480EF1B
:10025A00020538E493A3F8E493A34003F68001F27D
:10026A0008DFF48029E493A3F85407240CC8C333A5
:10027A00C4540F4420C8834004F456800146F6DF74
:10028A00E4800B01020408102040809004EFE47E11
:10029A00019360BCA3FF543F30E509541FFEE49369
:1002AA00A360010ECF54C025E060A840B8E493A330
:1002BA00FAE493A3F8E493A3C8C582C8CAC583CA5B
:1002CA00F0A3C8C582C8CAC583CADFE9DEE780BE13
:0104FF0000FC
:10019100BB010689828A83E0225002E722BBFE026C
:0901A100E32289828A83E493229F
:0E01AA00C3E49FFFE49EFEE49DFDE49CFC2266
:00000001FF
