:03000000020BDB15
:0C0BDB00787FE4F6D8FD75815D020C22E5
:030EFF0025630068
:100E9100120003120D49120E577BFF7A0E79FF855E
:070EA10011251207CE80EFBE
:0E0ECF0080828486888A8C81838587898B8DBA
:090E7800071000000C0F0503082F
:100EBC00E4FEC2A3EF1392A4EFC313FFD2A30EBEA2
:020ECC0008F02C
:010ECE002201
:100EA800C2A500C2A300D2A500120EBCAF05120E47
:040EB800BCC2A522F1
:100D9B00E4FDC2A50000C2A30000D2A50000120E04
:100DAB00BCE4FF30A403430580C2A3EDC313FD00D5
:100DBB000000D2A30FBF08EBC2A50000C2A5C2A3BF
:100DCB0000000000D2A30000C2A40000D2A40000C7
:020DDB00AF0562
:010DDD0022F3
:100E57007BFF7A0E79D6E4FC12061BFF120D9B74FA
:100E6700102CF8A607740129F9E43AFA0CBC07E834
:010E77002258
:100D4900E4FC74102CF8E6FF75F00A84FEEF75F0E8
:100D59000A84A6F0EEC454F0FF74102CF8EF26F6BE
:100D69000CBC07DEE4FD7F8E120EA87BFF7A0E799C
:100D7900CFE4FC12061BFF74102CF8E6FD120EA836
:100D8900740129F9E43AFA0CBC07E87D807F8E02E8
:020D99000EA8A2
:0A0EE7000000000000000000000001
:0F0E81000A4900000000000000000000015300BB
:03002300020E3496
:100E3400C0E0C0D075D000C000C00730980CC29884
:100E4400AF53055374492FF8A699D007D000D0D0DA
:030E5400D0E032B9
:080EF1008F993099FDC299228E
:090EDD00E4FF3098FDAF99C298C2
:010EE60022E9
:100E10008B178A188919AF051DEF6017AB170519D5
:100E2000E519AA187002051814F912061BFF120E14
:040E3000F180E32248
:060DDE008B1A8A1B891C20
:100DE400E4FFE553C39D4021EFC39D501674492F82
:100DF400F8E6AB1AAA1BA91C8F827583001206732E
:0B0E04000F80E5E4F5537F01227F0022
:010E0F0022C0
:10000300759850758920758840758BFA758DFA75CA
:0B0013008780C298C299D2ACD2AF2205
:080CE8008F578E568D558C5478
:100CF00078597C007D007BFF7A0E79E77E007F05C6
:100D00001205F57559AAAF57AE56AD55AC5412033E
:100D1000028F5AE4FFFE7D207C41AB57AA56A955AD
:100D2000A85412011E1203027C007D0A1206958D42
:100D30005B85585CE559255A255B255CF55D7B0094
:090D40007A0079597D05020E10BC
:060C67008B3E8A3F89402C
:100C6D0078447C007D007BFF7A0E79EC7E007F0559
:100C7D001205F57B007A0079447D05120DDEEF60DB
:100C8D0057E54464AA704EE544254525462547653C
:100C9D0048703FAC461202CEE4FBFA79207841123F
:100CAD000227C004C005C006C007AC45E41202CE41
:100CBD00D003D002D001D00012002DAB3EAA3FA927
:100CCD00401206F8AB41AA42A943E5471206617FDF
:0A0CDD0001227F00227F00227F0029
:010CE70022EA
:060EF900AE07120EF1220B
:04001E00120EDD22BF
:1000260002036EE86480F8E933E83360110460F097
:10003600ED33EC337009E8FCE9FDEAFEEBFF220440
:1000460060DED3EB9FEA9EE99DE8C2E78CF0C2F73B
:1000560095F0400CE8CCF8E9CDF9EACEFAEBCFFB07
:1000660012033985D0F05804700320D5B3E8047024
:10007600075002B2D502037892D5EC0460F7E4CCBF
:10008600C0E0C398F8603B94186008400DD0E0FBD0
:10009600020350E4FBFAC9FC8028E830E406E4C910
:1000A600FBE4CAFCE830E305E4C9CACBFCE8540724
:1000B6006010F8C3E913F9EA13FAEB13FBEC13FC2F
:1000C600D8F130F52FC3E49CFCEF9BFFEE9AFEEDD2
:1000D60099FDD0E0FBEF4E4D4C701222DB0302037C
:1000E60075EC2CFCEF33FFEE33FEED33FDED30E720
:1000F600EB020350EF2BFFEE3AFEED39FDD0E0FBAD
:1001060050130BBB0003020378ED13FDEE13FEEF55
:0801160013FFEC13FC0203507F
:10011E00EC4D6011E8497017ED33EC3304600DE4DB
:10012E00FCFFFEFD22E933E8330470F802036E1281
:10013E00033958046009E4CC248150062850090282
:10014E000378284003020375C0E0EB4A7044B9807F
:10015E0006D0E0FB020364EF4E701CBD8008EBFF7F
:10016E00EAFEE9FD80EBE98DF0A4FEE5F002020760
:10017E00E9CDF9EAFEEBFFEF89F0A4FCE5F0CE89BC
:10018E00F0A42EFFE435F0CD89F0A42DFEE435F079
:10019E008067EF4E7005BD80D780C3EF8BF0A4ACA7
:1001AE00F0EE8BF0A42CFCE435F0F8EF8AF0A42CE2
:1001BE00E5F038FCE433CB8DF0A42CFCE5F03BF8F5
:1001CE00EE8AF0A42CFCE5F038F8E433CF89F0A4E5
:1001DE002CFCE5F038CF3400CE89F0A42FFFE5F0EB
:1001EE003EFEE433C98DF0A42EFEE5F039CD8AF043
:1001FE00A42FFFE5F03EFEE43DFD33D0E0FB5007BB
:10020E000BBB000F020378EC2CFCEF33FFEE33FE3A
:06021E00ED33FD02035068
:10022400020378EC5D046005E85904700302036E70
:10023400120339580460F6EC4860F2EC7004FDFED9
:10024400FF22C860DB2481C85009C39860025006AD
:100254000203759850CAF582E9294B4A7005AB82AE
:1002640002036475F0007C1A7880C3EF9BEE9AED6C
:1002740099400DC3EF9BFFEE9AFEED99FDE842F025
:10028400DC23ACF0D0E0FFD0E0FED0E0FDAB822078
:10029400E7101BEB60BAEC2CFCEF33FFEE33FEED02
:1002A40033FD020350E803F830E705C0F075F000B1
:1002B400EF2FFFEE33FEED33FD40B830E7C280AAE6
:1002C40075F020800E75F010800575F0087D007EB5
:1002D400007F003392D530D5031206EAEC33401088
:1002E400EF33FFEE33FEED33FDEC33FCD5F0ED22BE
:0E02F400E5F0247EA2D513CC92E7CDCEFF22FA
:10030200EDD2E7CD33EC3392D524814006E4FFFEF3
:10031200FDFC22FCE4CFCECDCC24E0501174FF8052
:10032200EDC3CC13CCCD13CDCE13CECF13CF0470EF
:07033200F030D5DE0206EAFF
:10076C00E5392425F8E60539227822300702782568
:10077C00E475F00112071202061B2000EB7F2ED24B
:10078C00008018EF540F2490D43440D4FF30040B65
:10079C00EF24BFB41A0050032461FFE53A60021540
:1007AC003A053DE53D7002053C30070D7822E475B5
:1007BC00F001120712EF020661020EF97403D20760
:1007CC008003E4C207F5398B228A238924E4F53AA5
:1007DC00F53CF53DE53A60077F201207A780F575DB
:1007EC003BFFC201C200C202C203C205C206C2085C
:1007FC00120775FF700D3007057F001207B8AF3D6B
:10080C00AE3C22B4255FC2D5C204120775FF24D0BA
:10081C00B40A00501A75F00A783A30D50508B6FFBC
:10082C000106C6A426F620D5047002D20380D92472
:10083C00CFB41A00EF5004C2E5D204020AA5D201CB
:10084C0080C6D20080C0D20280BCD2D580BAD2057C
:10085C0080B47F201207A72002077401B53A00402C
:10086C00F112076CFF1207A70207E0D208D206802C
:10087C009512076CFB12076CFA12076CF94A4B7055
:10088C0006799C7A0B7BFF20022EE53A602A7E00CB
:10089C008E8275830012063460060EEE653B70F096
:1008AC00C2D5EBC0E0EAC0E0E9C0E0EE120B05D027
:1008BC00E0F9D0E0FAD0E0FB12061BFF60AAEBC017
:1008CC00E0EAC0E0E9C0E01207A7D0E02401F9D0CB
:1008DC00E03400FAD0E0FBE53B0460DCD53BD9808A
:1008EC0087D20280A2120AE860F7E53B700104127D
:1008FC000383A93B600DE53B600914F53B120B8F9C
:10090C00EF60F3EA30E702F404C3995077EAF42578
:10091C003B0430E701E404F53B800D120AE860C1AA
:10092C00EA053B253B120383EA7838F630E701E40D
:10093C00253B04D53B0420050114120B05E4C0E053
:10094C00120B8F7838E6601320E70714F612078F26
:10095C00802204F6D0E014C0E07F0012078FE53B44
:10096C006007120786153B800B300503120786D0F3
:10097C00E00207E0D0E00480C5120AE860A0E53B85
:10098C00041203837838EAF6E53B20050260010483
:05099C002404120B050C
:1009A10074FF04C0E0120B8F12078FE53B20050294
:1009B1006003120786D0E0B53BE87F4512079978BE
:1009C10038E67F2B30E7047F2DF404C0E01207A73F
:1009D100D0E075F00A84C0F0120790D0E0120790C1
:1009E1000207E0791080027908C206C2088008D2A5
:1009F100D5790A8004790AC2D5E53B047002F53B3A
:100A0100E4FAFDFEFF12076CFC7B082001131207BC
:100A11006CFD7B1030000A12076CFE12076CFF7B25
:100A210020EC3382D592D55013C3E43000069FFFEA
:100A3100E49EFEE42001039DFDE49CFCE4CBF8C2AE
:100A410001EC700CCFCECDCCE824F8F870F3801710
:100A5100C3EF33FFEE33FEED33FDEC33FCEB33FB41
:100A6100994002FB0FD8E9EB300105F8D0E0C4480A
:100A7100B201C0E00AEC4D4E4F78207B0070C2EA13
:100A8100B53B0040BCC0E0120B07D0F0D0E0200124
:100A910004C4C0E0C4B201C0F0120790D0F0D5F098
:100AA100EB0207E0120722087D5309E458084E4C77
:100AB100084A4209E84F09F04409F049086343092B
:100AC100F65509274609854508F1470BBC500852E0
:100AD1002D08562E08792B085A230877200BA52AB2
:100AE10008124800000871E53BB4FF03753B06128C
:100AF100076CFC12076CFD12076CFE12076CFF7885
:100B0100310203B2790AA2D5200314300509B910C4
:100B1100020404B9080104A2D520060250010420F0
:100B210002689202B53A005034C0E07F20300319C8
:100B31007F30A20272067205500F120B5EC202C212
:100B410006C205C2087F30800F300503E9C0E012FC
:100B510007A7300503D0E0F9D0E0B53ACC3005174E
:100B61007F30B9100C1207A77F583004077F7880B7
:100B710003B908031207A73002057F2D0207A77FDB
:100B8100202008F87F2B2006F322920280CF7F00DD
:100B9100B4070050052431F8E6FF22286E756C6C0D
:100BA1002900D20112076C3001F8C201783A30D520
:100BB1000108F60208122D5043495812076C24030C
:100BC100B405004001E4900BB793120798743A12F0
:0A0BD1000798D203753A040209E404
:10033900E9D2E7C933E833F892D5EDD2E7CD33EC0A
:0703490033FC5002B2D52283
:10035000EC30E7100FBF000C0EBE00080DBD00040E
:100360000BEB6014A2D5EB13FCED92E7FD2274FFBA
:10037000FCFDFEFF22E480F8A2D574FF13FC7D8013
:03038000E480EF27
:10038300F920E72824F950037907E4F42402FB1841
:10039300DBFDE624FB5014E9600DE4F618E604F6F1
:0F03A300B40A08E4F6D9F57401F60A22C2D5228D
:1003B200ED33EC3392D5FA602AB4FF33EDC2E77B1A
:1003C200FF60067A0379D7E4227A0379E020D50424
:1003D2007A0379DB224E614E002B494E46002D49AD
:1003E2004E4600E47A08F608DAFC7B00740722E83D
:1003F200C0E0ECC0E0EDC0E0EEC0E0EFC0E0EA75C6
:10040200F010A4CAABF075F04DA42BFBE435F0FC60
:10041200EA2410FAEB34C5FBEC34D9FCEDC2E7FF59
:1004220075F056A4F42411C5F0F434C58FF0A42A53
:10043200E5F03BE43CF620E7141204E5D0E0FFD0FF
:10044200E0FED0E0FDD0E0FC1202278014F404129A
:1004520004E5D0E0FFD0E0FED0E0FDD0E0FC1201E8
:100462001ED0E0F8E6FAEDD2E7CD33EC332482FB7E
:10047200E4C3CF33CFCE33CECD33CD33DBF37B07E3
:1004820075F00A846004F6081B0AE5F0F6088FF09E
:10049200740AA4FFACF08EF0740AA42CFEACF050E7
:1004A200010C8DF0740AA42CFDE435F0F608DBDEB5
:0304B200740722AA
:1004B5003F8000004120000042C80000447A00004F
:1004C500461C400047C35000497424004B189680D1
:1004D5004CBEBC205A0E1BCA6753C21C749DC5AEC8
:1004E500FB60065407601C2323120513EB54386088
:1004F500091204FF12050E12011EECF8EDF9EEFAD1
:10050500EFCB22EB12050E80F1543803241C900426
:10051500B5FE93FC0EEE93FD0EEE930ECE93FF22E9
:100BE700020E91E493A3F8E493A34003F68001F285
:100BF70008DFF48029E493A3F85407240CC8C3330F
:100C0700C4540F4420C8834004F456800146F6DFDD
:100C1700E4800B0102040810204080900E78E47EE7
:100C2700019360BCA3FF543F30E509541FFEE493D2
:100C3700A360010ECF54C025E060A840B8E493A399
:100C4700FAE493A3F8E493A3C8C582C8CAC583CAC4
:100C5700F0A3C8C582C8CAC583CADFE9DEE780BE7C
:010E90000061
:10052500E709F608DFFA8046E709F208DFFA803EB8
:1005350088828C83E709F0A3DFFA8032E309F608A5
:10054500DFFA8078E309F208DFFA807088828C830D
:10055500E309F0A3DFFA806489828A83E0A3F608C1
:10056500DFFA805889828A83E0A3F208DFFA804C9B
:1005750080D280FA80C680D4806980F28033801072
:1005850080A680EA809A80A880DA80E280CA8033DB
:1005950089828A83ECFAE493A3C8C582C8CCC58353
:1005A500CCF0A3C8C582C8CCC583CCDFE9DEE78023
:1005B5000D89828A83E493A3F608DFF9ECFAA9F0A2
:1005C500EDFB2289828A83ECFAE0A3C8C582C8CCF8
:1005D500C583CCF0A3C8C582C8CCC583CCDFEADE11
:1005E500E880DB89828A83E493A3F208DFF980CC73
:1005F50088F0EF60010E4E60C388F0ED2402B4046C
:100605000050B9F582EB2402B4040050AF23234512
:06061500822390057573BD
:10061B00BB010689828A83E0225002E722BBFE02DD
:09062B00E32289828A83E4932210
:10063400BB010CE58229F582E5833AF583E022507B
:1006440006E92582F8E622BBFE06E92582F8E222C5
:0D065400E58229F582E5833AF583E49322DF
:10066100BB010689828A83F0225002F722BBFE0178
:02067100F32272
:10067300F8BB010DE58229F582E5833AF583E8F0BD
:10068300225006E92582C8F622BBFE05E92582C869
:02069300F22251
:10069500BC000BBE0029EF8DF084FFADF022E4CC49
:1006A500F875F008EF2FFFEE33FEEC33FCEE9DEC12
:1006B500984005FCEE9DFE0FD5F0E9E4CEFD22ED58
:1006C500F8F5F0EE8420D21CFEADF075F008EF2FA2
:1006D500FFED33FD4007985006D5F0F222C398FD93
:0506E5000FD5F0EA2230
:0E06EA00C3E49FFFE49EFEE49DFDE49CFC2221
:1006F800BB010789828A830207545005E9F802077B
:0A07080048BBFE05E9F80207602275
:10071200FAE6FB0808E6F925F0F618E6CA3AF622E8
:10072200D083D082F8E4937012740193700DA3A366
:1007320093F8740193F5828883E47374029368607A
:06074200EFA3A3A380DF7A
:0C074800ECF608EDF608EEF608EFF622DD
:0C075400ECF0A3EDF0A3EEF0A3EFF02218
:0C076000ECF208EDF208EEF208EFF222D5
:00000001FF
