:03000000020D7A74
:0C0D7A00787FE4F6D8FD758161020B352E
:100C9A00B6CFC0CBCCD4C9B30056312E3300B4F290
:100CAA00D3A1D5FBCA203A00B4F2D3A1D0A1CA205D
:0C0CBA003A0000000000000000000000F4
:100B350078227C007D007BFF7A0C79BC7E007F0AE1
:100B450012055D752C27752D84752E00752F03757F
:100B550033B67532F375319D75303F120D677D02E1
:100B6500E4FF120CE97BFF7A0C799A1206737D0378
:100B75007F01120CE97BFF7A0C79A3120673E4FD61
:100B85007F02120CE97BFF7A0C79A8120CC67F7DD7
:100B95007E00120C62E4FD7F03120CE97BFF7A0CE8
:100BA50079B2120CC67FAE7E477D497C40120C1788
:020BB50080FEC0
:100D4B00256400252E326600000000000000000024
:0C0D5B000000000000000000000000008C
:100BB700C291C290E9139287E9C313139286E9138E
:100BC70013543F139285E9131313541F139284E9A7
:100BD700C4540F139283E9C4135407139282E9C4D0
:100BE70013135403139281E9C4131313540113927B
:070BF70080D2907F057E0013
:100BFE00D3EF9400EE9400400F7DC77C01DCFEDD48
:080C0E00FAEF1F70EB1E80E8F5
:010C160022BB
:100A8000E4FBC292D291D2907F01FE120BFEA286AD
:100A9000E43325E0FFE433FEA287E433FDEEFCEF10
:100AA0004DFDA285E4FE337802C333CE33CED8F9B0
:100AB000FFEE4CFCEF4DFDA284E4FE337803C3331C
:100AC000CE33CED8F9FFEE4CFCEF4DFDA283E433DC
:100AD000C4F8540FC868FFE4C454F0484CFCEF4D10
:100AE000FDA282E4FE337805C333CE33CED8F9FFBE
:100AF000EE4CFCEF4DFDA281E4FE337806C333CE0D
:100B000033CED8F9FFEE4CFCEF4DFDA280E4FE336E
:100B10007807C333CE33CED8F9FFEE4CEF4D30E734
:100B20000F0BEBD394645003020A8EC2907F002215
:040B3000C2907F01EF
:010B3400229E
:020D0B00A90736
:100D0D00E4FA120A80EF700E7F01FE120BFE0AEA62
:0D0D1D00D3946440ED22C292120BB7C29035
:010D2A0022A6
:020D2B00A90716
:100D2D00E4FA120A80EF700E7F01FE120BFE0AEA42
:0D0D3D00D3946440ED22D292120BB7C29005
:010D4A002286
:100D6700D2A6D2A77F30120D0B7F0C120D0B7F017D
:030D7700020D0B5F
:020CE900AE0754
:100CEB00EE70047E808013BE01047E90800CBE02E9
:100CFB00047E888005BE03027E98EE2DFF020D0B4D
:080D86008F61120D2BAF6122F9
:100CC6008B458A468947AB45AA46A947120583FF45
:100CD6006010120D2B74012547F547E43546F5469D
:020CE60080E4A8
:010CE80022E9
:040C62008E348F3508
:100C660078367C007D007BFF7A0D79537E007F0A03
:100C760012055D7548FF75490D754A4B85344B85E0
:100C8600354C7B007A00793612066D7B007A007946
:040C960036020CC650
:080C17008F378E368D358C34C9
:100C1F0078387C007D007BFF7A0D795D7E007F0A3E
:100C2F0012055D7542007543007544387548FF75B0
:100C3F00490D754A4E85374E85364D85354C853471
:100C4F004B7B007A00793812066D7B007A00793879
:030C5F00020CC6BE
:10061100E55C2448F8E6055C227845300702784815
:10062100E475F0011205DB0205832000EB7F2ED279
:10063100008018EF540F2490D43440D4FF30040BC1
:10064100EF24BFB41A0050032461FFE55D60021579
:100651005D0560E5607002055F30070D7845E47562
:10066100F0011205DBEF0205C9020D867403D20702
:100671008003E4C207F55C8B458A468947E4F55D52
:10068100F55FF560E55D60077F2012064C80F5752A
:100691005EFFC201C200C202C203C205C206C20895
:1006A10012061AFF700D3007057F0012065DAF605C
:1006B100AE5F22B4255FC2D5C20412061AFF24D050
:1006C100B40A00501A75F00A785D30D50508B6FFF6
:1006D1000106C6A426F620D5047002D20380D924CF
:1006E100CFB41A00EF5004C2E5D20402094AD20184
:1006F10080C6D20080C0D20280BCD2D580BAD205D9
:1007010080B47F2012064C2002077401B55D0040C1
:10071100F1120611FF12064C020685D208D206809C
:1007210095120611FB120611FA120611F94A4B70C5
:100731000679417A0A7BFF20022EE55D602A7E0060
:100741008E8275830012059C60060EEE655E70F068
:10075100C2D5EBC0E0EAC0E0E9C0E0EE1209AAD0E0
:10076100E0F9D0E0FAD0E0FB120583FF60AAEBC00C
:10077100E0EAC0E0E9C0E012064CD0E02401F9D083
:10078100E03400FAD0E0FBE55E0460DCD55ED980A0
:1007910087D20280A212098D60F7E55E7001041212
:1007A1000003A95E600DE55E600914F55E120A346E
:1007B100EF60F3EA30E702F404C3995077EAF425D5
:1007C1005E0430E701E404F55E800D12098D60C11D
:1007D100EA055E255E120003EA785BF630E701E484
:1007E100255E04D55E04200501141209AAE4C0E0C7
:1007F100120A34785BE6601320E70714F612063418
:10080100802204F6D0E014C0E07F00120634E55ED9
:10081100600712062B155E800B30050312062BD0E4
:10082100E0020685D0E00480C512098D60A0E55E76
:1008310004120003785BEAF6E55E2005026001041C
:0508410024041209AAC5
:1008460074FF04C0E0120A34120634E55E20050285
:10085600600312062BD0E0B55EE87F4512063E78AF
:100866005BE67F2B30E7047F2DF404C0E012064CD4
:10087600D0E075F00A84C0F0120635D0E0120635D5
:10088600020685791080027908C206C2088008D25D
:10089600D5790A8004790AC2D5E55E047002F55E50
:1008A600E4FAFDFEFF120611FC7B08200113120676
:1008B60011FD7B1030000A120611FE120611FF7B95
:1008C60020EC3382D592D55013C3E43000069FFF47
:1008D600E49EFEE42001039DFDE49CFCE4CBF8C20B
:1008E60001EC700CCFCECDCCE824F8F870F380176D
:1008F600C3EF33FFEE33FEED33FDEC33FCEB33FB9E
:10090600994002FB0FD8E9EB300105F8D0E0C44866
:10091600B201C0E00AEC4D4E4F78207B0070C2EA6F
:10092600B55E0040BCC0E01209ACD0F0D0E02001BA
:1009360004C4C0E0C4B201C0F0120635D0F0D5F050
:10094600EB0206851205EB07225308895806F34C7D
:1009560006EF42088D4F0895440895490708430855
:100966009B5507CC46082A450796470A615006F765
:100976002D06FB2E071E2B06FF23071C200A4A2ADC
:1009860006B74800000716E55EB4FF03755E06125B
:100996000611FC120611FD120611FE120611FF7851
:1009A60054020032790AA2D5200314300509B91081
:1009B600020404B9080104A2D5200602500104204D
:1009C60002689202B55D005034C0E07F2030031902
:1009D6007F30A20272067205500F120A03C202C2CB
:1009E60006C205C2087F30800F300503E9C0E01259
:1009F600064C300503D0E0F9D0E0B55DCC300517E4
:100A06007F30B9100C12064C7F583004077F78806F
:100A160003B9080312064C3002057F2D02064C7FEF
:100A2600202008F87F2B2006F322920280CF7F0039
:100A3600B4070050052454F8E6FF22286E756C6C46
:100A46002900D2011206113001F8C201785D30D5B5
:100A56000108F60206B72D50434958120611240321
:100A6600B405004001E4900A5C9312063D743A1204
:0A0A7600063DD203755D04020889F5
:10000300F920E72824F950037907E4F42402FB18C4
:10001300DBFDE624FB5014E9600DE4F618E604F674
:0F002300B40A08E4F6D9F57401F60A22C2D52210
:10003200ED33EC3392D5FA602AB4FF33EDC2E77B9D
:10004200FF60067A007957E4227A00796020D504AD
:100052007A00795B224E614E002B494E46002D49B3
:100062004E4600E47A08F608DAFC7B00740722E8C0
:10007200C0E0ECC0E0EDC0E0EEC0E0EFC0E0EA7549
:10008200F010A4CAABF075F04DA42BFBE435F0FCE4
:10009200EA2410FAEB34C5FBEC34D9FCEDC2E7FFDD
:1000A20075F056A4F42411C5F0F434C58FF0A42AD7
:1000B200E5F03BE43CF620E714120403D0E0FFD065
:1000C200E0FED0E0FDD0E0FC1203368014F404120E
:1000D2000403D0E0FFD0E0FED0E0FDD0E0FC12024D
:1000E2002DD0E0F8E6FAEDD2E7CD33EC332482FBF3
:1000F200E4C3CF33CFCE33CECD33CD33DBF37B0767
:1001020075F00A846004F6081B0AE5F0F6088FF021
:10011200740AA4FFACF08EF0740AA42CFEACF0506A
:10012200010C8DF0740AA42CFDE435F0F608DBDE38
:030132007407222D
:10013500020478E86480F8E933E83360110460F07C
:10014500ED33EC337009E8FCE9FDEAFEEBFF220430
:1001550060DED3EB9FEA9EE99DE8C2E78CF0C2F72B
:1001650095F0400CE8CCF8E9CDF9EACEFAEBCFFBF7
:1001750012044385D0F05804700320D5B3E8047009
:10018500075002B2D502048292D5EC0460F7E4CCA4
:10019500C0E0C398F8603B94186008400DD0E0FBC0
:1001A50002045AE4FBFAC9FC8028E830E406E4C9F5
:1001B500FBE4CAFCE830E305E4C9CACBFCE8540714
:1001C5006010F8C3E913F9EA13FAEB13FBEC13FC1F
:1001D500D8F130F52FC3E49CFCEF9BFFEE9AFEEDC2
:1001E50099FDD0E0FBEF4E4D4C701222DB0302046B
:1001F5007FEC2CFCEF33FFEE33FEED33FDED30E706
:10020500EB02045AEF2BFFEE3AFEED39FDD0E0FB91
:1002150050130BBB0003020482ED13FDEE13FEEF3A
:0802250013FFEC13FC02045A64
:10022D00EC4D6011E8497017ED33EC3304600DE4CB
:10023D00FCFFFEFD22E933E8330470F80204781266
:10024D00044358046009E4CC248150062850090267
:10025D00048228400302047FC0E0EB4A7044B98059
:10026D0006D0E0FB02046EEF4E701CBD8008EBFF64
:10027D00EAFEE9FD80EBE98DF0A4FEE5F002031640
:10028D00E9CDF9EAFEEBFFEF89F0A4FCE5F0CE89AC
:10029D00F0A42EFFE435F0CD89F0A42DFEE435F069
:1002AD008067EF4E7005BD80D780C3EF8BF0A4AC97
:1002BD00F0EE8BF0A42CFCE435F0F8EF8AF0A42CD2
:1002CD00E5F038FCE433CB8DF0A42CFCE5F03BF8E5
:1002DD00EE8AF0A42CFCE5F038F8E433CF89F0A4D5
:1002ED002CFCE5F038CF3400CE89F0A42FFFE5F0DB
:1002FD003EFEE433C98DF0A42EFEE5F039CD8AF033
:10030D00A42FFFE5F03EFEE43DFD33D0E0FB5007AA
:10031D000BBB000F020482EC2CFCEF33FFEE33FE1F
:06032D00ED33FD02045A4D
:10033300020482EC5D046005E8590470030204784A
:10034300120443580460F6EC4860F2EC7004FDFEBE
:10035300FF22C860DB2481C85009C398600250069D
:1003630002047F9850CAF582E9294B4A7005AB8293
:1003730002046E75F0007C1A7880C3EF9BEE9AED51
:1003830099400DC3EF9BFFEE9AFEED99FDE842F015
:10039300DC23ACF0D0E0FFD0E0FED0E0FDAB822068
:1003A300E7101BEB60BAEC2CFCEF33FFEE33FEEDF2
:1003B30033FD02045AE803F830E705C0F075F00096
:1003C300EF2FFFEE33FEED33FD40B830E7C280AAD6
:1003D3003F8000004120000042C80000447A000032
:1003E300461C400047C35000497424004B189680B4
:1003F3004CBEBC205A0E1BCA6753C21C749DC5AEAB
:10040300FB60065407601C2323120431EB5438604D
:100413000912041D12042C12022DECF8EDF9EEFA68
:10042300EFCB22EB12042C80F1543803241C9003ED
:10043300D3FE93FC0EEE93FD0EEE930ECE93FF22AE
:10044300E9D2E7C933E833F892D5EDD2E7CD33ECFF
:0704530033FC5002B2D52278
:10045A00EC30E7100FBF000C0EBE00080DBD000403
:10046A000BEB6014A2D5EB13FCED92E7FD2274FFAF
:10047A00FCFDFEFF22E480F8A2D574FF13FC7D8008
:03048A00E480EF1C
:10048D00E709F608DFFA8046E709F208DFFA803E51
:10049D0088828C83E709F0A3DFFA8032E309F6083E
:1004AD00DFFA8078E309F208DFFA807088828C83A6
:1004BD00E309F0A3DFFA806489828A83E0A3F6085A
:1004CD00DFFA805889828A83E0A3F208DFFA804C34
:1004DD0080D280FA80C680D4806980F2803380100B
:1004ED0080A680EA809A80A880DA80E280CA803374
:1004FD0089828A83ECFAE493A3C8C582C8CCC583EC
:10050D00CCF0A3C8C582C8CCC583CCDFE9DEE780BB
:10051D000D89828A83E493A3F608DFF9ECFAA9F03A
:10052D00EDFB2289828A83ECFAE0A3C8C582C8CC90
:10053D00C583CCF0A3C8C582C8CCC583CCDFEADEA9
:10054D00E880DB89828A83E493A3F208DFF980CC0B
:10055D0088F0EF60010E4E60C388F0ED2402B40404
:10056D000050B9F582EB2402B4040050AF232345AB
:06057D0082239004DD73EF
:10058300BB010689828A83E0225002E722BBFE0276
:09059300E32289828A83E49322A9
:10059C00BB010CE58229F582E5833AF583E0225014
:1005AC0006E92582F8E622BBFE06E92582F8E2225E
:0D05BC00E58229F582E5833AF583E4932278
:1005C900BB010689828A83F0225002F722BBFE0111
:0205D900F3220B
:1005DB00FAE6FB0808E6F925F0F618E6CA3AF62221
:1005EB00D083D082F8E4937012740193700DA3A39F
:1005FB0093F8740193F5828883E4737402936860B3
:06060B00EFA3A3A380DFB2
:00000001FF
