:03000000020BD917
:0C0BD900787FE4F6D8FD758168020C20DE
:100E2000C291C290E9139287E9C313139286E91322
:100E300013543F139285E9131313541F139284E93B
:100E4000C4540F139283E9C4135407139282E9C464
:100E500013135403139281E9C4131313540113920F
:070E600080D2907F057E00A7
:100E6700D3EF9400EE9400400F7DC77C01DCFEDDDC
:080E7700FAEF1F70EB1E80E88A
:010E7F002250
:1009C500E4FBC294D291D2907F01FE120E67A286FB
:1009D500E43325E0FFE433FEA287E433FDEEFCEFCC
:1009E5004DFDA285E4FE337802C333CE33CED8F96C
:1009F500FFEE4CFCEF4DFDA284E4FE337803C333D8
:100A0500CE33CED8F9FFEE4CFCEF4DFDA283E43397
:100A1500C4F8540FC868FFE4C454F0484CFCEF4DCB
:100A2500FDA282E4FE337805C333CE33CED8F9FF79
:100A3500EE4CFCEF4DFDA281E4FE337806C333CEC8
:100A450033CED8F9FFEE4CFCEF4DFDA280E4FE332A
:100A55007807C333CE33CED8F9FFEE4CEF4D30E7F0
:100A65000F0BEBD3946450030209D3C2907F00228D
:040A7500C2907F01AB
:010A7900225A
:02000300A9074B
:10000500E4FA1209C5EF700E7F01FE120E670AEAC7
:0D001500D3946440ED22C294120E20C290DC
:0100220022BB
:02117F00A907BE
:10118100E4FA1209C5EF700E7F01FE120E670AEA3A
:0D119100D3946440ED22D294120E20C2903F
:01119E00222E
:1012A200D2A6D2A77F301200037F0C1200037F0167
:0312B20002000334
:02111900AE071F
:10111B00EE70047E808013BE01047E90800CBE02B4
:10112B00047E888005BE03027E98EE2DFF0200032D
:1010F6008B418A428943AB41AA42A943120499FF14
:10110600601012117F74012543F543E43542F54220
:0211160080E473
:0111180022B4
:051312008E668F6722CA
:091302008F1E8E1D8D1C8C1B2218
:100A7A00D6F7BBFACEC2B6C83A00A1E600B4D3BBD9
:100A8A00FACEC2B6C83A00C8D5C6DA3A0000CAB128
:100A9A00BCE43A003A00A1D4A1D4D6F7B2CBB5A5AA
:100AAA00A1D4A1D400312EBCD2B5E700322EC9E8B8
:100ABA00D6C300332EC6E4CBFB00A1D4A1D4BCD24A
:100ACA00B5E7A1D4A1D40045313A4F464600453294
:100ADA003A4F46460045333A4F46460045343A4F68
:100AEA0046460045313A4F4E200045323A4F4E2095
:100AFA000045333A4F4E200045343A4F4E200065A8
:100B0A006F72720D0A00C9E8D6C300C6E4CBFB00B7
:100B1A006162636400000000000000001122334497
:010B2A005575
:030FD200011F00FC
:100744007F01120003E4FDFF1211197BFF7A0A797D
:100754007A1210F67D07E4FF1211197BFF7A0A79E9
:10076400841210F6E4FD7F011211197BFF7A0A79D5
:10077400871210F67D077F011211197BFF7A0A791F
:10078400841210F6E4FD7F021211197BFF7A0A79B4
:10079400911210F67D037F021211197BFF7A0A79F8
:1007A400971210F6E4FD7F031211197BFF7A0A7980
:1007B400981210F67D037F031211197BFF7A0A79D0
:0407C400971210F682
:1007C80078337C007D007BFF7A0B791F7E007F07E2
:1007D800120473120B2B8F3AE4F53BF53FF53EF507
:1007E8003DF53CF540E53AB40104751F01227D054D
:1007F800E4FF121119E53B75F00A844430FF121129
:100808007FE53B75F00A84E5F04430FF12117F75EF
:1008180044007545007546407B007A00793C120E0D
:1008280080EF6033AF3FAE3EAD3DAC3C1203228F4C
:100838003B7D057F01121119E53B75F00A844430B0
:10084800FF12117FE53B75F00A84E5F04430FF1292
:10085800117F7F611212FAAF521212FA7B007A00EE
:10086800793312115D7D037F03121119E53575F097
:100878000A844430FF12117FE53575F00A84E5F0EB
:100888004430FF12117F7BFF7A0A799E1210F6E539
:100898003475F00A844430FF12117FE53475F00A8C
:1008A80084E5F04430FF12117F7BFF7A0A799E12AB
:1008B80010F6E53375F00A844430FF12117FE533F2
:0C08C80075F00A84E5F04430FF12117F47
:0308D4000207C850
:1008D7007F01120003051FE4FDFF1211197BFF7A48
:1008E7000A79A01210F6E4FD7F011211197BFF7A35
:1008F7000A79AF1210F6E4FD7F021211197BFF7A15
:100907000A79B61210F6E4FD7F031211197BFF7AFC
:060917000A79BD1210F682
:10091D00120B2B8F33E533B4020D051FE51F640554
:10092D007025751F028020E533B4030C151FE51FDC
:10093D00B40114751F04800FE533B40404E4F51FEE
:10094D0022E53364016070E51F24FD6025146040CD
:10095D00240270BC7D037F031211197F2012117FB9
:10096D007D037F021211197F2012117F7D037F01FC
:10097D00803A7D037F011211197F2012117F7D03B3
:10098D007F031211197F2012117F7D037F02801CBE
:10099D007D037F011211197F2012117F7D037F02CC
:1009AD001211197F2012117F7D037F031211197F00
:0709BD001112117F02091D58
:0109C4002210
:10058700E4F533F5347F011200037D01E4FF121116
:10059700197BFF7A0A79C41210F6E4FD7F01121164
:1005A700197BFF7A0A79D11210F6E4FD7F02121146
:1005B700197BFF7A0A79D81210F67D047F01121190
:1005C700197BFF7A0A79DF1210F67D047F02121178
:0A05D700197BFF7A0A79E61210F68C
:1005E100E4F538F537753620753541120B2B8F3907
:1005F1007544007545007546347B007A00793512E3
:100601000E80EF7003020693E53430E00FE4FD7FC6
:10061100011211197BFF7A0A79ED800DE4FD7F014A
:100621001211197BFF7A0A79D11210F6E53430E103
:100631000FE4FD7F021211197BFF7A0A79F4800D14
:10064100E4FD7F021211197BFF7A0A79D81210F6A4
:10065100E5347D047F0130E20B1211197BFF7A0A28
:1006610079FB80091211197BFF7A0A79DF1210F6E2
:10067100E5347D047F0230E30B1211197BFF7A0B05
:10068100790280091211197BFF7A0A79E61210F6B4
:1006910080097BFF7A0B790912119FE539B40404B3
:1006A100751F0122E5396402706A0533E533B4052B
:1006B10003753301E53324FE601D14602A1460398B
:1006C100240360030205E17D077F021211197F20D7
:1006D10012117F7D03801E7D037F011211197F207E
:1006E10012117F7D0380207D037F021211197F206B
:1006F10012117F7D077F0180107D077F0112111983
:100701007F2012117F7D077F021211197F111211B3
:100711007F0205E1E539640160030205E1E5331477
:1007210060030205E1E53430E0055334FE80034304
:10073100340185343E7F007E007D007C00120D5E19
:030741000205E1CD
:05113B007F011200031A
:10114000120B2B8F33E4FDFF1211197BFF7A0B7901
:0C115000101210F6E533B404E7751F011F
:01115C002270
:0510D2007F0112000384
:1010D700120B2B8F33E533B40404751F0122E4FD93
:0D10E700FF1211197BFF7A0B79151210F61C
:0210F40080E199
:0F0CF0001212191212E51212A21210AB12108377
:100CFF007521FF75220B75231A78247C007D007BEC
:100D0F00FF7A0B79267E007F05120473E4F52CF52C
:100D1F002B752A94752941F530F52FF52EF52D7584
:100D2F003101F532E51F14601214601414601614AB
:100D3F006018240470BA12074480B51208D780B027
:0F0D4F0012058780AB12113B80A61210D280A133
:040026007F057E00D4
:10002A00EF1FAA0670011E4A600BE4FDEDC3940C93
:05003A0050EE0D80F7FF
:01003F00229E
:0211DD00A90760
:1011DF00E4FBC2B7E91392B7120026D2B7E9C313E3
:0C11EF00F90BBB08ED7F057E0002002A12
:10125500E4FBC2B7ECC313FCD2B730B70343048039
:091265001200260BBB08EBAF04DC
:01126E00225D
:1010AB00C200D2B77F0C7E0012002AC2B77F507EDF
:1010BB000012002AD2B77F0A7E0012002AA2B79232
:0610CB0000120026A20045
:0110D10022FC
:100F2800E4F9FFFE1210AB7FCC1211DD7F441211E1
:100F3800DD7FC87E0012002A1210AB7FCC1211DDB3
:100F48007FBE1211DD121255A907121255EFC454B3
:0A0F5800F0FEE9C4540F4206AF0694
:010F6200226C
:07130B005533102704031500
:0612D6001212DC1212DC12
:0912DC00000000000000000022E7
:10128900E4FEC2A3EF1392A41212DCEFC313FFD240
:08129900A31212DC0EBE08EAEC
:0112A100222A
:1011FB00E4FFFEC2A3EEC313FE1212DC30A40343C2
:0D120B000680D2A31212DC0FBF08E8AF0668
:0112180022B3
:10126F00C2A500C2A31212DCD2A5121289AF0512B9
:0A127F001289C2A51212D60212DC79
:06102F00ED25E02481FF25
:10103500E4FEC2A50000C2A31212DCD2A500001274
:1010450012891211FBAE07C2A50000D2A31212D657
:031055001212DC98
:011058002275
:041002008E338F3466
:10100600E4FCFD7F8E12126FEC25E02480FFE534B0
:101016002CF582E43533F583E493FD12126F0CBC94
:0910260007E67D807F8E02126F47
:06115D008B418A42894328
:10116300E4FD12102FAB41AA42A9438D827583007F
:0B117300EF1204C412102F0DBD07E79F
:01117E00224E
:10108300E4FCC2A5C2A3FD7F8E12126F7DA67F90E2
:1010930012126F7D807F8E12126F7F51121035AC4A
:0810A300077E137F0B0210020F
:0C0FD500015900015A00015B00015C01A1
:100B2B00E4D2B3D2B4D2B5D2B6A2B633F9A2B5E4FD
:100B3B0033FFA2B4E433FEA2B3E433FDEE25E0258C
:100B4B00E0FEED33333354F84EFEEF25E04E49FF14
:100B5B00640F600DE55A7009E55CB401040559801A
:100B6B0003E4F559E559640A702EAC07F559E55CB9
:100B7B0064017024F55C755A01EC24F9601424FCB3
:100B8B00600D24FE600614700C7F01227F02227F11
:100B9B0003227F04227F0022EF540FFEBE0F09E5D4
:100BAB005AB40104055B800DE55AB40108EE640FDD
:100BBB006003E4F55BE55BB40A11E4F55BE55AB45D
:0D0BCB000109BE0F06755C01E4F55A7F00BC
:010BD80022FA
:051317000000000000D1
:100FE10005530000000000015800015200015100AA
:03002300020EDDED
:0B0EDD00C0E0C0D075D000C000C0070E
:100EE800309834C298AF99E55220E72B20E612BF1C
:100EF800AA0A4352407553AA0552801B5352BF8019
:100F080016E552540F2453F8A6070552E552540F1C
:070F1800FFBF0503435280F7
:090F1F00D007D000D0D0D0E032A0
:0612F40014F9120499FF39
:0812FA008F993099FDC2992281
:101059008B448A458946AF051DEF601DAB440546A3
:10106900E546AA45700205451212F4000000000089
:0A1079000000000000000080DD22EE
:10119F008B3A8A3B893CAB3AAA3BA93C1204996033
:0F11AF000D053CE53C7002053B1212F480E8226E
:10121900759850758920758840438E40758BB875CF
:0E1229008DB8758780C298C299D2ACD2AF2220
:080D5E008F3D8E3C8D3B8C3A69
:100D6600783F7C007D007BFF7A1379177E007F0534
:100D7600120473753FAAAF3DAE3CAD3BAC3A1203CD
:100D8600228F40E4FFFE7D207C41AB3DAA3CA93B7F
:100D9600A83A12013E1203227C007D0A1204E68D57
:100DA60041853E42E53F254025412542F5437B00EE
:090DB6007A00793F7D0502105915
:060E80008B418A42894308
:100E8600E55230E74FE553255425552556FF65575E
:100E96007042AC551202EEE4FBFA79207841120258
:100EA60047C004C005C006C007AC54E41202EED029
:100EB60003D002D001D00012004DAB41AA42A94393
:100EC600120549AB44AA45A946E5561204B2E4F513
:060ED600527F01227F00A3
:010EDC0022F3
:1012C6006162630D0A0000000000000000000000DB
:100FF1004A0000000000000000000000000168003D
:03004300020F9B0E
:100F9B00C0E0C083C082C0D075D008E59A30E01E97
:100FAB00539AFEAF68056874002FF582E43400F5A0
:100FBB0083E59BF0E568C3940A4003756800D0D0C5
:070FCB00D082D083D0E03298
:0612B50014F9120499FF78
:0B12BB008F9BE59A30E1FB539AFD2267
:101237008B5D8A5E895FAF051DEF6011AB5D055F52
:0E124700E55FAA5E7002055E1212B580E92214
:060F63008B608A618962C7
:100F6900E4FFE568C39D4027EFC39D501C74002F23
:100F7900F582E43400F583E0AB60AA61A9628F824F
:100F89007583001204C40F80DFE4F5687F01227FB6
:010F99000057
:010F9A002234
:0F12E500759A50759CFD438E1475AF01D2AF22E0
:080DBF008F4A8E498D488C47D4
:100DC700784C7C007D007BFF7A1279CC7E007F0512
:100DD700120473754CAAAF4AAE49AD48AC4712032B
:100DE700228F4DE4FFFE7D207C41AB4AAA49A948EA
:100DF700A84712013E1203227C007D0A1204E68DE9
:100E07004E854B4FE54C254D254E254FF5507B0024
:090E17007A00794C7D05021237C6
:1011BE008B638A648965AB63AA64A965120499601E
:0F11CE000D0565E565700205641212B580E82213
:060C65008B108A118912B8
:100C6B0078167C007D007BFF7A1279D17E007F05A0
:100C7B001204737B007A0079167D05120F63EF6007
:100C8B0061E51664AA7058E5162517251825196510
:100C9B001A70497BFF7A1279C61211BEAC18E41296
:100CAB0002EEE4FBFA79207841120247C004C0053A
:100CBB00C006C007AC17E41202EED003D002D0017D
:100CCB00D00012004DAB10AA11A912120549AB139B
:100CDB00AA14A915E5191204B27F01227F00227F05
:040CEB0000227F0064
:010CEF0022E2
:1000460002038EE86480F8E933E83360110460F057
:10005600ED33EC337009E8FCE9FDEAFEEBFF220420
:1000660060DED3EB9FEA9EE99DE8C2E78CF0C2F71B
:1000760095F0400CE8CCF8E9CDF9EACEFAEBCFFBE7
:1000860012035985D0F05804700320D5B3E80470E4
:10009600075002B2D502039892D5EC0460F7E4CC7F
:1000A600C0E0C398F8603B94186008400DD0E0FBB0
:1000B600020370E4FBFAC9FC8028E830E406E4C9D0
:1000C600FBE4CAFCE830E305E4C9CACBFCE8540704
:1000D6006010F8C3E913F9EA13FAEB13FBEC13FC0F
:1000E600D8F130F52FC3E49CFCEF9BFFEE9AFEEDB2
:1000F60099FDD0E0FBEF4E4D4C701222DB0302035C
:1001060095EC2CFCEF33FFEE33FEED33FDED30E7DF
:10011600EB020370EF2BFFEE3AFEED39FDD0E0FB6C
:1001260050130BBB0003020398ED13FDEE13FEEF15
:0801360013FFEC13FC0203703F
:10013E00EC4D6011E8497017ED33EC3304600DE4BB
:10014E00FCFFFEFD22E933E8330470F802038E1241
:10015E00035958046009E4CC248150062850090242
:10016E000398284003020395C0E0EB4A7044B9801F
:10017E0006D0E0FB020384EF4E701CBD8008EBFF3F
:10018E00EAFEE9FD80EBE98DF0A4FEE5F002022720
:10019E00E9CDF9EAFEEBFFEF89F0A4FCE5F0CE899C
:1001AE00F0A42EFFE435F0CD89F0A42DFEE435F059
:1001BE008067EF4E7005BD80D780C3EF8BF0A4AC87
:1001CE00F0EE8BF0A42CFCE435F0F8EF8AF0A42CC2
:1001DE00E5F038FCE433CB8DF0A42CFCE5F03BF8D5
:1001EE00EE8AF0A42CFCE5F038F8E433CF89F0A4C5
:1001FE002CFCE5F038CF3400CE89F0A42FFFE5F0CB
:10020E003EFEE433C98DF0A42EFEE5F039CD8AF022
:10021E00A42FFFE5F03EFEE43DFD33D0E0FB50079A
:10022E000BBB000F020398EC2CFCEF33FFEE33FEFA
:06023E00ED33FD02037028
:10024400020398EC5D046005E85904700302038E10
:10025400120359580460F6EC4860F2EC7004FDFE99
:10026400FF22C860DB2481C85009C398600250068D
:100274000203959850CAF582E9294B4A7005AB826E
:1002840002038475F0007C1A7880C3EF9BEE9AED2C
:1002940099400DC3EF9BFFEE9AFEED99FDE842F005
:1002A400DC23ACF0D0E0FFD0E0FED0E0FDAB822058
:1002B400E7101BEB60BAEC2CFCEF33FFEE33FEEDE2
:1002C40033FD020370E803F830E705C0F075F00071
:1002D400EF2FFFEE33FEED33FD40B830E7C280AAC6
:1002E40075F020800E75F010800575F0087D007E95
:1002F400007F003392D530D50312053BEC33401018
:10030400EF33FFEE33FEED33FDEC33FCD5F0ED229D
:0E031400E5F0247EA2D513CC92E7CDCEFF22D9
:10032200EDD2E7CD33EC3392D524814006E4FFFED3
:10033200FDFC22FCE4CFCECDCC24E0501174FF8032
:10034200EDC3CC13CCCD13CDCE13CECF13CF0470CF
:07035200F030D5DE02053B8F
:10035900E9D2E7C933E833F892D5EDD2E7CD33ECEA
:0703690033FC5002B2D52263
:10037000EC30E7100FBF000C0EBE00080DBD0004EE
:100380000BEB6014A2D5EB13FCED92E7FD2274FF9A
:10039000FCFDFEFF22E480F8A2D574FF13FC7D80F3
:0303A000E480EF07
:100BE500020CF0E493A3F8E493A34003F68001F22A
:100BF50008DFF48029E493A3F85407240CC8C33311
:100C0500C4540F4420C8834004F456800146F6DFDF
:100C1500E4800B0102040810204080900FD2E47E8E
:100C2500019360BCA3FF543F30E509541FFEE493D4
:100C3500A360010ECF54C025E060A840B8E493A39B
:100C4500FAE493A3F8E493A3C8C582C8CAC583CAC6
:100C5500F0A3C8C582C8CAC583CADFE9DEE780BE7E
:0110010000EE
:1003A300E709F608DFFA8046E709F208DFFA803E3C
:1003B30088828C83E709F0A3DFFA8032E309F60829
:1003C300DFFA8078E309F208DFFA807088828C8391
:1003D300E309F0A3DFFA806489828A83E0A3F60845
:1003E300DFFA805889828A83E0A3F208DFFA804C1F
:1003F30080D280FA80C680D4806980F280338010F6
:1004030080A680EA809A80A880DA80E280CA80335E
:1004130089828A83ECFAE493A3C8C582C8CCC583D6
:10042300CCF0A3C8C582C8CCC583CCDFE9DEE780A6
:100433000D89828A83E493A3F608DFF9ECFAA9F025
:10044300EDFB2289828A83ECFAE0A3C8C582C8CC7B
:10045300C583CCF0A3C8C582C8CCC583CCDFEADE94
:10046300E880DB89828A83E493A3F208DFF980CCF6
:1004730088F0EF60010E4E60C388F0ED2402B404EF
:100483000050B9F582EB2402B4040050AF23234596
:0604930082239003F373C5
:10049900BB010689828A83E0225002E722BBFE0261
:0904A900E32289828A83E4932294
:1004B200BB010689828A83F0225002F722BBFE0129
:0204C200F32223
:1004C400F8BB010DE58229F582E5833AF583E8F06E
:1004D400225006E92582C8F622BBFE05E92582C81A
:0204E400F22202
:1004E600BC000BBE0029EF8DF084FFADF022E4CCFA
:1004F600F875F008EF2FFFEE33FEEC33FCEE9DECC3
:10050600984005FCEE9DFE0FD5F0E9E4CEFD22ED08
:10051600F8F5F0EE8420D21CFEADF075F008EF2F52
:10052600FFED33FD4007985006D5F0F222C398FD43
:050536000FD5F0EA22E0
:0E053B00C3E49FFFE49EFEE49DFDE49CFC22D1
:10054900BB010789828A8302056F5005E9F8020514
:0A05590063BBFE05E9F802057B22F2
:0C056300ECF608EDF608EEF608EFF622C4
:0C056F00ECF0A3EDF0A3EEF0A3EFF022FF
:0C057B00ECF208EDF208EEF208EFF222BC
:00000001FF
