:03000000020BCE22
:0C0BCE00787FE4F6D8FD75816B020C15F1
:100E7800C291C290E9139287E9C313139286E913CA
:100E880013543F139285E9131313541F139284E9E3
:100E9800C4540F139283E9C4135407139282E9C40C
:100EA80013135403139281E9C413131354011392B7
:070EB80080D2907F057E004F
:100EBF00D3EF9400EE9400400F7DC77C01DCFEDD84
:080ECF00FAEF1F70EB1E80E832
:010ED70022F8
:1009C100E4FBC294D291D2907F01FE120EBFA286A7
:1009D100E43325E0FFE433FEA287E433FDEEFCEFD0
:1009E1004DFDA285E4FE337802C333CE33CED8F970
:1009F100FFEE4CFCEF4DFDA284E4FE337803C333DC
:100A0100CE33CED8F9FFEE4CFCEF4DFDA283E4339B
:100A1100C4F8540FC868FFE4C454F0484CFCEF4DCF
:100A2100FDA282E4FE337805C333CE33CED8F9FF7D
:100A3100EE4CFCEF4DFDA281E4FE337806C333CECC
:100A410033CED8F9FFEE4CFCEF4DFDA280E4FE332E
:100A51007807C333CE33CED8F9FFEE4CEF4D30E7F4
:100A61000F0BEBD3946450030209CFC2907F002295
:040A7100C2907F01AF
:010A7500225E
:02000300A9074B
:10000500E4FA1209C1EF700E7F01FE120EBF0AEA73
:0D001500D3946440ED22C294120E78C29084
:0100220022BB
:02117A00A907C3
:10117C00E4FA1209C1EF700E7F01FE120EBF0AEAEB
:0D118C00D3946440ED22D294120E78C290EC
:011199002233
:10129D00D2A6D2A77F301200037F0C1200037F016C
:0312AD0002000339
:02111400AE0724
:10111600EE70047E808013BE01047E90800CBE02B9
:10112600047E888005BE03027E98EE2DFF02000332
:1010F1008B418A428943AB41AA42A943120499FF19
:10110100601012117A74012543F543E43542F5422A
:0211110080E478
:0111130022B9
:05130D008E698F6A22C9
:0912FD008F1E8E1D8D1C8C1B221E
:100B2400D6F7BBFACEC2B6C83A00A1E600B4D3BB2E
:100B3400FACEC2B6C83A00C8D5C6DA3A0000CAB17D
:100B4400BCE43A003A00A1D4A1D4D6F7B2CBB5A5FF
:100B5400A1D4A1D400312EBCD2B5E700322EC9E80D
:100B6400D6C300332EC6E4CBFB00A1D4A1D4BCD29F
:100B7400B5E7A1D4A1D40045313A4F4646004532E9
:100B84003A4F46460045333A4F46460045343A4FBD
:100B940046460045313A4F4E200045323A4F4E20EA
:100BA4000045333A4F4E200045343A4F4E2000C999
:100BB400E8D6C300C6E4CBFB0061626364000000B6
:0A0BC4000000000000112233445528
:030FCD00011F0001
:10073B007F01120003E4FDFF1211147BFF7A0B798A
:10074B00241210F17D07E4FF1211147BFF7A0B7951
:10075B002E1210F1E4FD7F011211147BFF7A0B793D
:10076B00311210F17D077F011211147BFF7A0B7987
:10077B002E1210F1E4FD7F021211147BFF7A0B791C
:10078B003B1210F17D037F021211147BFF7A0B7960
:10079B00411210F1E4FD7F031211147BFF7A0B79E8
:1007AB00421210F17D037F031211147BFF7A0B7938
:0407BB00411210F1E6
:1007BF0078337C007D007BFF7A0B79C27E007F0748
:1007CF00120473120A768F3A120F238F3BE4F53F10
:1007DF00F53EF53DF53CF540E53AB40104751F01D2
:1007EF00227D05E4FF121114E53B75F00A844430B5
:1007FF00FF12117AE53B75F00A84E5F04430FF12E1
:10080F00117A7544007545007546407B007A007972
:10081F003C120D53EF64017033AF3FAE3EAD3DACB4
:10082F003C1203228F3B7D057F01121114E53B75AE
:10083F00F00A844430FF12117AE53B75F00A84E523
:10084F00F04430FF12117A7F611212F5AF5212127B
:10085F00F57B007A0079331211587D037F03121153
:10086F0014E53575F00A844430FF12117AE53575B9
:10087F00F00A84E5F04430FF12117A7BFF7A0B798E
:10088F00481210F1E53475F00A844430FF12117AE2
:10089F00E53475F00A84E5F04430FF12117A7BFFDE
:1008AF007A0B79481210F1E53375F00A844430FF62
:1008BF0012117AE53375F00A84E5F04430FF121116
:0108CF007AAE
:0308D0000207BF5D
:1008D3007F01120003051FE4FDFF1211147BFF7A51
:1008E3000B794A1210F1E4FD7F011211147BFF7A98
:1008F3000B79591210F1E4FD7F021211147BFF7A78
:100903000B79601210F1E4FD7F031211147BFF7A5F
:060913000B79671210F1E0
:10091900120A768F33E533B4020D051FE51F64050E
:100929007025751F028020E533B4030C151FE51FE0
:10093900B40114751F04800FE533B40404E4F51FF2
:1009490022E53364016070E51F24FD6025146040D1
:10095900240270BC7D037F031211147F2012117AC7
:100969007D037F021211147F2012117A7D037F010A
:10097900803A7D037F011211147F2012117A7D03C1
:100989007F031211147F2012117A7D037F02801CCC
:100999007D037F011211147F2012117A7D037F02DA
:1009A9001211147F2012117A7D037F031211147F13
:0709B9001112117A02091965
:0109C0002214
:10058700E4F533F5347F011200037D01E4FF121116
:10059700147BFF7A0B796E1210F1E4FD7F011211C3
:1005A700147BFF7A0B797B1210F1E4FD7F021211A5
:1005B700147BFF7A0B79821210F17D047F011211EF
:1005C700147BFF7A0B79891210F17D047F021211D7
:0A05D700147BFF7A0B79901210F1EB
:1005E100E4F538F537753620753541120A768F39BD
:1005F1007544007545007546347B007A00793512E3
:100601000D53EF64016003020693E53430E00FE41B
:10061100FD7F011211147BFF7A0B7997800DE4FDA8
:100621007F011211147BFF7A0B797B1210F1E534F3
:1006310030E10FE4FD7F021211147BFF7A0B799EEA
:10064100800DE4FD7F021211147BFF7A0B79821277
:1006510010F1E5347D047F0130E20B1211147BFFB0
:100661007A0B79A580091211147BFF7A0B79891213
:1006710010F1E5347D047F0230E30B1211147BFF8E
:100681007A0B79AC80091211147BFF7A0B799012E5
:1006910010F1E539B40404751F0122E539640270D3
:1006A1006A0533E533B40503753301E53324FE6090
:1006B1001D14602A146039240360030205E17D07DB
:1006C1007F021211147F2012117A7D03801E7D0397
:1006D1007F011211147F2012117A7D0380207D0386
:1006E1007F021211147F2012117A7D077F01801081
:1006F1007D077F011211147F2012117A7D077F027D
:100701001211147F1112117A0205E1E539640160B9
:10071100030205E1E5331460030205E1E53430E04D
:10072100055334FE800343340185343E7F007E004F
:0A0731007D007C00120DB60205E108
:051136007F011200031F
:10113B00120A768F33E4FDFF1211147BFF7A0B79C1
:0C114B00B31210F1E533B404E7751F0186
:011157002275
:0510CD007F0112000389
:1010D200120A768F33E533B40404751F0122E4FD4E
:0D10E200FF1211147BFF7A0B79B81210F188
:0210EF0080E19E
:0F0CE5001212141212E012129D1210A612107E9B
:100CF4007521FF75220B7523BD78247C007D007B54
:100D0400FF7A0B79C97E007F05120473E4F52CF594
:100D14002B752A94752941F530F52FF52EF52D758F
:100D24003101F532E51F14601214601414601614B6
:100D34006018240470BA12073B80B51208D380B03F
:0F0D440012058780AB12113680A61210CD80A148
:040026007F057E00D4
:10002A00EF1FAA0670011E4A600BE4FDEDC3940C93
:05003A0050EE0D80F7FF
:01003F00229E
:0211D800A90765
:1011DA00E4FBC2B7E91392B7120026D2B7E9C313E8
:0C11EA00F90BBB08ED7F057E0002002A17
:10125000E4FBC2B7ECC313FCD2B730B7034304803E
:091260001200260BBB08EBAF04E1
:011269002262
:1010A600C200D2B77F0C7E0012002AC2B77F507EE4
:1010B6000012002AD2B77F0A7E0012002AA2B79237
:0610C60000120026A2004A
:0110CC002201
:100F2300E4F9FFFE1210A67FCC1211D87F441211F0
:100F3300D87FC87E0012002A1210A67FCC1211D8C7
:100F43007FBE1211D8121250A907121250EFC454C7
:0A0F5300F0FEE9C4540F4206AF0699
:010F5D002271
:071306005533102704031505
:0612D1001212D71212D721
:0912D700000000000000000022EC
:10128400E4FEC2A3EF1392A41212D7EFC313FFD24A
:08129400A31212D70EBE08EAF6
:01129C00222F
:1011F600E4FFFEC2A3EEC313FE1212D730A40343CC
:0D1206000680D2A31212D70FBF08E8AF0672
:0112130022B8
:10126A00C2A500C2A31212D7D2A5121284AF0512C8
:0A127A001284C2A51212D10212D78D
:06102A00ED25E02481FF2A
:10103000E4FEC2A50000C2A31212D7D2A50000127E
:1010400012841211F6AE07C2A50000D2A31212D16B
:031050001212D7A2
:01105300227A
:040FFD008E338F346C
:10100100E4FCFD7F8E12126AEC25E02480FFE534BA
:101011002CF582E43533F583E493FD12126A0CBC9E
:0910210007E67D807F8E02126A51
:061158008B418A4289432D
:10115E00E4FD12102AAB41AA42A9438D8275830089
:0B116E00EF1204C412102A0DBD07E7A9
:011179002253
:10107E00E4FCC2A5C2A3FD7F8E12126A7DA67F90EC
:10108E0012126A7D807F8E12126A7F51121030AC5E
:08109E00077E137F06020FFD1F
:0C0FD000015900015A00015B00015C01A6
:100A7600E4D2B3D2B4D2B5D2B6A2B633F9A2B5E4B3
:100A860033FFA2B4E433FEA2B3E433FDEE25E02542
:100A9600E0FEED33333354F84EFEEF25E04E49FFCA
:100AA600640F600DE55A7009E55CB40104055980D0
:100AB60003E4F559E559640A702EAC07F559E55C6F
:100AC60064017024F55C755A01EC24F9601424FC69
:100AD600600D24FE600614700C7F01227F02227FC7
:100AE60003227F04227F0022EF540FFEBE0F09E58A
:100AF6005AB40104055B800DE55AB40108EE640F93
:100B06006003E4F55BE55BB40A11E4F55BE55AB412
:0D0B16000109BE0F06755C01E4F55A7F0071
:010B230022AF
:051312000000000000D6
:100FDC0005530000000000015800015200015100AF
:03002300020ED8F2
:0B0ED800C0E0C0D075D000C000C00713
:100EE300309834C298AF99E55220E72B20E612BF21
:100EF300AA0A4352407553AA0552801B5352BF801E
:100F030016E552540F2453F8A6070552E552540F21
:070F1300FFBF0503435280FC
:090F1A00D007D000D0D0D0E032A5
:0612EF0014F9120499FF3E
:0812F5008F993099FDC2992286
:101054008B448A458946AF051DEF601DAB440546A8
:10106400E546AA45700205451212EF000000000093
:0A1074000000000000000080DD22F3
:10119A008B5D8A5E895FAB5DAA5EA95F1204996066
:0F11AA000D055FE55F7002055E1212EF80E8220F
:10121400759850758920758840438E40758BB875D4
:0E1224008DB8758780C298C299D2ACD2AF2225
:080DB6008F3D8E3C8D3B8C3A11
:100DBE00783F7C007D007BFF7A1379127E007F05E1
:100DCE00120473753FAAAF3DAE3CAD3BAC3A120375
:100DDE00228F40E4FFFE7D207C41AB3DAA3CA93B27
:100DEE00A83A12013E1203227C007D0A1204E68DFF
:100DFE0041853E42E53F254025412542F5437B0096
:090E0E007A00793F7D05021054C1
:060D53008B418A42894336
:100D5900E55230E755E553255425552556FF655786
:100D69007042AC551202EEE4FBFA79207841120286
:100D790047C004C005C006C007AC54E41202EED057
:100D890003D002D001D00012004DAB41AA42A943C1
:100D9900120549AB44AA45A946E5561204B2E4F541
:0C0DA900527F0122E4F5527FFF227F0000
:010DB500221B
:1012C1006162630D0A0000000000000000000000E0
:100FEC004A000000000000000000000000016B003F
:03004300020F9613
:100F9600C0E0C083C082C0D075D008E59A30E01E9C
:100FA600539AFEAF6B056B74002FF582E43400F59F
:100FB60083E59BF0E56BC3940A4003756B00D0D0C4
:070FC600D082D083D0E0329D
:0612B00014F9120499FF7D
:0B12B6008F9BE59A30E1FB539AFD226C
:101232008B608A618962AF051DEF6011AB60056248
:0E124200E562AA61700205611212B080E92215
:060F5E008B638A648965C3
:100F6400E4FFE56BC39D4027EFC39D501C74002F25
:100F7400F582E43400F583E0AB63AA64A9658F824B
:100F84007583001204C40F80DFE4F56B7F01227FB8
:010F9400005C
:010F95002239
:0F12E000759A50759CFD438E1475AF01D2AF22E5
:080E17008F4A8E498D488C477B
:100E1F00784C7C007D007BFF7A1279C77E007F05BE
:100E2F00120473754CAAAF4AAE49AD48AC471203D2
:100E3F00228F4DE4FFFE7D207C41AB4AAA49A94891
:100E4F00A84712013E1203227C007D0A1204E68D90
:100E5F004E854B4FE54C254D254E254FF5507B00CC
:090E6F007A00794C7D0502123273
:1011B9008B668A678968AB66AA67A9681204996011
:0F11C9000D0568E568700205671212B080E82214
:060C5A008B108A118912C3
:100C600078167C007D007BFF7A1279CC7E007F05B0
:100C70001204737B007A0079167D05120F5EEF6017
:100C800061E51664AA7058E516251725182519651B
:100C90001A70497BFF7A1279C11211B9AC18E412AB
:100CA00002EEE4FBFA79207841120247C004C00545
:100CB000C006C007AC17E41202EED003D002D00188
:100CC000D00012004DAB10AA11A912120549AB13A6
:100CD000AA14A915E5191204B27F01227F00227F10
:040CE00000227F006F
:010CE40022ED
:1000460002038EE86480F8E933E83360110460F057
:10005600ED33EC337009E8FCE9FDEAFEEBFF220420
:1000660060DED3EB9FEA9EE99DE8C2E78CF0C2F71B
:1000760095F0400CE8CCF8E9CDF9EACEFAEBCFFBE7
:1000860012035985D0F05804700320D5B3E80470E4
:10009600075002B2D502039892D5EC0460F7E4CC7F
:1000A600C0E0C398F8603B94186008400DD0E0FBB0
:1000B600020370E4FBFAC9FC8028E830E406E4C9D0
:1000C600FBE4CAFCE830E305E4C9CACBFCE8540704
:1000D6006010F8C3E913F9EA13FAEB13FBEC13FC0F
:1000E600D8F130F52FC3E49CFCEF9BFFEE9AFEEDB2
:1000F60099FDD0E0FBEF4E4D4C701222DB0302035C
:1001060095EC2CFCEF33FFEE33FEED33FDED30E7DF
:10011600EB020370EF2BFFEE3AFEED39FDD0E0FB6C
:1001260050130BBB0003020398ED13FDEE13FEEF15
:0801360013FFEC13FC0203703F
:10013E00EC4D6011E8497017ED33EC3304600DE4BB
:10014E00FCFFFEFD22E933E8330470F802038E1241
:10015E00035958046009E4CC248150062850090242
:10016E000398284003020395C0E0EB4A7044B9801F
:10017E0006D0E0FB020384EF4E701CBD8008EBFF3F
:10018E00EAFEE9FD80EBE98DF0A4FEE5F002022720
:10019E00E9CDF9EAFEEBFFEF89F0A4FCE5F0CE899C
:1001AE00F0A42EFFE435F0CD89F0A42DFEE435F059
:1001BE008067EF4E7005BD80D780C3EF8BF0A4AC87
:1001CE00F0EE8BF0A42CFCE435F0F8EF8AF0A42CC2
:1001DE00E5F038FCE433CB8DF0A42CFCE5F03BF8D5
:1001EE00EE8AF0A42CFCE5F038F8E433CF89F0A4C5
:1001FE002CFCE5F038CF3400CE89F0A42FFFE5F0CB
:10020E003EFEE433C98DF0A42EFEE5F039CD8AF022
:10021E00A42FFFE5F03EFEE43DFD33D0E0FB50079A
:10022E000BBB000F020398EC2CFCEF33FFEE33FEFA
:06023E00ED33FD02037028
:10024400020398EC5D046005E85904700302038E10
:10025400120359580460F6EC4860F2EC7004FDFE99
:10026400FF22C860DB2481C85009C398600250068D
:100274000203959850CAF582E9294B4A7005AB826E
:1002840002038475F0007C1A7880C3EF9BEE9AED2C
:1002940099400DC3EF9BFFEE9AFEED99FDE842F005
:1002A400DC23ACF0D0E0FFD0E0FED0E0FDAB822058
:1002B400E7101BEB60BAEC2CFCEF33FFEE33FEEDE2
:1002C40033FD020370E803F830E705C0F075F00071
:1002D400EF2FFFEE33FEED33FD40B830E7C280AAC6
:1002E40075F020800E75F010800575F0087D007E95
:1002F400007F003392D530D50312053BEC33401018
:10030400EF33FFEE33FEED33FDEC33FCD5F0ED229D
:0E031400E5F0247EA2D513CC92E7CDCEFF22D9
:10032200EDD2E7CD33EC3392D524814006E4FFFED3
:10033200FDFC22FCE4CFCECDCC24E0501174FF8032
:10034200EDC3CC13CCCD13CDCE13CECF13CF0470CF
:07035200F030D5DE02053B8F
:10035900E9D2E7C933E833F892D5EDD2E7CD33ECEA
:0703690033FC5002B2D52263
:10037000EC30E7100FBF000C0EBE00080DBD0004EE
:100380000BEB6014A2D5EB13FCED92E7FD2274FF9A
:10039000FCFDFEFF22E480F8A2D574FF13FC7D80F3
:0303A000E480EF07
:100BDA00020CE5E493A3F8E493A34003F68001F240
:100BEA0008DFF48029E493A3F85407240CC8C3331C
:100BFA00C4540F4420C8834004F456800146F6DFEB
:100C0A00E4800B0102040810204080900FCDE47E9E
:100C1A00019360BCA3FF543F30E509541FFEE493DF
:100C2A00A360010ECF54C025E060A840B8E493A3A6
:100C3A00FAE493A3F8E493A3C8C582C8CAC583CAD1
:100C4A00F0A3C8C582C8CAC583CADFE9DEE780BE89
:010FFC0000F4
:1003A300E709F608DFFA8046E709F208DFFA803E3C
:1003B30088828C83E709F0A3DFFA8032E309F60829
:1003C300DFFA8078E309F208DFFA807088828C8391
:1003D300E309F0A3DFFA806489828A83E0A3F60845
:1003E300DFFA805889828A83E0A3F208DFFA804C1F
:1003F30080D280FA80C680D4806980F280338010F6
:1004030080A680EA809A80A880DA80E280CA80335E
:1004130089828A83ECFAE493A3C8C582C8CCC583D6
:10042300CCF0A3C8C582C8CCC583CCDFE9DEE780A6
:100433000D89828A83E493A3F608DFF9ECFAA9F025
:10044300EDFB2289828A83ECFAE0A3C8C582C8CC7B
:10045300C583CCF0A3C8C582C8CCC583CCDFEADE94
:10046300E880DB89828A83E493A3F208DFF980CCF6
:1004730088F0EF60010E4E60C388F0ED2402B404EF
:100483000050B9F582EB2402B4040050AF23234596
:0604930082239003F373C5
:10049900BB010689828A83E0225002E722BBFE0261
:0904A900E32289828A83E4932294
:1004B200BB010689828A83F0225002F722BBFE0129
:0204C200F32223
:1004C400F8BB010DE58229F582E5833AF583E8F06E
:1004D400225006E92582C8F622BBFE05E92582C81A
:0204E400F22202
:1004E600BC000BBE0029EF8DF084FFADF022E4CCFA
:1004F600F875F008EF2FFFEE33FEEC33FCEE9DECC3
:10050600984005FCEE9DFE0FD5F0E9E4CEFD22ED08
:10051600F8F5F0EE8420D21CFEADF075F008EF2F52
:10052600FFED33FD4007985006D5F0F222C398FD43
:050536000FD5F0EA22E0
:0E053B00C3E49FFFE49EFEE49DFDE49CFC22D1
:10054900BB010789828A8302056F5005E9F8020514
:0A05590063BBFE05E9F802057B22F2
:0C056300ECF608EDF608EEF608EFF622C4
:0C056F00ECF0A3EDF0A3EEF0A3EFF022FF
:0C057B00ECF208EDF208EEF208EFF222BC
:00000001FF
