:030000000217C91B
:0C17C900787FE4F6D8FD75813C02181012
:101B0E00C291C290E9139287E9C313139286E91327
:101B1E0013543F139285E9131313541F139284E940
:101B2E00C4540F139283E9C4135407139282E9C469
:101B3E0013135403139281E9C41313135401139214
:071B4E0080D2907F057E00AC
:101B5500D3EF9400EE9400400F7DC77C01DCFEDDE1
:081B6500FAEF1F70EB1E80E88F
:011B6D002255
:1015D300E4FBC294D291D2907F01FE121B55A286E6
:1015E300E43325E0FFE433FEA287E433FDEEFCEFB2
:1015F3004DFDA285E4FE337802C333CE33CED8F952
:10160300FFEE4CFCEF4DFDA284E4FE337803C333BD
:10161300CE33CED8F9FFEE4CFCEF4DFDA283E4337D
:10162300C4F8540FC868FFE4C454F0484CFCEF4DB1
:10163300FDA282E4FE337805C333CE33CED8F9FF5F
:10164300EE4CFCEF4DFDA281E4FE337806C333CEAE
:1016530033CED8F9FFEE4CFCEF4DFDA280E4FE3310
:101663007807C333CE33CED8F9FFEE4CEF4D30E7D6
:101673000F0BEBD3946450030215E1C2907F002259
:04168300C2907F0191
:011687002240
:021F5600A907D9
:101F5800E4FA1215D3EF700E7F01FE121B550AEA40
:0D1F6800D3946440ED22C294121B0EC2906F
:011F75002249
:021F7600A907B9
:101F7800E4FA1215D3EF700E7F01FE121B550AEA20
:0D1F8800D3946440ED22D294121B0EC2903F
:011F95002229
:1020E600D2A6D2A77F30121F567F0C121F567F0131
:0320F600021F5670
:021EF000AE073B
:101EF200EE70047E808013BE01047E90800CBE02D0
:101F0200047E888005BE03027E98EE2DFF021F56D6
:101ECD008B308A318932AB30AA31A9321204BBFF73
:101EDD006010121F7674012532F532E43531F5317B
:021EED0080E48F
:011EEF0022D0
:10002600D6C7C4DCBCD2BED3CFB5CDB300CFB5CD19
:0B003600B3C6F4B6AFD6D02E2E2E00BD
:030AED00011B00EA
:0E211D0000007F557E0C7D9BDDFEDEFCDFFAB0
:01212B002291
:1018D7001220E6E4F5957596FF7D01FF121EF07B59
:1018E700FF7A007926121ECD7D017F01121EF07B43
:1018F700FF7A007933121ECD121EA9121E38121D4F
:101907009312208E12211D121511E51BB4070050EA
:10191700F990191FF8282873021934021939021986
:101927003E02194302194802194D021952120F0FAC
:1019370080D812133980D312112B80CE12168880CB
:10194700C9121B6E80C41205D680BF12172980BA30
:042027007F057E00B3
:10202B00EF1FAA0670011E4A600BE4FDEDC3940C72
:05203B0050EE0D80F7DE
:01204000227D
:021FB500A9077A
:101FB700E4FBC2B7E91392B7122027D2B7E9C313DC
:0C1FC700F90BBB08ED7F057E0002202B0B
:10204100E4FBC2B7ECC313FCD2B730B7034304803F
:092051001220270BBB08EBAF04C1
:01205A002263
:101E3800C201D2B77F0C7E0012202BC2B77F507E22
:101E48000012202BD2B77F0A7E0012202BA2B79255
:061E580001122027A20187
:011E5E002261
:101CA300E4F9FFFE121E387FCC121FB57F44121FCA
:101CB300B57FC87E0012202B121E387FCC121FB5B1
:101CC3007FBE121FB5122041A907122041EFC45451
:0A1CD300F0FEE9C4540F4206AF060C
:011CDD0022E4
:0721530055331026050517A6
:06212C00122132122132E3
:0921320000000000000000002282
:10207500E4FEC2A3EF1392A4122132EFC313FFD2E1
:08208500A31221320EBE08EA8D
:01208D002230
:101FD300E4FFFEC2A3EEC313FE12213230A4034377
:0D1FE3000680D2A31221320FBF08E8AF061E
:011FF00022CE
:051F9600E4FCFD7F8E5C
:101F9B00C2A500C2A3122132D2A5122075AF051221
:0A1FAB002075C2A512212C0221327C
:061D6900ED25E02481FFDE
:101D6F00E4FEC2A50000C2A3122132D2A5000012C8
:101D7F002075121FD3AE07C2A50000D2A312212CCB
:031D8F00122132EC
:011D9200222E
:041E10008E218F226E
:101E1400121F96EC25E02480FFE5222CF582E435A0
:101E240021F583E493FD121F9B0CBC07E67D807FA4
:041E34008E021F9B60
:061D3D008B2A8A2B892C81
:101D4300121F96EC25E02480FFAB2AAA2BA92C8C2A
:101D5300827583001204D4FD121F9B0CBC07E47D23
:061D6300807F8E021F9B31
:061F12008B308A31893298
:101F1800E4FD121D69AB30AA31A9328D82758300A8
:0B1F2800EF120513121D690DBD07E745
:011F3300228B
:101D9300E4C2A5C2A3FD7F8E121F9B7DA67F901276
:101DA3001F9B7D807F8E121F9B7F51121D6FEF3013
:091DB300E7077E217F53121E1088
:011DBC002204
:100AF0004103E8004103E9004103EA004103EB013F
:10144000E4F530D2B3D2B4D2B5D2B6A2B633F530C9
:10145000A2B5E433F9A2B4E433FEA2B3E433FDEE63
:1014600025E025E0FEED33333354F84EFEE925E068
:101470004E4530FE640F60159003E9E0700F900355
:10148000EBE0B401089003E8E004F08005E4900389
:10149000E8F09003E8E06F7030AC06F09003EBE00A
:1014A00064017025F09003E904F0EC24F960142441
:1014B000FC600D24FE600614700C7F01227F022266
:1014C0007F03227F04227F0022EE540FFDBD0F0D0B
:1014D0009003E9E0B40106A3E004F0800F9003E973
:1014E000E0B40108ED640F6003E4A3F09003EAE0C8
:1014F000B5071BE4F09003E9E0B40112EE540FFFCE
:10150000BF0F0B9003EB7401F0E49003E9F07F0050
:0115100022B8
:05215A00000000000080
:0D0B000005110000000000011600011000AA
:03002300021BCAF3
:0B1BCA00C0E0C0D075D000C000C00714
:101BD500309834C298AF99E51020E72B20E612BF64
:101BE500AA0A4310407511AA0510801B5310BF8027
:101BF50016E510540F2411F8A6070510E510540F2B
:071C0500FFBF05034310803F
:091C0C00D007D000D0D0D0E032A6
:080003008F993099FDC299228A
:101CDE008B3A8A3B893CAF051DEF6023AB3A053C3E
:101CEE00E53CAA3B7002053B14F91204BBFF12003F
:101CFE000300000000000000000000000080D7225A
:101EA900759850758920758840438E40758BB87533
:101EB9008DB8758780C298C29953B7EF53B8EFD2DE
:041EC900ACD2AF22C6
:081AAD008F338E328D318C3035
:101AB50078357C007D007BFF7A21795A7E007F0591
:101AC5001204737535AAAF33AE32AD31AC301203A3
:101AD500228F36E4FFFE7D207C41AB33AA32A9314B
:101AE500A83012013E1203227C007D0A1205358DB5
:101AF50037853438E535253625372538F5397B00E2
:091B05007A0079357D05021CDE31
:061A4A008B308A31893265
:101A5000E51030E755E511251225132514FF65150E
:101A60007042AC131202EEE4FBFA792078411202C4
:101A700047C004C005C006C007AC12E41202EED095
:101A800003D002D001D00012004DAB30AA31A932F0
:101A9000120598AB33AA34A935E514120501E4F513
:0C1AA000107F0122E4F5107FFF227F0080
:011AAC002217
:100B0D0063E800000000000000000000000000008D
:100B1D0000000000000000000000000000000000C8
:100B2D0000000000000000000000000000000000B8
:100B3D0000000000000000000000000000000000A8
:100B4D000000000000000000000000000000000098
:100EED0000000000000000000000000001170001DC
:020EFD001800DB
:0300430002195748
:0B195700C0E0C083C082C0D075D00883
:10196200E4FFE59A30E064539AFEAF9BE51C701CDD
:10197200E518D394E77480948340037518007400CB
:101982002518F582E43400F583EF8013E51820E78B
:101992003A20E615BFAA0D75184090000074AAF00F
:1019A200051880275318BF8022E518540F2400F52C
:1019B20082E43400F583EFF00518E518540FFFBFF9
:0B19C2000209431880751D00751B0210
:0919CD00D0D0D082D083D0E032EA
:0B2148008F9BE59A30E1FB539AFD22CB
:10208E00C2AF759A50759CFD438E1443B60143B58D
:07209E000175AF01D2AF2272
:101E5F008B298A2A892BAB29AA2AA92B1204BB60AA
:101E6F0013052BE52B7002052A14F91204BBFF1280
:051E7F00214880E22271
:1019D6000D0A0041542B43574D4F44453D33004FAC
:1019E6004B0041542B525354007265616479004197
:1019F600542B43495041503D223139322E3136382D
:101A06002E342E31220041542B43575341503D2250
:101A16004C574C222C223132333435363738222C6F
:101A2600312C340041542B4349504D55583D31001B
:101A360041542B4349505345525645523D312C385B
:041A460030383600FE
:030EFF00011C00D3
:0320F9001220FCB6
:0E20FC0000007F557E0C7D9BDDFEDEFCDFFAD2
:01210A0022B2
:10000E00E4FEEEC39F500C007D0B7CBEDCFEDDFCDF
:03001E000E80EF62
:0100210022BC
:06205B008B298A2A892B63
:102061007B0085292F852A30852B310B7A00790059
:03207100121855ED
:012074002249
:101C1500121E5F7BFF7A1979D6121E5FE5254526D0
:101C250045246032E5284527602CE52815287002F3
:101C3500152714452760167F0112000EAB24AA252F
:101C4500A92612205BEA494B60E0E4F518E5284532
:091C55002770037F01227F0022A9
:10151100E4FCC2ACC2B27F6412000ED2B21220F956
:101521007524FF7525197526E57527037528E87B50
:10153100FF7A1979D9121C157524FF75251975269D
:10154100EF7527137528887BFF7A1979E8121C1526
:101551007524FF7525197526E57527077528D07B34
:10156100FF7A1979F5121C151220F91220FC1220AC
:10157100FC7524FF7525197526E57527037528E87F
:101581007BFF7A1A790C121C151220FC1220FC75B3
:1015910024FF7525197526E57527037528E87BFF56
:1015A1007A1A792A121C151220FC7524FF75251947
:1015B1007526E57527037528E87BFF7A1A793612B7
:1015C1001C15AC071220FCEC7005751C01F518D236
:0115D100AC6D
:0115D20022F6
:0D213B00E4F5C7F5C5F5C675C380F5C422EF
:1020A50075C78375C5018FC48EC375C65A75C6A518
:0620B50000AFC212213B46
:0120BB002202
:1020BC0075C78375C5028FC48EC38DC275C65A751C
:0620CC00C6A50002213B45
:1020D20075C78375C5038FC48EC375C65A75C6A5E9
:0420E2000002213B9C
:101C5E00A1D4A1D4BCD2B5E7A1D4A1D40045313AC8
:101C6E004F46460045323A4F46460045333A4F46B8
:101C7E00460045343A4F46460045313A4F4E200015
:101C8E0045323A4F4E200045333A4F4E20004534F0
:051C9E003A4F4E20004A
:10112B00E4F521F5227F01121F567D01E4FF121E0B
:10113B00F07BFF7A1C795E121ECDE4FD7F01121E3F
:10114B00F07BFF7A1C796B121ECDE4FD7F02121E21
:10115B00F07BFF7A1C7972121ECD7D047F01121E6B
:10116B00F07BFF7A1C7979121ECD7D047F02121E53
:0A117B00F07BFF7A1C7980121ECD74
:10118500E4F526F5257524207523417F02121440C8
:101195008F27E51C6019E51830E714900001E0F58C
:1011A500347F007E007D707C41121AADE4F5187520
:1011B50033007534007535227B007A007923121AC5
:1011C5004AEF64016003021256E52230E00FE4FDA8
:1011D5007F01121EF07BFF7A1C7987800DE4FD7F6D
:1011E50001121EF07BFF7A1C796B121ECDE52230B1
:1011F500E10FE4FD7F02121EF07BFF7A1C798E80E1
:101205000DE4FD7F02121EF07BFF7A1C7972121E1F
:10121500CDE5227D047F0130E20B121EF07BFF7AC3
:101225001C79958009121EF07BFF7A1C7979121EB4
:10123500CDE5227D047F0230E30B121EF07BFF7AA1
:101245001C799C8009121EF07BFF7A1C7980121E86
:10125500CDE527B40407751D01751B0122E527643B
:1012650002706A0521E521B40503752101E52124F4
:10127500FE601D14602A1460392403600302118581
:101285007D077F02121EF07F20121F767D03801ED0
:101295007D037F01121EF07F20121F767D038020C3
:1012A5007D037F02121EF07F20121F767D077F01CE
:1012B50080107D077F01121EF07F20121F767D07AB
:1012C5007F02121EF07F11121F76021185E5276439
:1012D500016003021185E52124FE601C14602814B9
:1012E500603424036003021185E52230E0055322B2
:1012F500FE8030432201802BE52230E1055322FD9B
:101305008003432202801CE52230E2055322FB8044
:1013150003432204800DE52230E3055322F78003C1
:101325004322088522347F007E007D007C00121A4E
:04133500AD0211856F
:101D0E00D6F7BBFACEC2B6C83A00A1E600B4D3BB32
:101D1E00FACEC2B6C83A00C8D5C6DA3A0000CAB181
:0F1D2E00BCE43A002D003A000000000000000065
:030F0200011D01CD
:100F0F007F01121F56E4FDFF121EF07BFF7A1D7941
:100F1F000E121ECD7D07E4FF121EF07BFF7A1D79A6
:100F2F0018121ECDE4FD7F01121EF07BFF7A1D7992
:100F3F001B121ECD7D077F01121EF07BFF7A1D79DC
:100F4F0018121ECDE4FD7F02121EF07BFF7A1D7971
:100F5F0025121ECD7D037F02121EF07BFF7A1D79B5
:100F6F002B121ECDE4FD7F03121EF07BFF7A1D793D
:100F7F002C121ECD7D037F03121EF07BFF7A1D798D
:0B0F8F002B121ECDE51D700302112A7D
:100F9A0078217C007D007BFF7A1D79367E007F07F1
:100FAA001204737F021214408F28121CA38F29E4A3
:100FBA00F52DF52CF52BF52AF52EF52FE528B4019C
:100FCA0004751B01227D05E4FF121EF0E52975F068
:100FDA000A1204994430FF121F76E52975F00A12A5
:100FEA000499AFF0EF4430FF121F76753300753461
:100FFA000075352E7B007A00792A121A4AEF6401AD
:10100A007062AF2DAE2CAD2BAC2A1203228F29E4CD
:10101A00FFFE1220A58F2F7D057F01121EF0E52904
:10102A0075F00A1204994430FF121F76E52975F00B
:10103A000A120499AFF0EF4430FF121F76AD29ED82
:10104A003395E0FCD3ED952F7480F86C98E52E402B
:10105A00044404800254FBF5347F007E007D707CDA
:10106A0041121AAD7B007A007921121F127D037F8B
:10107A0002121EF0E527C4540F4430FF121F76E512
:10108A0027540F4430FF121F767BFF7A1D793212E4
:10109A001ECDE525C4540F4430FF121F76E52554B2
:1010AA000F4430FF121F767BFF7A1D7932121ECD54
:1010BA00E524C4540F4430FF121F76E524540F442C
:1010CA0030FF121F767D037F03121EF0E523C454FE
:1010DA000F4430FF121F76E523540F4430FF121FCE
:1010EA00767BFF7A1D7934121ECDE522C4540F4453
:1010FA0030FF121F76E522540F4430FF121F767B11
:10110A00FF7A1D7934121ECDE521C4540F4430FFF5
:0D111A00121F76E521540F4430FF121F769E
:04112700020F9322FE
:101F3400A1D4A1D4B2CBB5A5A1D4A1D400312EBCD7
:101F4400D2B5E700322EC9E8D6C300332EC6E4CB9F
:021F5400FB0090
:030F0500011E02C8
:101339007F01121F56051B7D01E4FF121EF07BFF82
:101349007A1F7934121ECDE4FD7F01121EF07BFF56
:101359007A1F7941121ECDE4FD7F02121EF07BFF38
:101369007A1F7948121ECDE4FD7F03121EF07BFF20
:0E1379007A1F794F121ECDE51D700302143F3E
:101387007F051214408F21E521B40213051B851B2D
:101397001EE51B64057031751B02851B1E8029E540
:1013A70021B40312151B851B1EE51BB4011A751BFF
:1013B70004751E048012E521B40404E4F51B22E53C
:1013C70021B40104851E1B22E51E24FD602514603F
:1013D70040240270A47D037F03121EF07F20121F9A
:1013E700767D037F02121EF07F20121F767D037F1A
:1013F70001803A7D037F01121EF07F20121F767D48
:10140700037F03121EF07F20121F767D037F028069
:101417001C7D037F01121EF07F20121F767D037F44
:1014270002121EF07F20121F767D037F03121EF02B
:081437007F11121F76021380E1
:01143F00228A
:101E84005354414950003139322E3136382E312ED7
:101E94003230300041504950003139322E31363819
:051EA4002E342E310078
:091B6E007F01121F56E51D6052B3
:101B77007F051214408F21E521B40404751B01224F
:101B87007D03E4FF121EF07BFF7A1E7984121ECDBF
:101B97007D017F01121EF07BFF7A1E798A121ECD0E
:101BA7007D037F02121EF07BFF7A1E7998121ECDED
:101BB7007D017F03121EF07BFF7A1E799D121ECDD9
:031BC70080AA22CF
:101FF100A1D4A1D4C9E8D6C3A1D4A1D400312ECA99
:0B200100B1BCE400322ECEC2B6C80015
:10168800E4F5217F01121F567D01E4FF121EF07B55
:10169800FF7A1F79F1121ECDE4FD7F01121EF07B47
:1016A800FF7A1F79FE121ECDE4FD7F02121EF07B29
:0C16B800FF7A207905121ECDE51D60644C
:1016C4007F051214408F22E522B4010CE521700439
:1016D400751B0522751B0622E522B40404751B0143
:1016E40022E522B4030A0521E521B40203E4F5212D
:1016F400E5211460150470C47D037F02121EF07F7F
:1017040020121F767D037F0180107D037F01121E4E
:10171400F07F20121F767D037F02121EF07F1112CC
:041724001F76809814
:01172800229E
:10200C00A1D4B1A8BEAFCEC2B6C8A1D400A1E6007F
:0B201C00CEC2B6C8C9CFCFDE3A20000C
:10172900E4FFFE1220A58F217F01121F567D01E4DF
:10173900FF121EF07BFF7A20790C121ECD7D077FE8
:1017490001121EF07BFF7A207919121ECDE51D606A
:011759006E21
:10175A007F051214408F22E522B40412E4FFFE1220
:10176A0020D2AD21E4FFFE1220BC751B0322E52224
:10177A00B4020E0521E521D394644016E4F52180D4
:10178A0011E522B4030C1521E521C3940050037519
:10179A002164E4FD7F01121EF07BFF7A20791C127E
:1017AA001ECDE52175F00A844430FF121F76E5212B
:0C17BA0075F00A84E5F04430FF121F7641
:0217C600808E13
:0117C80022FE
:101DBD00A1D4CAB1BCE4C8D5C6DAC9E8D6C3A1D48A
:101DCD0000C8D5C6DA202000CAB1BCE42020002D01
:0A1DDD00003A0000000000000000C2
:060F0800C1000219000007
:10210B005389F0758ACD758CD4C28DD28CD2AFD257
:02211B00A922F7
:03000B00021DE7EC
:041DE700C0E0C0D0C8
:101DEB00C28D758ACD758CD4051AE51A700205194A
:101DFB00B4F40DE519B40108751900751A00B20099
:051E0B00D0D0D0E03250
:1005D600E4F52178227C00FD7BFF7A1D79E0FE7F21
:1005E600071204737F01121F567B007A00792212CC
:1005F6001F12E4FDFF121EF07BFF7A1D79BD121E4D
:10060600CDE4FD7F01121EF07BFF7A1D79CE121E0E
:10061600CDE4FD7F02121EF07BFF7A1D79D5121EF6
:10062600CD7D037F01121EF0E528C4540F4430FF30
:10063600121F76E528540F4430FF121F767BFF7A8F
:100646001D79DC121ECDE526C4540F4430FF121F5F
:1006560076E526540F4430FF121F767BFF7A1D790C
:10066600DC121ECDE525C4540F4430FF121F76E57B
:1006760025540F4430FF121F767D037F02121EF0B1
:10068600E524C4540F4430FF121F76E524540F446A
:1006960030FF121F767BFF7A1D79DE121ECDE52311
:1006A600C4540F4430FF121F76E523540F4430FF25
:1006B600121F767BFF7A1D79DE121ECDE522C45409
:1006C6000F4430FF121F76E522540F4430FF121FED
:0B06D6007612210BE51D7003020AECF8
:1006E1007F051214408F29E521B40C004003020854
:1006F1006C9006F9F828287302071D02072E0207DD
:100701005002077502078702079A0207BC0207CE4B
:100711000207EE02081402082702083B7D037F014D
:1007210030000302081B121EF0E52880437D037F81
:1007310001300008121EF0E528020847121EF0E5FC
:1007410028C4540F4430FF121F76E5280208647D47
:10075100047F0130000C121EF07BFF7A1D79DC0250
:1007610007FE121EF07BFF7A1D79DC121ECDE526F5
:10077100C40208647D057F0130000302081B121EBC
:10078100F0E5260208647D067F0130000302081BA4
:10079100121EF0E525C40208647D067F01300008C1
:1007A100121EF0E525020847121EF0E525C4540F7C
:1007B1004430FF121F76E5250208647D037F023075
:1007C10000028056121EF0E524C40208647D037FF6
:1007D10002300007121EF0E524806B121EF0E524A2
:1007E100C4540F4430FF121F76E52480767D047FC8
:1007F1000230000E121EF07BFF7A1D79DE121ECD33
:10080100804D121EF07BFF7A1D79DE121ECDE5238D
:10081100C480507D057F02300005121EF080301229
:100821001EF0E523803D7D067F02300005121EF09B
:10083100801D121EF0E522C480297D067F02300052
:1008410012121EF0E522C4540F4430FF121F767FAE
:10085100208015121EF0E522C4540F4430FF121FF0
:1008610076E522540F4430FF121F76E529640360B8
:100871000302092F0521E521B40C03E4F5217D03D1
:100881007F01121EF0E528C4540F4430FF121F7679
:10089100E528540F4430FF121F767BFF7A1D79DC67
:1008A100121ECDE526C4540F4430FF121F76E526F3
:1008B100540F4430FF121F767BFF7A1D79DC121E24
:1008C100CDE525C4540F4430FF121F76E525540FA2
:1008D1004430FF121F767D037F02121EF0E524C40F
:1008E100540F4430FF121F76E524540F4430FF1299
:1008F1001F767BFF7A1D79DE121ECDE523C4540FCE
:100901004430FF121F76E523540F4430FF121F7647
:100911007BFF7A1D79DE121ECDE522C4540F4430CF
:10092100FF121F76E522540F4430FF121F76E5298E
:1009310064016003020AD4E521B40C004003020AF9
:10094100D4900949F828287302096D02098F020918
:10095100AC0209D10209EE020A10020A2D020A4F65
:10096100020A68020A86020A9F020ABDE528C454E7
:100971000F04C454F0FFE528540F4FF528C4540F59
:10098100D394095003020AD453280F020AD4E5284C
:10099100540F04FFE52854F04FF528540FD3940960
:1009A1005003020AD45328F0020AD4E526C4540F96
:1009B10004C454F0FFE526540F4FF526C4540FD359
:1009C10094095003020AD4E528540FF526020AD4EB
:1009D100E526540F04FFE52654F04FF526540FD3B6
:1009E10094095003020AD45326F0020AD4E525C41F
:1009F100540F04C454F0FFE525540F4FF525C4549A
:100A01000FD394095003020AD453250F020AD4E5E7
:100A110025540F04FFE52554F04FF525540FD394C9
:100A2100095003020AD45325F0020AD4E524C45420
:100A31000F04C454F0FFE524540F4FF524C4540FA0
:100A4100D394025003020AD453240F020AD4E5249A
:100A5100540F04FFE52454F04FF524540FD39409A7
:100A610040715324F0806CE523C4540F04C454F046
:100A7100FFE523540F4FF523C4540FD3940540537E
:100A810053230F804EE523540F04FFE52354F04F09
:100A9100F523540FD39409403A5323F08035E522CE
:100AA100C4540F04C454F0FFE522540F4FF522C47F
:100AB100540FD39405401C53220F8017E522540F85
:100AC10004FFE52254F04FF522540FD3940940035B
:100AD1005322F0E529640460030206DA751B03FB67
:0B0AE1007A007922121D3DC28CC2A9D0
:010AEC0022E7
:1000460002038EE86480F8E933E83360110460F057
:10005600ED33EC337009E8FCE9FDEAFEEBFF220420
:1000660060DED3EB9FEA9EE99DE8C2E78CF0C2F71B
:1000760095F0400CE8CCF8E9CDF9EACEFAEBCFFBE7
:1000860012035985D0F05804700320D5B3E80470E4
:10009600075002B2D502039892D5EC0460F7E4CC7F
:1000A600C0E0C398F8603B94186008400DD0E0FBB0
:1000B600020370E4FBFAC9FC8028E830E406E4C9D0
:1000C600FBE4CAFCE830E305E4C9CACBFCE8540704
:1000D6006010F8C3E913F9EA13FAEB13FBEC13FC0F
:1000E600D8F130F52FC3E49CFCEF9BFFEE9AFEEDB2
:1000F60099FDD0E0FBEF4E4D4C701222DB0302035C
:1001060095EC2CFCEF33FFEE33FEED33FDED30E7DF
:10011600EB020370EF2BFFEE3AFEED39FDD0E0FB6C
:1001260050130BBB0003020398ED13FDEE13FEEF15
:0801360013FFEC13FC0203703F
:10013E00EC4D6011E8497017ED33EC3304600DE4BB
:10014E00FCFFFEFD22E933E8330470F802038E1241
:10015E00035958046009E4CC248150062850090242
:10016E000398284003020395C0E0EB4A7044B9801F
:10017E0006D0E0FB020384EF4E701CBD8008EBFF3F
:10018E00EAFEE9FD80EBE98DF0A4FEE5F002022720
:10019E00E9CDF9EAFEEBFFEF89F0A4FCE5F0CE899C
:1001AE00F0A42EFFE435F0CD89F0A42DFEE435F059
:1001BE008067EF4E7005BD80D780C3EF8BF0A4AC87
:1001CE00F0EE8BF0A42CFCE435F0F8EF8AF0A42CC2
:1001DE00E5F038FCE433CB8DF0A42CFCE5F03BF8D5
:1001EE00EE8AF0A42CFCE5F038F8E433CF89F0A4C5
:1001FE002CFCE5F038CF3400CE89F0A42FFFE5F0CB
:10020E003EFEE433C98DF0A42EFEE5F039CD8AF022
:10021E00A42FFFE5F03EFEE43DFD33D0E0FB50079A
:10022E000BBB000F020398EC2CFCEF33FFEE33FEFA
:06023E00ED33FD02037028
:10024400020398EC5D046005E85904700302038E10
:10025400120359580460F6EC4860F2EC7004FDFE99
:10026400FF22C860DB2481C85009C398600250068D
:100274000203959850CAF582E9294B4A7005AB826E
:1002840002038475F0007C1A7880C3EF9BEE9AED2C
:1002940099400DC3EF9BFFEE9AFEED99FDE842F005
:1002A400DC23ACF0D0E0FFD0E0FED0E0FDAB822058
:1002B400E7101BEB60BAEC2CFCEF33FFEE33FEEDE2
:1002C40033FD020370E803F830E705C0F075F00071
:1002D400EF2FFFEE33FEED33FD40B830E7C280AAC6
:1002E40075F020800E75F010800575F0087D007E95
:1002F400007F003392D530D50312058AEC334010C9
:10030400EF33FFEE33FEED33FDEC33FCD5F0ED229D
:0E031400E5F0247EA2D513CC92E7CDCEFF22D9
:10032200EDD2E7CD33EC3392D524814006E4FFFED3
:10033200FDFC22FCE4CFCECDCC24E0501174FF8032
:10034200EDC3CC13CCCD13CDCE13CECF13CF0470CF
:07035200F030D5DE02058A40
:10035900E9D2E7C933E833F892D5EDD2E7CD33ECEA
:0703690033FC5002B2D52263
:10037000EC30E7100FBF000C0EBE00080DBD0004EE
:100380000BEB6014A2D5EB13FCED92E7FD2274FF9A
:10039000FCFDFEFF22E480F8A2D574FF13FC7D80F3
:0303A000E480EF07
:1017D5000218D7E493A3F8E493A34003F68001F23B
:1017E50008DFF48029E493A3F85407240CC8C33315
:1017F500C4540F4420C8834004F456800146F6DFE4
:10180500E4800B0102040810204080900AEDE47E7C
:10181500019360BCA3FF543F30E509541FFEE493D8
:10182500A360010ECF54C025E060A840B8E493A39F
:10183500FAE493A3F8E493A3C8C582C8CAC583CACA
:10184500F0A3C8C582C8CAC583CADFE9DEE780BE82
:010F0E0000E2
:1003A300E709F608DFFA8046E709F208DFFA803E3C
:1003B30088828C83E709F0A3DFFA8032E309F60829
:1003C300DFFA8078E309F208DFFA807088828C8391
:1003D300E309F0A3DFFA806489828A83E0A3F60845
:1003E300DFFA805889828A83E0A3F208DFFA804C1F
:1003F30080D280FA80C680D4806980F280338010F6
:1004030080A680EA809A80A880DA80E280CA80335E
:1004130089828A83ECFAE493A3C8C582C8CCC583D6
:10042300CCF0A3C8C582C8CCC583CCDFE9DEE780A6
:100433000D89828A83E493A3F608DFF9ECFAA9F025
:10044300EDFB2289828A83ECFAE0A3C8C582C8CC7B
:10045300C583CCF0A3C8C582C8CCC583CCDFEADE94
:10046300E880DB89828A83E493A3F208DFF980CCF6
:1004730088F0EF60010E4E60C388F0ED2402B404EF
:100483000050B9F582EB2402B4040050AF23234596
:0604930082239003F373C5
:10049900C2D530F707B2D563F0FF05F030E70CB2EB
:1004A900D5F4048463F0FF05F080018430D502F4AB
:0204B90004221B
:1004BB00BB010689828A83E0225002E722BBFE023F
:0904CB00E32289828A83E4932272
:1004D400BB010CE58229F582E5833AF583E02250DD
:1004E40006E92582F8E622BBFE06E92582F8E22227
:0D04F400E58229F582E5833AF583E4932241
:10050100BB010689828A83F0225002F722BBFE01D9
:02051100F322D3
:10051300F8BB010DE58229F582E5833AF583E8F01E
:10052300225006E92582C8F622BBFE05E92582C8CA
:02053300F222B2
:10053500BC000BBE0029EF8DF084FFADF022E4CCAA
:10054500F875F008EF2FFFEE33FEEC33FCEE9DEC73
:10055500984005FCEE9DFE0FD5F0E9E4CEFD22EDB9
:10056500F8F5F0EE8420D21CFEADF075F008EF2F03
:10057500FFED33FD4007985006D5F0F222C398FDF4
:050585000FD5F0EA2291
:0E058A00C3E49FFFE49EFEE49DFDE49CFC2282
:10059800BB010789828A830205BE5005E9F8020576
:0A05A800B2BBFE05E9F80205CA2205
:101855008B2C8A2D892EAB2FAA30A9311204BB609F
:1018650063AB2CAA2DA92E1204BB605F852F328590
:1018750030338531348B358A368937AB32AA33A973
:10188500341204BBFF6023AB35AA36A9371204BB5B
:101895006F7017042534F534E43533F533740125B9
:1018A50037F537E43536F53680D1AB32AA33A9346E
:1018B5001204BB7002800D7401252EF52EE4352D22
:1018C500F52D809DAB2CAA2DA92E227B007A0079BF
:0218D5000022EF
:0C05B200ECF608EDF608EEF608EFF62275
:0C05BE00ECF0A3EDF0A3EEF0A3EFF022B0
:0C05CA00ECF208EDF208EEF208EFF2226D
:00000001FF
