:0300000002189152
:0C189100787FE4F6D8FD75813B0218D882
:101B6200C291C290E9139287E9C313139286E913D3
:101B720013543F139285E9131313541F139284E9EC
:101B8200C4540F139283E9C4135407139282E9C415
:101B920013135403139281E9C413131354011392C0
:071BA20080D2907F057E0058
:101BA900D3EF9400EE9400400F7DC77C01DCFEDD8D
:081BB900FAEF1F70EB1E80E83B
:011BC1002201
:1015F700E4FBC294D291D2907F01FE121BA9A2866E
:10160700E43325E0FFE433FEA287E433FDEEFCEF8D
:101617004DFDA285E4FE337802C333CE33CED8F92D
:10162700FFEE4CFCEF4DFDA284E4FE337803C33399
:10163700CE33CED8F9FFEE4CFCEF4DFDA283E43359
:10164700C4F8540FC868FFE4C454F0484CFCEF4D8D
:10165700FDA282E4FE337805C333CE33CED8F9FF3B
:10166700EE4CFCEF4DFDA281E4FE337806C333CE8A
:1016770033CED8F9FFEE4CFCEF4DFDA280E4FE33EC
:101687007807C333CE33CED8F9FFEE4CEF4D30E7B2
:101697000F0BEBD394645003021605C2907F002210
:0416A700C2907F016D
:0116AB00221C
:021FAA00A90785
:101FAC00E4FA1215F7EF700E7F01FE121BA90AEA74
:0D1FBC00D3946440ED22C294121B62C290C7
:011FC90022F5
:021FCA00A90765
:101FCC00E4FA1215F7EF700E7F01FE121BA90AEA54
:0D1FDC00D3946440ED22D294121B62C29097
:011FE90022D5
:1020F900D2A6D2A77F30121FAA7F0C121FAA7F0176
:03210900021FAA08
:021F4400AE07E6
:101F4600EE70047E808013BE01047E90800CBE027B
:101F5600047E888005BE03027E98EE2DFF021FAA2E
:101F21008B2F8A308931AB2FAA30A9311204BBFF24
:101F31006010121FCA74012531F531E43530F530D6
:021F410080E43A
:011F4300227B
:10002600D6C7C4DCBCD2BED3CFB5CDB300CFB5CD19
:0B003600B3C6F4B6AFD6D02E2E2E00BD
:030AED00011B00EA
:0E21300000007F557E0C7D9BDDFEDEFCDFFA9D
:01213E00227E
:10199F001220F9E4F5957596FF7D01FF121F447B28
:1019AF00FF7A007926121F217D017F01121F447BD0
:1019BF00FF7A007933121F21121EFD121E8C121D89
:1019CF00E71220E2122130121434E51BB407005045
:1019DF00F99019E7F82828730219FC021A01021A64
:1019EF0006021A0B021A10021A15021A1A121120E5
:1019FF0080D812132D80D3120F1280CE12175D8054
:101A0F00C9121BC280C41205D680BF1217FE80BA3E
:04207B007F057E005F
:10207F00EF1FAA0670011E4A600BE4FDEDC3940C1E
:05208F0050EE0D80F78A
:012094002229
:02200900A90725
:10200B00E4FBC2B7E91392B712207BD2B7E9C31333
:0C201B00F90BBB08ED7F057E0002207F62
:10209500E4FBC2B7ECC313FCD2B730B703430480EB
:0920A50012207B0BBB08EBAF0419
:0120AE00220F
:101E8C00C201D2B77F0C7E0012207FC2B77F507E7A
:101E9C000012207FD2B77F0A7E0012207FA2B79259
:061EAC000112207BA201DF
:011EB200220D
:101CF700E4F9FFFE121E8C7FCC1220097F441220CC
:101D0700097FC87E0012207F121E8C7FCC1220090B
:101D17007FBE122009122095A907122095EFC454FF
:0A1D2700F0FEE9C4540F4206AF06B7
:011D3100228F
:0721590055331026050517A0
:06213F00122145122145AA
:092145000000000000000000226F
:1020C900E4FEC2A3EF1392A4122145EFC313FFD27A
:0820D900A31221450EBE08EA26
:0120E10022DC
:10202700E4FFFEC2A3EEC313FE12214530A403430F
:0D2037000680D2A31221450FBF08E8AF06B6
:012044002279
:051FEA00E4FCFD7F8E08
:101FEF00C2A500C2A3122145D2A51220C9AF051266
:0A1FFF0020C9C2A512213F022145AE
:061DBD00ED25E02481FF8A
:101DC300E4FEC2A50000C2A3122145D2A500001261
:101DD30020C9122027AE07C2A50000D2A312213FBB
:031DE30012214585
:011DE60022DA
:041E64008E218F221A
:101E6800121FEAEC25E02480FFE5222CF582E435F8
:101E780021F583E493FD121FEF0CBC07E67D807FFC
:041E88008E021FEFB8
:061D91008B2A8A2B892C2D
:101D9700121FEAEC25E02480FFAB2AAA2BA92C8C82
:101DA700827583001204D4FD121FEF0CBC07E47D7B
:061DB700807F8E021FEF89
:061F66008B2F8A30893147
:101F6C00E4FD121DBDAB2FAA30A9318D8275830003
:0B1F7C00EF120513121DBD0DBD07E79D
:011F87002237
:101DE700E4C2A5C2A3FD7F8E121FEF7DA67F9012CE
:101DF7001FEF7D807F8E121FEF7F51121DC3EF30C3
:091E0700E7077E217F59121E64D9
:011E100022AF
:100AF0004103E8004103E9004103EA004103EB013F
:10152600E4F52FD2B3D2B4D2B5D2B6A2B633F52FE4
:10153600A2B5E433F9A2B4E433FEA2B3E433FDEE7C
:1015460025E025E0FEED33333354F84EFEE925E081
:101556004E452FFE640F60159003E9E0700F90036F
:10156600EBE0B401089003E8E004F08005E49003A2
:10157600E8F09003E8E06F7030AC06F09003EBE023
:1015860064017025F09003E904F0EC24F96014245A
:10159600FC600D24FE600614700C7F01227F02227F
:1015A6007F03227F04227F0022EE540FFDBD0F0D24
:1015B6009003E9E0B40106A3E004F0800F9003E98C
:1015C600E0B40108ED640F6003E4A3F09003EAE0E1
:1015D600B5071BE4F09003E9E0B40112EE540FFFE7
:1015E600BF0F0B9003EB7401F0E49003E9F07F006A
:0115F60022D2
:0521600000000000007A
:0D0B000005110000000000011600011000AA
:03002300021C1E9E
:0B1C1E00C0E0C0D075D000C000C007BF
:101C2900309834C298AF99E51020E72B20E612BF0F
:101C3900AA0A4310407511AA0510801B5310BF80D2
:101C490016E510540F2411F8A6070510E510540FD6
:071C5900FFBF0503431080EB
:091C6000D007D000D0D0D0E03252
:080003008F993099FDC299228A
:101D32008B398A3A893BAF051DEF6023AB39053BEE
:101D4200E53BAA3A7002053A14F91204BBFF1200ED
:101D52000300000000000000000000000080D72205
:101EFD00759850758920758840438E40758BB875DF
:101F0D008DB8758780C298C29953B7EF53B8EFD289
:041F1D00ACD2AF2271
:081B01008F328E318D308C2FE4
:101B090078347C007D007BFF7A2179607E007F0537
:101B19001204737534AAAF32AE31AD30AC2F120353
:101B2900228F35E4FFFE7D207C41AB32AA31A930FA
:101B3900A82F12013E1203227C007D0A1205358D61
:101B490036853337E534253525362537F5387B0095
:091B59007A0079347D05021D3289
:061A9E008B2F8A30893114
:101AA400E51030E755E511251225132514FF6515BA
:101AB4007042AC131202EEE4FBFA79207841120270
:101AC40047C004C005C006C007AC12E41202EED041
:101AD40003D002D001D00012004DAB2FAA30A9319F
:101AE400120598AB32AA33A934E514120501E4F5C2
:0C1AF400107F0122E4F5107FFF227F002C
:011B000022C2
:100B0D0063E800000000000000000000000000008D
:100B1D0000000000000000000000000000000000C8
:100B2D0000000000000000000000000000000000B8
:100B3D0000000000000000000000000000000000A8
:100B4D000000000000000000000000000000000098
:100EED0000000000000000000000000001170001DC
:020EFD001800DB
:03004300021A1F7F
:0B1A1F00C0E0C083C082C0D075D008BA
:101A2A00E4FFE59A30E064539AFEAF9BE51C701C14
:101A3A00E518D394E7748094834003751800740002
:101A4A002518F582E43400F583EF8013E51820E7C2
:101A5A003A20E615BFAA0D75184090000074AAF046
:101A6A00051880275318BF8022E518540F2400F563
:101A7A0082E43400F583EFF00518E518540FFFBF30
:0B1A8A000209431880751D00751B0247
:091A9500D0D0D082D083D0E03221
:0B214E008F9BE59A30E1FB539AFD22C5
:1020E200C2AF759A50759CFD438E1443B60143B539
:0720F2000175AF01D2AF221E
:101EB3008B298A2A892BAB29AA2AA92B1204BB6056
:101EC30013052BE52B7002052A14F91204BBFF122C
:051ED300214E80E22217
:1016AC000D0A0041542B43574D4F44453D33004FD9
:1016BC004B0041542B5253540072656164790041C4
:1016CC00542B43495041503D223139322E3136385A
:1016DC002E342E31220041542B4349505354413D5A
:1016EC00223139322E3136382E312E323030220022
:1016FC0041542B43575341503D224C574C222C22E2
:10170C003132333435363738222C312C34004154B5
:10171C002B43574A41503D224D4552435552595F38
:10172C0041373841222C227A6C676D63753138222F
:10173C000041542B4349504D55583D310041542BD9
:10174C004349505345525645523D312C383038366A
:01175C00008C
:030EFF00011C00D3
:03210C0012210F8E
:0E210F0000007F557E0C7D9BDDFEDEFCDFFABE
:01211D00229F
:10000E00E4FEEEC39F500C007D0B7CBEDCFEDDFCDF
:03001E000E80EF62
:0100210022BC
:0620AF008B298A2A892B0F
:1020B5007B0085292F852A30852B310B7A00790005
:0320C50012191DD0
:0120C80022F5
:101C6900121EB37BFF7A1679AC121EB3E525452601
:101C790045246032E5284527602CE528152870029F
:101C8900152714452760167F0112000EAB24AA25DB
:101C9900A9261220AFEA494B60E0E4F518E528458A
:091CA9002770037F01227F002255
:10143400E4FCC2ACC2B27F6412000ED2B212210C20
:101444007524FF7525167526BB7527037528E87B5B
:10145400FF7A1679AF121C697524FF752516752657
:10146400C57527137528887BFF7A1679BE121C6907
:101474007524FF7525167526BB7527077528D07B3F
:10148400FF7A1679CB121C6912210C7524FF75257D
:10149400167526BB7527077528D07BFF7A1679E267
:1014A400121C6912210F12210F7524FF7525167560
:1014B40026BB7527037528E87BFF7A1679FC121C76
:1014C4006912210F7524FF7525167526BB75270330
:1014D4007528E87BFF7A17791A121C6912210F7597
:1014E40024FF7525167526BB7527037528E87BFF31
:1014F4007A17793D121C6912210F7524FF75251680
:101504007526BB7527037528E87BFF7A177949127E
:101514001C69AC0712210FEC7005751C01F518D27B
:01152400AC1A
:0115250022A3
:101CB200A1D4A1D4BCD2B5E7A1D4A1D40045313A74
:101CC2004F46460045323A4F46460045333A4F4664
:101CD200460045343A4F46460045313A4F4E2000C1
:101CE20045323A4F4E200045333A4F4E200045349C
:051CF2003A4F4E2000F6
:100F1200E4F521F5227F01121FAA7D01E4FF121FD1
:100F2200447BFF7A1C79B2121F21E4FD7F01121F5C
:100F3200447BFF7A1C79BF121F21E4FD7F02121F3E
:100F4200447BFF7A1C79C6121F217D047F01121F88
:100F5200447BFF7A1C79CD121F217D047F02121F70
:0A0F6200447BFF7A1C79D4121F2192
:100F6C00E4F526F5257524207523417F02121526FC
:100F7C008F27E51C6019E51830E714900001E0F5A7
:100F8C00337F007E007D707C41121B01E4F51875E7
:100F9C0032007533007534227B007A007923121AE3
:100FAC009EEF6401600302103DE52230E00FE4FD8A
:100FBC007F01121F447BFF7A1C79DB800DE4FD7FDF
:100FCC0001121F447BFF7A1C79BF121F21E52230CE
:100FDC00E10FE4FD7F02121F447BFF7A1C79E28053
:100FEC000DE4FD7F02121F447BFF7A1C79C6121F91
:100FFC0021E5227D047F0130E20B121F447BFF7A36
:10100C001C79E98009121F447BFF7A1C79CD121FD1
:10101C0021E5227D047F0230E30B121F447BFF7A13
:10102C001C79F08009121F447BFF7A1C79D4121FA3
:10103C0021E527B40407751D01751B0122E5276402
:10104C0002706A0521E521B40503752101E521240F
:10105C00FE601D14602A14603924036003020F6CB7
:10106C007D077F02121F447F20121FCA7D03801E42
:10107C007D037F01121F447F20121FCA7D03802035
:10108C007D037F02121F447F20121FCA7D077F0140
:10109C0080107D077F01121F447F20121FCA7D071D
:1010AC007F02121F447F11121FCA020F6CE52764C6
:1010BC00016003020F6CE52124FE601C14602814EF
:1010CC00603424036003020F6CE52230E0055322E8
:1010DC00FE8030432201802BE52230E1055322FDB6
:1010EC008003432202801CE52230E2055322FB8060
:1010FC0003432204800DE52230E3055322F78003DD
:10110C004322088522337F007E007D007C00121B69
:04111C0001020F6C51
:101D6200D6F7BBFACEC2B6C83A00A1E600B4D3BBDE
:101D7200FACEC2B6C83A00C8D5C6DA3A0000CAB12D
:0F1D8200BCE43A002D003A000000000000000011
:030F0200011D01CD
:101120007F01121FAAE4FDFF121F447BFF7A1D7985
:1011300062121F217D07E4FF121F447BFF7A1D7995
:101140006C121F21E4FD7F01121F447BFF7A1D7981
:101150006F121F217D077F01121F447BFF7A1D79CB
:101160006C121F21E4FD7F02121F447BFF7A1D7960
:1011700079121F217D037F02121F447BFF7A1D79A4
:101180007F121F21E4FD7F03121F447BFF7A1D792C
:1011900080121F217D037F03121F447BFF7A1D797C
:0B11A0007F121F21E51D700302132CBD
:1011AB0078217C007D007BFF7A1D798A7E007F078A
:1011BB001204737F051215268F28121CF78F29E452
:1011CB00F52DF52CF52BF52AF52EE528B401047534
:1011DB001B01227D05E4FF121F44E52975F00A125D
:1011EB0004994430FF121FCAE52975F00A120499BD
:1011FB00AFF0EF4430FF121FCA7532007533007524
:10120B00342E7B007A00792A121A9EEF64017055F6
:10121B00AF2DAE2CAD2BAC2A1203228F297D057F6F
:10122B0001121F44E52975F00A1204994430FF128C
:10123B001FCAE52975F00A120499AFF0EF4430FF8D
:10124B00121FCAD3E51F6480F8E529648098E52E48
:10125B0040044404800254FBF5337F007E007D7014
:10126B007C41121B017B007A007921121F667D03E2
:10127B007F02121F44E527C4540F4430FF121FCACC
:10128B00E527540F4430FF121FCA7BFF7A1D798666
:10129B00121F21E525C4540F4430FF121FCAE52548
:1012AB00540F4430FF121FCA7BFF7A1D7986121F21
:1012BB0021E524C4540F4430FF121FCAE524540FF8
:1012CB004430FF121FCA7D037F03121F44E523C462
:1012DB00540F4430FF121FCAE523540F4430FF1242
:1012EB001FCA7BFF7A1D7988121F21E522C4540F78
:1012FB004430FF121FCAE522540F4430FF121FCA9D
:10130B007BFF7A1D7988121F21E521C4540F4430CD
:0E131B00FF121FCAE521540F4430FF121FCAF3
:041329000211A422E7
:101F8800A1D4A1D4B2CBB5A5A1D4A1D400312EBC83
:101F9800D2B5E700322EC9E8D6C300332EC6E4CB4B
:021FA800FB003C
:030F0500011E02C8
:10132D007F01121FAA051B7D01E4FF121F447BFFE5
:10133D007A1F7988121F21E4FD7F01121F447BFF64
:10134D007A1F7995121F21E4FD7F02121F447BFF46
:10135D007A1F799C121F21E4FD7F03121F447BFF2E
:0E136D007A1F79A3121F21E51D7003021433AD
:10137B007F051215268F21E521B40213051B851B52
:10138B001EE51B64057031751B02851B1E8029E54C
:10139B0021B40312151B851B1EE51BB4011A751B0B
:1013AB0004751E048012E521B40404E4F51B22E548
:1013BB0021B40104851E1B22E51E24FD602514604B
:1013CB0040240270A47D037F03121F447F20121F51
:1013DB00CA7D037F02121F447F20121FCA7D037F29
:1013EB0001803A7D037F01121F447F20121FCA7DAB
:1013FB00037F03121F447F20121FCA7D037F0280CD
:10140B001C7D037F01121F447F20121FCA7D037FA7
:10141B0002121F447F20121FCA7D037F03121F4439
:08142B007F11121FCA021374A5
:011433002296
:101ED8005354414950003139322E3136382E312E83
:101EE8003230300041504950003139322E313638C5
:051EF8002E342E310024
:091BC2007F01121FAAE51D60520B
:101BCB007F051215268F21E521B40404751B012214
:101BDB007D03E4FF121F447BFF7A1E79D8121F216D
:101BEB007D017F01121F447BFF7A1E79DE121F21BC
:101BFB007D037F02121F447BFF7A1E79EC121F219B
:101C0B007D017F03121F447BFF7A1E79F1121F2186
:031C1B0080AA227A
:10204500A1D4A1D4C9E8D6C3A1D4A1D400312ECA44
:0B205500B1BCE400322ECEC2B6C800C1
:10175D00E4F5217F01121FAA7D01E4FF121F447BD6
:10176D00FF7A207945121F21E4FD7F01121F447B72
:10177D00FF7A207952121F21E4FD7F02121F447B54
:0C178D00FF7A207959121F21E51D6064CD
:101799007F051215268F22E522B4010CE52170047C
:1017A900751B0522751B0622E522B40404751B016D
:1017B90022E522B4030A0521E521B40203E4F52157
:1017C900E5211460150470C47D037F02121F447F54
:1017D90020121FCA7D037F0180107D037F01121F24
:1017E900447F20121FCA7D037F02121F447F1112FA
:0417F9001FCA8098EB
:0117FD0022C9
:10206000A1D4B1A8BEAFCEC2B6C8A1D400A1E6002B
:0B207000CEC2B6C8C9CFCFDE3A2000B8
:030F0800011F1FA7
:1017FE007F01121FAA7D01E4FF121F447BFF7A2096
:10180E007960121F217D077F01121F447BFF7A2012
:09181E00796D121F21E51D6069BE
:101827007F051215268F21E521B40404751B0322B9
:10183700E521B40210051FD3E51F648094E4401826
:10184700E4F51F8013E521B4030E151FC3E51F64DC
:101857008094805003751F64E4FD7F01121F447B51
:10186700FF7A207970121F21E51F75F00A1204997B
:101877004430FF121FCAE51F75F00A120499AFF032
:07188700EF4430FF121FCAFD
:03188E0080932222
:101E1100A1D4CAB1BCE4C8D5C6DAC9E8D6C3A1D435
:101E210000C8D5C6DA202000CAB1BCE42020002DAC
:0A1E3100003A00000000000000006D
:060F0B00C1000219000004
:10211E005389F0758ACD758CD4C28DD28CD2AFD244
:02212E00A922E4
:03000B00021E3B97
:041E3B00C0E0C0D073
:101E3F00C28D758ACD758CD4051AE51A70020519F5
:101E4F00B4F40DE519B40108751900751A00B20044
:051E5F00D0D0D0E032FC
:1005D600E4F52178227C00FD7BFF7A1E7934FE7FCC
:1005E600071204737F01121FAA7B007A0079221278
:1005F6001F66E4FDFF121F447BFF7A1E7911121F4E
:1006060021E4FD7F01121F447BFF7A1E7922121F0F
:1006160021E4FD7F02121F447BFF7A1E7929121FF7
:10062600217D037F01121F44E528C4540F4430FF87
:10063600121FCAE528540F4430FF121FCA7BFF7AE7
:100646001E7930121F21E526C4540F4430FF121FB5
:10065600CAE526540F4430FF121FCA7BFF7A1E7963
:1006660030121F21E525C4540F4430FF121FCAE57E
:1006760025540F4430FF121FCA7D037F02121F4408
:10068600E524C4540F4430FF121FCAE524540F4416
:1006960030FF121FCA7BFF7A1E7932121F21E52313
:1006A600C4540F4430FF121FCAE523540F4430FFD1
:1006B600121FCA7BFF7A1E7932121F21E522C4540B
:1006C6000F4430FF121FCAE522540F4430FF121F99
:0B06D600CA12211EE51D7003020AEC91
:1006E1007F051215268F29E521B40C00400302086D
:1006F1006C9006F9F828287302071D02072E0207DD
:100701005002077502078702079A0207BC0207CE4B
:100711000207EE02081402082702083B7D037F014D
:1007210030000302081B121F44E52880437D037F2C
:1007310001300008121F44E528020847121F44E552
:1007410028C4540F4430FF121FCAE5280208647DF3
:10075100047F0130000C121F447BFF7A1E793002A6
:1007610007FE121F447BFF7A1E7930121F21E526F6
:10077100C40208647D057F0130000302081B121FBB
:1007810044E5260208647D067F0130000302081B50
:10079100121F44E525C40208647D067F013000086C
:1007A100121F44E525020847121F44E525C4540FD2
:1007B1004430FF121FCAE5250208647D037F023021
:1007C10000028056121F44E524C40208647D037FA1
:1007D10002300007121F44E524806B121F44E524F8
:1007E100C4540F4430FF121FCAE52480767D047F74
:1007F1000230000E121F447BFF7A1E7932121F2134
:10080100804D121F447BFF7A1E7932121F21E5238E
:10081100C480507D057F02300005121F44803012D4
:100821001F44E523803D7D067F02300005121F44F1
:10083100801D121F44E522C480297D067F023000FD
:1008410012121F44E522C4540F4430FF121FCA7F05
:10085100208015121F44E522C4540F4430FF121F9B
:10086100CAE522540F4430FF121FCAE52964036010
:100871000302092F0521E521B40C03E4F5217D03D1
:100881007F01121F44E528C4540F4430FF121FCAD0
:10089100E528540F4430FF121FCA7BFF7A1E7930BE
:1008A100121F21E526C4540F4430FF121FCAE5264A
:1008B100540F4430FF121FCA7BFF7A1E7930121F7A
:1008C10021E525C4540F4430FF121FCAE525540FFA
:1008D1004430FF121FCA7D037F02121F44E524C466
:1008E100540F4430FF121FCAE524540F4430FF1245
:1008F1001FCA7BFF7A1E7932121F21E523C4540FD0
:100901004430FF121FCAE523540F4430FF121FCA9F
:100911007BFF7A1E7932121F21E522C4540F443025
:10092100FF121FCAE522540F4430FF121FCAE529E6
:1009310064016003020AD4E521B40C004003020AF9
:10094100D4900949F828287302096D02098F020918
:10095100AC0209D10209EE020A10020A2D020A4F65
:10096100020A68020A86020A9F020ABDE528C454E7
:100971000F04C454F0FFE528540F4FF528C4540F59
:10098100D394095003020AD453280F020AD4E5284C
:10099100540F04FFE52854F04FF528540FD3940960
:1009A1005003020AD45328F0020AD4E526C4540F96
:1009B10004C454F0FFE526540F4FF526C4540FD359
:1009C10094095003020AD4E528540FF526020AD4EB
:1009D100E526540F04FFE52654F04FF526540FD3B6
:1009E10094095003020AD45326F0020AD4E525C41F
:1009F100540F04C454F0FFE525540F4FF525C4549A
:100A01000FD394095003020AD453250F020AD4E5E7
:100A110025540F04FFE52554F04FF525540FD394C9
:100A2100095003020AD45325F0020AD4E524C45420
:100A31000F04C454F0FFE524540F4FF524C4540FA0
:100A4100D394025003020AD453240F020AD4E5249A
:100A5100540F04FFE52454F04FF524540FD39409A7
:100A610040715324F0806CE523C4540F04C454F046
:100A7100FFE523540F4FF523C4540FD3940540537E
:100A810053230F804EE523540F04FFE52354F04F09
:100A9100F523540FD39409403A5323F08035E522CE
:100AA100C4540F04C454F0FFE522540F4FF522C47F
:100AB100540FD39405401C53220F8017E522540F85
:100AC10004FFE52254F04FF522540FD3940940035B
:100AD1005322F0E529640460030206DA751B03FB67
:0B0AE1007A007922121D91C28CC2A97C
:010AEC0022E7
:1000460002038EE86480F8E933E83360110460F057
:10005600ED33EC337009E8FCE9FDEAFEEBFF220420
:1000660060DED3EB9FEA9EE99DE8C2E78CF0C2F71B
:1000760095F0400CE8CCF8E9CDF9EACEFAEBCFFBE7
:1000860012035985D0F05804700320D5B3E80470E4
:10009600075002B2D502039892D5EC0460F7E4CC7F
:1000A600C0E0C398F8603B94186008400DD0E0FBB0
:1000B600020370E4FBFAC9FC8028E830E406E4C9D0
:1000C600FBE4CAFCE830E305E4C9CACBFCE8540704
:1000D6006010F8C3E913F9EA13FAEB13FBEC13FC0F
:1000E600D8F130F52FC3E49CFCEF9BFFEE9AFEEDB2
:1000F60099FDD0E0FBEF4E4D4C701222DB0302035C
:1001060095EC2CFCEF33FFEE33FEED33FDED30E7DF
:10011600EB020370EF2BFFEE3AFEED39FDD0E0FB6C
:1001260050130BBB0003020398ED13FDEE13FEEF15
:0801360013FFEC13FC0203703F
:10013E00EC4D6011E8497017ED33EC3304600DE4BB
:10014E00FCFFFEFD22E933E8330470F802038E1241
:10015E00035958046009E4CC248150062850090242
:10016E000398284003020395C0E0EB4A7044B9801F
:10017E0006D0E0FB020384EF4E701CBD8008EBFF3F
:10018E00EAFEE9FD80EBE98DF0A4FEE5F002022720
:10019E00E9CDF9EAFEEBFFEF89F0A4FCE5F0CE899C
:1001AE00F0A42EFFE435F0CD89F0A42DFEE435F059
:1001BE008067EF4E7005BD80D780C3EF8BF0A4AC87
:1001CE00F0EE8BF0A42CFCE435F0F8EF8AF0A42CC2
:1001DE00E5F038FCE433CB8DF0A42CFCE5F03BF8D5
:1001EE00EE8AF0A42CFCE5F038F8E433CF89F0A4C5
:1001FE002CFCE5F038CF3400CE89F0A42FFFE5F0CB
:10020E003EFEE433C98DF0A42EFEE5F039CD8AF022
:10021E00A42FFFE5F03EFEE43DFD33D0E0FB50079A
:10022E000BBB000F020398EC2CFCEF33FFEE33FEFA
:06023E00ED33FD02037028
:10024400020398EC5D046005E85904700302038E10
:10025400120359580460F6EC4860F2EC7004FDFE99
:10026400FF22C860DB2481C85009C398600250068D
:100274000203959850CAF582E9294B4A7005AB826E
:1002840002038475F0007C1A7880C3EF9BEE9AED2C
:1002940099400DC3EF9BFFEE9AFEED99FDE842F005
:1002A400DC23ACF0D0E0FFD0E0FED0E0FDAB822058
:1002B400E7101BEB60BAEC2CFCEF33FFEE33FEEDE2
:1002C40033FD020370E803F830E705C0F075F00071
:1002D400EF2FFFEE33FEED33FD40B830E7C280AAC6
:1002E40075F020800E75F010800575F0087D007E95
:1002F400007F003392D530D50312058AEC334010C9
:10030400EF33FFEE33FEED33FDEC33FCD5F0ED229D
:0E031400E5F0247EA2D513CC92E7CDCEFF22D9
:10032200EDD2E7CD33EC3392D524814006E4FFFED3
:10033200FDFC22FCE4CFCECDCC24E0501174FF8032
:10034200EDC3CC13CCCD13CDCE13CECF13CF0470CF
:07035200F030D5DE02058A40
:10035900E9D2E7C933E833F892D5EDD2E7CD33ECEA
:0703690033FC5002B2D52263
:10037000EC30E7100FBF000C0EBE00080DBD0004EE
:100380000BEB6014A2D5EB13FCED92E7FD2274FF9A
:10039000FCFDFEFF22E480F8A2D574FF13FC7D80F3
:0303A000E480EF07
:10189D0002199FE493A3F8E493A34003F68001F2A9
:1018AD0008DFF48029E493A3F85407240CC8C3334C
:1018BD00C4540F4420C8834004F456800146F6DF1B
:1018CD00E4800B0102040810204080900AEDE47EB4
:1018DD00019360BCA3FF543F30E509541FFEE49310
:1018ED00A360010ECF54C025E060A840B8E493A3D7
:1018FD00FAE493A3F8E493A3C8C582C8CAC583CA02
:10190D00F0A3C8C582C8CAC583CADFE9DEE780BEB9
:010F110000DF
:1003A300E709F608DFFA8046E709F208DFFA803E3C
:1003B30088828C83E709F0A3DFFA8032E309F60829
:1003C300DFFA8078E309F208DFFA807088828C8391
:1003D300E309F0A3DFFA806489828A83E0A3F60845
:1003E300DFFA805889828A83E0A3F208DFFA804C1F
:1003F30080D280FA80C680D4806980F280338010F6
:1004030080A680EA809A80A880DA80E280CA80335E
:1004130089828A83ECFAE493A3C8C582C8CCC583D6
:10042300CCF0A3C8C582C8CCC583CCDFE9DEE780A6
:100433000D89828A83E493A3F608DFF9ECFAA9F025
:10044300EDFB2289828A83ECFAE0A3C8C582C8CC7B
:10045300C583CCF0A3C8C582C8CCC583CCDFEADE94
:10046300E880DB89828A83E493A3F208DFF980CCF6
:1004730088F0EF60010E4E60C388F0ED2402B404EF
:100483000050B9F582EB2402B4040050AF23234596
:0604930082239003F373C5
:10049900C2D530F707B2D563F0FF05F030E70CB2EB
:1004A900D5F4048463F0FF05F080018430D502F4AB
:0204B90004221B
:1004BB00BB010689828A83E0225002E722BBFE023F
:0904CB00E32289828A83E4932272
:1004D400BB010CE58229F582E5833AF583E02250DD
:1004E40006E92582F8E622BBFE06E92582F8E22227
:0D04F400E58229F582E5833AF583E4932241
:10050100BB010689828A83F0225002F722BBFE01D9
:02051100F322D3
:10051300F8BB010DE58229F582E5833AF583E8F01E
:10052300225006E92582C8F622BBFE05E92582C8CA
:02053300F222B2
:10053500BC000BBE0029EF8DF084FFADF022E4CCAA
:10054500F875F008EF2FFFEE33FEEC33FCEE9DEC73
:10055500984005FCEE9DFE0FD5F0E9E4CEFD22EDB9
:10056500F8F5F0EE8420D21CFEADF075F008EF2F03
:10057500FFED33FD4007985006D5F0F222C398FDF4
:050585000FD5F0EA2291
:0E058A00C3E49FFFE49EFEE49DFDE49CFC2282
:10059800BB010789828A830205BE5005E9F8020576
:0A05A800B2BBFE05E9F80205CA2205
:10191D008B2C8A2D892EAB2FAA30A9311204BB60D6
:10192D0063AB2CAA2DA92E1204BB605F852F3285C7
:10193D0030338531348B358A368937AB32AA33A9AA
:10194D00341204BBFF6023AB35AA36A9371204BB92
:10195D006F7017042534F534E43533F533740125F0
:10196D0037F537E43536F53680D1AB32AA33A934A5
:10197D001204BB7002800D7401252EF52EE4352D59
:10198D00F52D809DAB2CAA2DA92E227B007A0079F6
:02199D00002226
:0C05B200ECF608EDF608EEF608EFF62275
:0C05BE00ECF0A3EDF0A3EEF0A3EFF022B0
:0C05CA00ECF208EDF208EEF208EFF2226D
:00000001FF
