:030000000217FFE5
:0C17FF00787FE4F6D8FD75815102184691
:101AC900C291C290E9139287E9C313139286E9136D
:101AD90013543F139285E9131313541F139284E986
:101AE900C4540F139283E9C4135407139282E9C4AF
:101AF90013135403139281E9C4131313540113925A
:071B090080D2907F057E00F1
:101B1000D3EF9400EE9400400F7DC77C01DCFEDD26
:081B2000FAEF1F70EB1E80E8D4
:011B2800229A
:10169900E4FBC294D291D2907F01FE121B10A28664
:1016A900E43325E0FFE433FEA287E433FDEEFCEFEB
:1016B9004DFDA285E4FE337802C333CE33CED8F98B
:1016C900FFEE4CFCEF4DFDA284E4FE337803C333F7
:1016D900CE33CED8F9FFEE4CFCEF4DFDA283E433B7
:1016E900C4F8540FC868FFE4C454F0484CFCEF4DEB
:1016F900FDA282E4FE337805C333CE33CED8F9FF99
:10170900EE4CFCEF4DFDA281E4FE337806C333CEE7
:1017190033CED8F9FFEE4CFCEF4DFDA280E4FE3349
:101729007807C333CE33CED8F9FFEE4CEF4D30E70F
:101739000F0BEBD3946450030216A7C2907F0022CB
:04174900C2907F01CA
:01174D002279
:021E4F00A907E1
:101E5100E4FA121699EF700E7F01FE121B100AEAC6
:0D1E6100D3946440ED22C294121AC9C290BD
:011E6E002251
:021E6F00A907C1
:101E7100E4FA121699EF700E7F01FE121B100AEAA6
:0D1E8100D3946440ED22D294121AC9C2908D
:011E8E002231
:101FAA00D2A6D2A77F30121E4F7F0C121E4F7F017E
:031FBA00021E4FB5
:021E0B00AE0720
:101E0D00EE70047E808013BE01047E90800CBE02B5
:101E1D00047E888005BE03027E98EE2DFF021E4FC4
:101DE8008B3E8A3F8940AB3EAA3FA940120499FF27
:101DF8006010121E6F74012540F540E4353FF53F31
:021E080080E474
:011E0A0022B5
:052045008E4D8F4E22BC
:09203C008F1F8E1E8D1D8C1C22CD
:1012D500D6F7BBFACEC2B6C83A00A1E600B4D3BB76
:1012E500FACEC2B6C83A00C8D5C6DA3A0000CAB1C5
:1012F500BCE43A002D003A00A1D4A1D4D6F7B2CB74
:10130500B5A5A1D4A1D400312EBCD2B5E700322EAB
:10131500C9E8D6C300332EC6E4CBFB00A1D4A1D4C3
:10132500BCD2B5E7A1D4A1D40045313A4F46460019
:1013350045323A4F46460045333A4F464600453416
:101345003A4F46460045313A4F4E200045323A4F16
:101355004E200045333A4F4E200045343A4F4E203B
:1013650000A1D4A1D4C9E8D6C3A1D4A1D400312EFB
:10137500CAB1BCE400322ECEC2B6C80053544149AE
:1013850050003139322E3136382E312E3230300080
:1013950041504950003139322E3136382E342E31F4
:1013A50000A1D4CAB1BCE4C8D5C6DAC9E8D6C3A180
:1013B500D400C8D5C6DA202000CAB1BCE42020007C
:1013C50000000000000000000000000000001122E5
:0313D50033445549
:0F0AC400011A00011B01011702C10002180000F6
:1010F4007F01121E4FE4FDFF121E0B7BFF7A127953
:10110400D5121DE87D07E4FF121E0B7BFF7A1279CE
:10111400DF121DE8E4FD7F01121E0B7BFF7A1279BA
:10112400E2121DE87D077F01121E0B7BFF7A127904
:10113400DF121DE8E4FD7F02121E0B7BFF7A127999
:10114400EC121DE87D037F02121E0B7BFF7A1279DD
:10115400F2121DE8E4FD7F03121E0B7BFF7A127965
:10116400F3121DE87D037F03121E0B7BFF7A1279B5
:0B117400F2121DE8E51B70030212D40C
:10117F0078307C007D007BFF7A1379C57E007F0776
:10118F001204737F051215C88F37121C698F38E44C
:10119F00F53CF53BF53AF539F53DE537B401047506
:1011AF001A01227D05E4FF121E0BE53875F00A8443
:1011BF004430FF121E6FE53875F00A84E5F04430B5
:1011CF00FF121E6F75410075420075433D7B007A1B
:1011DF00007939121A05EF6401702EAF3CAE3BADAA
:1011EF003AAC391203228F387D057F01121E0BE5B1
:1011FF003875F00A844430FF121E6FE53875F00A17
:10120F0084E5F04430FF121E6F7B007A00793012B4
:10121F001E2D7D037F02121E0BE536C4540F443082
:10122F00FF121E6FE536540F4430FF121E6F7BFF07
:10123F007A1279F9121DE8E534C4540F4430FF12C5
:10124F001E6FE534540F4430FF121E6F7BFF7A126E
:10125F0079F9121DE8E533C4540F4430FF121E6FA5
:10126F00E533540F4430FF121E6F7D037F03121EB0
:10127F000BE532C4540F4430FF121E6FE532540F8A
:10128F004430FF121E6F7BFF7A1279FB121DE8E5C7
:10129F0031C4540F4430FF121E6FE531540F4430E8
:1012AF00FF121E6F7BFF7A1279FB121DE8E530C427
:1012BF00540F4430FF121E6FE530540F4430FF12AD
:0212CF001E6F90
:0412D100021178226C
:1013D8007F01121E4F051AE4FDFF121E0B7BFF7AD8
:1013E8001279FD121DE8E4FD7F01121E0B7BFF7AC6
:1013F80013790C121DE8E4FD7F02121E0B7BFF7AA5
:10140800137913121DE8E4FD7F03121E0B7BFF7A8C
:0614180013791A121DE811
:10141E007F051215C88F30E530B40213051A851AF0
:10142E0017E51A64057031751A02851A178029E5B9
:10143E0030B40312151A851A17E51AB4011A751A63
:10144E00047517048012E530B40404E4F51A22E59D
:10145E0030B4010485171A22E51724FD60251460A7
:10146E0040240270AB7D037F03121E0B7F20121EE1
:10147E006F7D037F02121E0B7F20121E6F7D037F76
:10148E0001803A7D037F01121E0B7F20121E6F7D9D
:10149E00037F03121E0B7F20121E6F7D037F0280BF
:1014AE001C7D037F01121E0B7F20121E6F7D037F9A
:1014BE0002121E0B7F20121E6F7D037F03121E0B66
:0814CE007F11121E6F02141EB3
:100EE600E4F530F5317F01121E4F7D01E4FF121E3D
:100EF6000B7BFF7A137921121DE8E4FD7F01121E98
:100F06000B7BFF7A13792E121DE8E4FD7F02121E79
:100F16000B7BFF7A137935121DE87D047F01121EC3
:100F26000B7BFF7A13793C121DE87D047F02121EAB
:0A0F36000B7BFF7A137943121DE8CC
:100F4000E4F535F5347533207532417F021215C84A
:100F50008F36E5516019E55030E714900001E0F557
:100F60003B7F007E007D707C41121A68E4F550756D
:100F700041007542007543317B007A007932121AC4
:100F800005EF64016003021011E53130E00FE4FD6C
:100F90007F01121E0B7BFF7A13794A800DE4FD7FDF
:100FA00001121E0B7BFF7A13792E121DE8E53130FA
:100FB000E10FE4FD7F02121E0B7BFF7A1379518053
:100FC0000DE4FD7F02121E0B7BFF7A137935121D93
:100FD000E8E5317D047F0130E20B121E0B7BFF7AC6
:100FE0001379588009121E0B7BFF7A13793C121D6E
:100FF000E8E5317D047F0230E30B121E0B7BFF7AA4
:1010000013795F8009121E0B7BFF7A137943121D3F
:10101000E8E536B40407751B01751A0122E536644C
:1010200002706A0530E530B40503753001E53024FF
:10103000FE601D14602A14603924036003020F400F
:101040007D077F02121E0B7F20121E6F7D03801E04
:101050007D037F01121E0B7F20121E6F7D038020F7
:101060007D037F02121E0B7F20121E6F7D077F0102
:1010700080107D077F01121E0B7F20121E6F7D07DF
:101080007F02121E0B7F11121E6F020F40E53664A5
:10109000016003020F40E53024FE601C1460281438
:1010A000603424036003020F40E53130E005533122
:1010B000FE8030433101802BE53130E1055331FDB5
:1010C0008003433102801CE53130E2055331FB805F
:1010D00003433104800DE53130E3055331F78003DC
:1010E00043310885313B7F007E007D007C00121A71
:0410F00068020F4043
:101B8000E4F5307F01121E4F7D01E4FF121E0B7B36
:101B9000FF7A137966121DE8E4FD7F01121E0B7BAC
:101BA000FF7A137973121DE8E4FD7F02121E0B7B8E
:081BB000FF7A13797A121DE897
:101BB8007F051215C88F31E531B40108E530700C86
:0C1BC800751A0522E531B404E7751A0116
:011BD40022EE
:051B29007F01121E4FB8
:101B2E007F051215C88F30E530B40404751A0122F2
:101B3E007D03E4FF121E0B7BFF7A137981121DE8E1
:101B4E007D017F01121E0B7BFF7A137987121DE830
:101B5E007D037F02121E0B7BFF7A137995121DE80F
:101B6E007D017F03121E0B7BFF7A13799A121DE8FB
:021B7E0080AE37
:101FBD005389F0758ACD758CD4C28DD28CD2AFD2A7
:021FCD00A92247
:03000B00021D24AF
:041D2400C0E0C0D08B
:101D2800C28D758ACD758CD40519E5197002051810
:101D3800B4F40DE518B40108751800751900B2005F
:051D4800D0D0D0E03214
:1005B400E4F53078317C00FD7BFF7A1379CCFE7F43
:1005C400071204737F01121E4F7B007A00793112E7
:1005D4001E2DE4FDFF121E0B7BFF7A1379A6121D5C
:1005E400E8E4FD7F01121E0B7BFF7A1379B7121D1D
:1005F400E8E4FD7F02121E0B7BFF7A1379BE121D05
:10060400E87D037F01121E0BE537C4540F4430FF0D
:10061400121E6FE537540F4430FF121E6F7BFF7AB2
:100624001279F9121DE8E535C4540F4430FF121E47
:100634006FE535540F4430FF121E6F7BFF7A127939
:10064400F9121DE8E534C4540F4430FF121E6FE55F
:1006540034540F4430FF121E6F7D037F02121E0BB1
:10066400E533C4540F4430FF121E6FE533540F4476
:1006740030FF121E6F7BFF7A1279FB121DE8E53200
:10068400C4540F4430FF121E6FE532540F4430FF40
:10069400121E6F7BFF7A1279FB121DE8E531C454F8
:1006A4000F4430FF121E6FE531540F4430FF121E09
:0406B4006F121FBDE5
:1006B8007F051215C88F38E530B40C0040030208D6
:1006C800439006D0F82828730206F40207050207AB
:1006D8002702074C02075E0207710207930207A56B
:1006E8000207C50207EB0207FE0208127D037F011D
:1006F8003000030207F2121E0BE53780437D037FAB
:1007080001300008121E0BE53702081E121E0BE509
:1007180037C4540F4430FF121E6FE53702083B7D83
:10072800047F0130000C121E0B7BFF7A1279F9024C
:1007380007D5121E0B7BFF7A1279F9121DE8E535F1
:10074800C402083B7D057F013000030207F2121E38
:100758000BE53502083B7D067F013000030207F2F6
:10076800121E0BE534C402083B7D067F01300008E9
:10077800121E0BE53402081E121E0BE534C4540F7A
:100788004430FF121E6FE53402083B7D037F0230C0
:1007980000028056121E0BE533C402083B7D037F1E
:1007A80002300007121E0BE533806B121E0BE53377
:1007B800C4540F4430FF121E6FE53380767D047FEA
:1007C8000230000E121E0B7BFF7A1279FB121DE815
:1007D800804D121E0B7BFF7A1279FB121DE8E53261
:1007E800C480507D057F02300005121E0B80301238
:1007F8001E0BE532803D7D067F02300005121E0B80
:10080800801D121E0BE531C480297D067F02300051
:1008180012121E0BE531C4540F4430FF121E6F7FB5
:10082800208015121E0BE531C4540F4430FF121EF0
:100838006FE531540F4430FF121E6FE538640360D2
:10084800030209060530E530B40C03E4F5307D03F6
:100858007F01121E0BE537C4540F4430FF121E6F80
:10086800E537540F4430FF121E6F7BFF7A1279F977
:10087800121DE8E535C4540F4430FF121E6FE535EC
:10088800540F4430FF121E6F7BFF7A1279F9121D44
:10089800E8E534C4540F4430FF121E6FE534540F9A
:1008A8004430FF121E6F7D037F02121E0BE533C416
:1008B800540F4430FF121E6FE533540F4430FF12BB
:1008C8001E6F7BFF7A1279FB121DE8E532C4540FC4
:1008D8004430FF121E6FE532540F4430FF121E6F72
:1008E8007BFF7A1279FB121DE8E531C4540F4430BE
:1008F800FF121E6FE531540F4430FF121E6FE538AA
:1009080064016003020AABE530B40C004003020A3C
:10091800AB900920F82828730209440209660209E5
:10092800830209A80209C50209E7020A04020A2685
:10093800020A3F020A5D020A76020A94E537C454A5
:100948000F04C454F0FFE537540F4FF537C4540F64
:10095800D394095003020AAB53370F020AABE537A9
:10096800540F04FFE53754F04FF537540FD394096B
:100978005003020AAB5337F0020AABE535C4540FF3
:1009880004C454F0FFE535540F4FF535C4540FD364
:1009980094095003020AABE537540FF535020AAB48
:1009A800E535540F04FFE53554F04FF535540FD3B2
:1009B80094095003020AAB5335F0020AABE534C47C
:1009C800540F04C454F0FFE534540F4FF534C454A5
:1009D8000FD394095003020AAB53340F020AABE554
:1009E80034540F04FFE53454F04FF534540FD394C6
:1009F800095003020AAB5334F0020AABE533C4547E
:100A08000F04C454F0FFE533540F4FF533C4540FAB
:100A1800D394025003020AAB53330F020AABE533F7
:100A2800540F04FFE53354F04FF533540FD39409B2
:100A380040715333F0806CE532C4540F04C454F051
:100A4800FFE532540F4FF532C4540FD39405405389
:100A580053320F804EE532540F04FFE53254F04F05
:100A6800F532540FD39409403A5332F08035E531CA
:100A7800C4540F04C454F0FFE531540F4FF531C48A
:100A8800540FD39405401C53310F8017E531540F90
:100A980004FFE53154F04FF531540FD39409400366
:100AA8005331F0E538640460030206B8751A01FB97
:0B0AB8007A007931121CA4C28CC2A984
:010AC3002210
:0E1FF20000007F557E0C7D9BDDFEDEFCDFFADD
:0120000022BD
:0E20010000007FFF7EFF7DFFDDFEDEFCDFFACC
:01200F0022AE
:0E20100000007FD37E1E7D0BDDFEDEFCDFFABE
:01201E00229F
:10198C00E4F5957596FF121DC4121FAA121D9D1227
:0B199C001D75121F93121FF21214D6CB
:1019A70078217C007D007BFF7A1379D37E007F0549
:1019B700120473E4F529F528752794752641F52D4A
:1019C700F52CF52BF52A752E01F52FE51A14601560
:1019D70014601714601914601B14601D240570C06F
:1019E7001210F480BB1213D880B6120EE680B11223
:0E19F7001B8080AC121B2980A71205B480A2B1
:040026007F057E00D4
:10002A00EF1FAA0670011E4A600BE4FDEDC3940C93
:05003A0050EE0D80F7FF
:01003F00229E
:021EEC00A90744
:101EEE00E4FBC2B7E91392B7120026D2B7E9C313C7
:0C1EFE00F90BBB08ED7F057E0002002AF6
:101F4600E4FBC2B7ECC313FCD2B730B7034304803B
:091F56001200260BBB08EBAF04DE
:011F5F00225F
:101D9D00C201D2B77F0C7E0012002AC2B77F507EDF
:101DAD000012002AD2B77F0A7E0012002AA2B79233
:061DBD0001120026A20144
:011DC30022FD
:101C6900E4F9FFFE121D9D7FCC121EEC7F44121E6B
:101C7900EC7FC87E0012002A121D9D7FCC121EEC3B
:101C89007FBE121EEC121F46A907121F46EFC4544D
:0A1C9900F0FEE9C4540F4206AF0646
:011CA300221E
:070003005533102605051717
:06201F001220251220250D
:0920250000000000000000002290
:101F7A00E4FEC2A3EF1392A4122025EFC313FFD2EB
:081F8A00A31220250EBE08EA97
:011F9200222C
:101F0A00E4FFFEC2A3EEC313FE12202530A403434E
:0D1F1A000680D2A31220250FBF08E8AF06F5
:011F27002297
:051E8F00E4FCFD7F8E64
:101E9400C2A500C2A3122025D2A5121F7AAF051233
:0A1EA4001F7AC2A512201F0220259C
:061CD000ED25E02481FF78
:101CD600E4FEC2A50000C2A3122025D2A500001270
:101CE6001F7A121F0AAE07C2A50000D2A312201F38
:031CF60012202594
:011CF90022C8
:041D4D008E308F3114
:101D5100121E8FEC25E02480FFE5312CF582E4355D
:101D610030F583E493FD121E940CBC07E67D807F61
:041D71008E021E942C
:061CA4008B398A3A893BEE
:101CAA00121E8FEC25E02480FFAB39AA3AA93B8C9F
:101CBA00827583001204B2FD121E940CBC07E47DE7
:061CCA00807F8E021E94D3
:061E2D008B3E8A3F894054
:101E3300E4FD121CD0AB3EAA3FA9408D82758300FE
:0B1E4300EF1204F1121CD00DBD07E7E8
:011E4E002271
:101D7500E4FCC2A5C2A3FD7F8E121E947DA67F90B2
:101D8500121E947D807F8E121E947F51121CD6AC3C
:081D9500077E007F03021D4DD3
:100AD3004103E8004103E9004103EA004103EB015C
:1015C800E4F53ED2B3D2B4D2B5D2B6A2B633F53E24
:1015D800A2B5E433F9A2B4E433FEA2B3E433FDEEDA
:1015E80025E025E0FEED33333354F84EFEE925E0DF
:1015F8004E453EFE640F60159003E9E0700F9003BE
:10160800EBE0B401089003E8E004F08005E49003FF
:10161800E8F09003E8E06F7030AC06F09003EBE080
:1016280064017025F09003E904F0EC24F9601424B7
:10163800FC600D24FE600614700C7F01227F0222DC
:101648007F03227F04227F0022EE540FFDBD0F0D81
:101658009003E9E0B40106A3E004F0800F9003E9E9
:10166800E0B40108ED640F6003E4A3F09003EAE03E
:10167800B5071BE4F09003E9E0B40112EE540FFF44
:10168800BF0F0B9003EB7401F0E49003E9F07F00C7
:01169800222F
:05204A00000000000091
:0D0AE30005110000000000011600011000C8
:03002300021BD5E8
:0B1BD500C0E0C0D075D000C000C00709
:101BE000309834C298AF99E51020E72B20E612BF59
:101BF000AA0A4310407511AA0510801B5310BF801C
:101C000016E510540F2411F8A6070510E510540F1F
:071C1000FFBF050343108034
:091C1700D007D000D0D0D0E0329B
:06202E0014F9120499FFF1
:082034008F993099FDC2992239
:101CFA008B418A428943AF051DEF601DAB41054305
:101D0A00E543AA427002054212202E00000000009C
:0A1D1A000000000000000080DD2240
:101EAE008B478A488949AB47AA48A94912049960C9
:0F1EBE000D0549E5497002054812202E80E822E3
:101DC400759850758920758840438E40758BB87519
:101DD4008DB8758780C298C29953B7EF53B8EFD2C4
:041DE400ACD2AF22AC
:081A68008F3A8E398D388C375E
:101A7000783C7C007D007BFF7A20794A7E007F05E0
:101A8000120473753CAAAF3AAE39AD38AC371203C5
:101A9000228F3DE4FFFE7D207C41AB3AAA39A93874
:101AA000A83712013E1203227C007D0A1205138D15
:101AB0003E853B3FE53C253D253E253FF5407B00EF
:091AC0007A00793C7D05021CFA54
:061A05008B3E8A3F894080
:101A0B00E51030E755E511251225132514FF651553
:101A1B007042AC131202EEE4FBFA79207841120209
:101A2B0047C004C005C006C007AC12E41202EED0DA
:101A3B0003D002D001D00012004DAB3EAA3FA9400B
:101A4B00120576AB41AA42A943E5141204DFE4F573
:0C1A5B00107F0122E4F5107FFF227F00C5
:011A6700225C
:100AF00063E80000000000000000000000000000AB
:100B000000000000000000000000000000000000E5
:100B100000000000000000000000000000000000D5
:100B200000000000000000000000000000000000C5
:100B300000000000000000000000000000000000B5
:100ED000000000000000000000000000014F0001C1
:020EE0005000C0
:0300430002190D92
:0B190D00C0E0C083C082C0D075D008CD
:10191800E4FFE59A30E064539AFEAF9BE551701CF2
:10192800E550D394E77480948340037550007400A5
:101938002550F582E43400F583EF8013E55020E765
:101948003A20E615BFAA0D75504090000074AAF021
:10195800055080275350BF8022E550540F2400F5CE
:1019680082E43400F583EFF00550E550540FFFBFD3
:0B1978000209435080751B00751A0225
:09198300D0D0D082D083D0E03234
:061FE10014F9120499FF3F
:0B1FE7008F9BE59A30E1FB539AFD222E
:101F28008B4A8A4B894CAF051DEF6011AB4A054CB3
:0E1F3800E54CAA4B7002054B121FE180E92216
:101F9300C2AF759A50759CFD438E1443B60143B589
:071FA3000175AF01D2AF226E
:101ECD008B388A39893AAB38AA39A93A1204996004
:0F1EDD000D053AE53A70020539121FE180E8223F
:10174E000D0A0041542B43574D4F44453D33004F36
:10175E004B0041542B525354007265616479004121
:10176E00542B43495041503D223139322E313638B7
:10177E002E342E31220041542B4349505354413DB7
:10178E00223139322E3136382E312E32303022007F
:10179E0041542B43575341503D224C574C222C223F
:1017AE003132333435363738222C312C3400415413
:1017BE002B43574A41503D224D4552435552595F96
:1017CE0041373841222C227A6C676D63753138228D
:1017DE000041542B4349504D55583D310041542B37
:1017EE004349505345525645523D312C38303836C8
:0117FE0000EA
:030EE200015100BB
:031FCF00121FD20C
:0E1FD20000007F557E0C7D9BDDFEDEFCDFFAFD
:011FE00022DE
:10000E00E4FEEEC39F500C007D0B7CBEDCFEDDFCDF
:03001E000E80EF62
:0100210022BC
:061F60008B388A39893A32
:101F66007B0085383E85393F853A400B7A007900FB
:031F760012188BB3
:011F79002245
:101C2000121ECD7BFF7A17794E121ECDE534453555
:101C300045336032E5374536602CE537153770029D
:101C4000153614453660167F0112000EAB33AA34E8
:101C5000A935121F60EA494B60E0E4F550E53745CD
:091C60003670037F01227F00228F
:1014D600E4FCC2ACC2B27F6412000ED2B2121FCFBD
:1014E6007533FF75341775355D7536037537E87BCB
:1014F600FF7A177951121C207533FF75341775352D
:10150600677536137537887BFF7A177960121C204A
:101516007533FF75341775355D7536077537D07BAE
:10152600FF7A17796D121C20121FCF7533FF7534A1
:101536001775355D7536077537D07BFF7A17798451
:10154600121C20121FD2121FD27533FF7534177565
:10155600355D7536037537E87BFF7A17799E121C61
:1015660020121FD27533FF75341775355D75360336
:101576007537E87BFF7A1779BC121C20121FD275CB
:1015860033FF75341775355D7536037537E87BFFA0
:101596007A1779DF121C20121FD27533FF753417A4
:1015A60075355D7536037537E87BFF7A1779EB126B
:1015B6001C20AC07121FD2EC7005755101F550D2F4
:0115C600AC78
:0115C7002201
:1000460002038EE86480F8E933E83360110460F057
:10005600ED33EC337009E8FCE9FDEAFEEBFF220420
:1000660060DED3EB9FEA9EE99DE8C2E78CF0C2F71B
:1000760095F0400CE8CCF8E9CDF9EACEFAEBCFFBE7
:1000860012035985D0F05804700320D5B3E80470E4
:10009600075002B2D502039892D5EC0460F7E4CC7F
:1000A600C0E0C398F8603B94186008400DD0E0FBB0
:1000B600020370E4FBFAC9FC8028E830E406E4C9D0
:1000C600FBE4CAFCE830E305E4C9CACBFCE8540704
:1000D6006010F8C3E913F9EA13FAEB13FBEC13FC0F
:1000E600D8F130F52FC3E49CFCEF9BFFEE9AFEEDB2
:1000F60099FDD0E0FBEF4E4D4C701222DB0302035C
:1001060095EC2CFCEF33FFEE33FEED33FDED30E7DF
:10011600EB020370EF2BFFEE3AFEED39FDD0E0FB6C
:1001260050130BBB0003020398ED13FDEE13FEEF15
:0801360013FFEC13FC0203703F
:10013E00EC4D6011E8497017ED33EC3304600DE4BB
:10014E00FCFFFEFD22E933E8330470F802038E1241
:10015E00035958046009E4CC248150062850090242
:10016E000398284003020395C0E0EB4A7044B9801F
:10017E0006D0E0FB020384EF4E701CBD8008EBFF3F
:10018E00EAFEE9FD80EBE98DF0A4FEE5F002022720
:10019E00E9CDF9EAFEEBFFEF89F0A4FCE5F0CE899C
:1001AE00F0A42EFFE435F0CD89F0A42DFEE435F059
:1001BE008067EF4E7005BD80D780C3EF8BF0A4AC87
:1001CE00F0EE8BF0A42CFCE435F0F8EF8AF0A42CC2
:1001DE00E5F038FCE433CB8DF0A42CFCE5F03BF8D5
:1001EE00EE8AF0A42CFCE5F038F8E433CF89F0A4C5
:1001FE002CFCE5F038CF3400CE89F0A42FFFE5F0CB
:10020E003EFEE433C98DF0A42EFEE5F039CD8AF022
:10021E00A42FFFE5F03EFEE43DFD33D0E0FB50079A
:10022E000BBB000F020398EC2CFCEF33FFEE33FEFA
:06023E00ED33FD02037028
:10024400020398EC5D046005E85904700302038E10
:10025400120359580460F6EC4860F2EC7004FDFE99
:10026400FF22C860DB2481C85009C398600250068D
:100274000203959850CAF582E9294B4A7005AB826E
:1002840002038475F0007C1A7880C3EF9BEE9AED2C
:1002940099400DC3EF9BFFEE9AFEED99FDE842F005
:1002A400DC23ACF0D0E0FFD0E0FED0E0FDAB822058
:1002B400E7101BEB60BAEC2CFCEF33FFEE33FEEDE2
:1002C40033FD020370E803F830E705C0F075F00071
:1002D400EF2FFFEE33FEED33FD40B830E7C280AAC6
:1002E40075F020800E75F010800575F0087D007E95
:1002F400007F003392D530D503120568EC334010EB
:10030400EF33FFEE33FEED33FDEC33FCD5F0ED229D
:0E031400E5F0247EA2D513CC92E7CDCEFF22D9
:10032200EDD2E7CD33EC3392D524814006E4FFFED3
:10033200FDFC22FCE4CFCECDCC24E0501174FF8032
:10034200EDC3CC13CCCD13CDCE13CECF13CF0470CF
:07035200F030D5DE02056862
:10035900E9D2E7C933E833F892D5EDD2E7CD33ECEA
:0703690033FC5002B2D52263
:10037000EC30E7100FBF000C0EBE00080DBD0004EE
:100380000BEB6014A2D5EB13FCED92E7FD2274FF9A
:10039000FCFDFEFF22E480F8A2D574FF13FC7D80F3
:0303A000E480EF07
:10180B0002198CE493A3F8E493A34003F68001F24E
:10181B0008DFF48029E493A3F85407240CC8C333DE
:10182B00C4540F4420C8834004F456800146F6DFAD
:10183B00E4800B0102040810204080900AC4E47E6F
:10184B00019360BCA3FF543F30E509541FFEE493A2
:10185B00A360010ECF54C025E060A840B8E493A369
:10186B00FAE493A3F8E493A3C8C582C8CAC583CA94
:10187B00F0A3C8C582C8CAC583CADFE9DEE780BE4C
:010EE500000C
:1003A300E709F608DFFA8046E709F208DFFA803E3C
:1003B30088828C83E709F0A3DFFA8032E309F60829
:1003C300DFFA8078E309F208DFFA807088828C8391
:1003D300E309F0A3DFFA806489828A83E0A3F60845
:1003E300DFFA805889828A83E0A3F208DFFA804C1F
:1003F30080D280FA80C680D4806980F280338010F6
:1004030080A680EA809A80A880DA80E280CA80335E
:1004130089828A83ECFAE493A3C8C582C8CCC583D6
:10042300CCF0A3C8C582C8CCC583CCDFE9DEE780A6
:100433000D89828A83E493A3F608DFF9ECFAA9F025
:10044300EDFB2289828A83ECFAE0A3C8C582C8CC7B
:10045300C583CCF0A3C8C582C8CCC583CCDFEADE94
:10046300E880DB89828A83E493A3F208DFF980CCF6
:1004730088F0EF60010E4E60C388F0ED2402B404EF
:100483000050B9F582EB2402B4040050AF23234596
:0604930082239003F373C5
:10049900BB010689828A83E0225002E722BBFE0261
:0904A900E32289828A83E4932294
:1004B200BB010CE58229F582E5833AF583E02250FF
:1004C20006E92582F8E622BBFE06E92582F8E22249
:0D04D200E58229F582E5833AF583E4932263
:1004DF00BB010689828A83F0225002F722BBFE01FC
:0204EF00F322F6
:1004F100F8BB010DE58229F582E5833AF583E8F041
:10050100225006E92582C8F622BBFE05E92582C8EC
:02051100F222D4
:10051300BC000BBE0029EF8DF084FFADF022E4CCCC
:10052300F875F008EF2FFFEE33FEEC33FCEE9DEC95
:10053300984005FCEE9DFE0FD5F0E9E4CEFD22EDDB
:10054300F8F5F0EE8420D21CFEADF075F008EF2F25
:10055300FFED33FD4007985006D5F0F222C398FD16
:050563000FD5F0EA22B3
:0E056800C3E49FFFE49EFEE49DFDE49CFC22A4
:10057600BB010789828A8302059C5005E9F80205BA
:0A05860090BBFE05E9F80205A8226B
:10188B008B3B8A3C893DAB3EAA3FA9401204996031
:10189B0063AB3BAA3CA93D120499605F853E418531
:1018AB003F428540438B448A458946AB41AA42A9B6
:1018BB0043120499FF6023AB44AA45A9461204992D
:1018CB006F7017042543F543E43542F54274012547
:1018DB0046F546E43545F54580D1AB41AA42A943CF
:1018EB001204997002800D7401253DF53DE4353CE1
:1018FB00F53C809DAB3BAA3CA93D227B007A00794D
:02190B000022B8
:0C059000ECF608EDF608EEF608EFF62297
:0C059C00ECF0A3EDF0A3EEF0A3EFF022D2
:0C05A800ECF208EDF208EEF208EFF2228F
:00000001FF
