:03000000020BD719
:0C0BD700787FE4F6D8FD75816C020C1EDE
:100E9F00C291C290E9139287E9C313139286E913A3
:100EAF0013543F139285E9131313541F139284E9BC
:100EBF00C4540F139283E9C4135407139282E9C4E5
:100ECF0013135403139281E9C41313135401139290
:070EDF0080D2907F057E0028
:100EE600D3EF9400EE9400400F7DC77C01DCFEDD5D
:080EF600FAEF1F70EB1E80E80B
:010EFE0022D1
:1009C300E4FBC294D291D2907F01FE120EE6A2867E
:1009D300E43325E0FFE433FEA287E433FDEEFCEFCE
:1009E3004DFDA285E4FE337802C333CE33CED8F96E
:1009F300FFEE4CFCEF4DFDA284E4FE337803C333DA
:100A0300CE33CED8F9FFEE4CFCEF4DFDA283E43399
:100A1300C4F8540FC868FFE4C454F0484CFCEF4DCD
:100A2300FDA282E4FE337805C333CE33CED8F9FF7B
:100A3300EE4CFCEF4DFDA281E4FE337806C333CECA
:100A430033CED8F9FFEE4CFCEF4DFDA280E4FE332C
:100A53007807C333CE33CED8F9FFEE4CEF4D30E7F2
:100A63000F0BEBD3946450030209D1C2907F002291
:040A7300C2907F01AD
:010A7700225C
:02000300A9074B
:10000500E4FA1209C3EF700E7F01FE120EE60AEA4A
:0D001500D3946440ED22C294120E9FC2905D
:0100220022BB
:0211D300A9076A
:1011D500E4FA1209C3EF700E7F01FE120EE60AEA69
:0D11E500D3946440ED22D294120E9FC2906C
:0111F20022DA
:1012F600D2A6D2A77F301200037F0C1200037F0113
:03130600020003DF
:02118F00AE07A9
:10119100EE70047E808013BE01047E90800CBE023E
:1011A100047E888005BE03027E98EE2DFF020003B7
:10116C008B418A428943AB41AA42A943120499FF9D
:10117C0060101211D374012543F543E43542F54256
:02118C0080E4FD
:01118E00223E
:051370008E6A8F6B2264
:091360008F1E8E1D8D1C8C1B22BA
:100A7800D6F7BBFACEC2B6C83A00A1E600B4D3BBDB
:100A8800FACEC2B6C83A00C8D5C6DA3A0000CAB12A
:100A9800BCE43A003A00A1D4A1D4D6F7B2CBB5A5AC
:100AA800A1D4A1D400312EBCD2B5E700322EC9E8BA
:100AB800D6C300332EC6E4CBFB00A1D4A1D4BCD24C
:100AC800B5E7A1D4A1D40045313A4F464600453296
:100AD8003A4F46460045333A4F46460045343A4F6A
:100AE80046460045313A4F4E200045323A4F4E2097
:100AF8000045333A4F4E200045343A4F4E200065AA
:100B08006F72720D0A00C9E8D6C300C6E4CBFB00B9
:100B18006162636400000000000000001122334499
:010B28005577
:03101C00011F00B1
:100744007F01120003E4FDFF12118F7BFF7A0A7907
:100754007812116C7D07E4FF12118F7BFF7A0A79FE
:100764008212116CE4FD7F0112118F7BFF7A0A79EA
:100774008512116C7D077F0112118F7BFF7A0A7934
:100784008212116CE4FD7F0212118F7BFF7A0A79C9
:100794008F12116C7D037F0212118F7BFF7A0A790D
:1007A4009512116CE4FD7F0312118F7BFF7A0A7995
:1007B4009612116C7D037F0312118F7BFF7A0A79E5
:0407C4009512116C0D
:1007C80078337C007D007BFF7A0B791D7E007F07E4
:1007D800120473120B298F3A120EFF8F3BE4F53F78
:1007E800F53EF53DF53CF540E53AB40104751F01C9
:1007F800227D05E4FF12118FE53B75F00A84443031
:10080800FF1211D3E53B75F00A84E5F04430FF127E
:1008180011D37544007545007546407B007A007910
:100828003C120CEEEF6033AF3FAE3EAD3DAC3C1238
:1008380003228F3B7D057F0112118FE53B75F00A7E
:10084800844430FF1211D3E53B75F00A84E5F04487
:1008580030FF1211D3AF4012134E7B007A00793368
:100868001211227D037F0312118FE53575F00A847A
:100878004430FF1211D3E53575F00A84E5F04430B1
:10088800FF1211D37BFF7A0A799C12116CE534753B
:10089800F00A844430FF1211D3E53475F00A84E578
:1008A800F04430FF1211D37BFF7A0A799C12116C45
:1008B800E53375F00A844430FF1211D3E53375F03F
:0A08C8000A84E5F04430FF1211D35A
:0308D2000207C852
:1008D5007F01120003051FE4FDFF12118F7BFF7AD4
:1008E5000A799E12116CE4FD7F0112118F7BFF7A4C
:1008F5000A79AD12116CE4FD7F0212118F7BFF7A2C
:100905000A79B412116CE4FD7F0312118F7BFF7A13
:060915000A79BB12116C0F
:10091B00120B298F33E533B4020D051FE51F640558
:10092B007025751F028020E533B4030C151FE51FDE
:10093B00B40114751F04800FE533B40404E4F51FF0
:10094B0022E53364016070E51F24FD6025146040CF
:10095B00240270BC7D037F0312118F7F201211D3F1
:10096B007D037F0212118F7F201211D37D037F0134
:10097B00803A7D037F0112118F7F201211D37D03EB
:10098B007F0312118F7F201211D37D037F02801CF6
:10099B007D037F0112118F7F201211D37D037F0204
:1009AB0012118F7F201211D37D037F0312118F7FC2
:0709BB00111211D302091B08
:0109C2002212
:10058700E4F533F5347F011200037D01E4FF121116
:100597008F7BFF7A0A79C212116CE4FD7F01121179
:1005A7008F7BFF7A0A79CF12116CE4FD7F0212115B
:1005B7008F7BFF7A0A79D612116C7D047F011211A5
:1005C7008F7BFF7A0A79DD12116C7D047F0212118D
:0A05D7008F7BFF7A0A79E412116CA1
:1005E100E4F538F537753620753541120B298F3909
:1005F1007544007545007546347B007A00793512E3
:100601000CEEEF7003020693E53430E00FE4FD7F5A
:100611000112118F7BFF7A0A79EB800DE4FD7F01D6
:1006210012118F7BFF7A0A79CF12116CE53430E118
:100631000FE4FD7F0212118F7BFF7A0A79F2800DA0
:10064100E4FD7F0212118F7BFF7A0A79D612116CB9
:10065100E5347D047F0130E20B12118F7BFF7A0AB2
:1006610079F9800912118F7BFF7A0A79DD12116CF9
:10067100E5347D047F0230E30B12118F7BFF7A0B8F
:100681007900800912118F7BFF7A0A79E412116CCB
:1006910080097BFF7A0B79071211F3E539B4040461
:1006A100751F0122E5396402706A0533E533B4052B
:1006B10003753301E53324FE601D14602A1460398B
:1006C100240360030205E17D077F0212118F7F2061
:1006D1001211D37D03801E7D037F0112118F7F20B4
:1006E1001211D37D0380207D037F0212118F7F20A1
:1006F1001211D37D077F0180107D077F0112118FB9
:100701007F201211D37D077F0212118F7F111211E9
:10071100D30205E1E539640160030205E1E5331423
:1007210060030205E1E53430E0055334FE80034304
:10073100340185343E7F007E007D007C00120DDD9A
:030741000205E1CD
:0511B1007F01120003A4
:1011B600120B298F33E4FDFF12118F7BFF7A0B7917
:0C11C6000E12116CE533B404E7751F0134
:0111D20022FA
:051148007F011200030D
:10114D00120B298F33E533B40404751F0122E4FD1E
:0D115D00FF12118F7BFF7A0B791312116CBA
:02116A0080E122
:0F0D6F0012126D1213391212F61210FB1210D35A
:100D7E007521FF75220B75231878247C007D007B6E
:100D8E00FF7A0B79247E007F05120473E4F52CF5AF
:100D9E002B752A94752941F530F52FF52EF52D7505
:100DAE003101F532E51F146012146014146016142C
:100DBE006018240470BA12074480B51208D580B0AA
:0F0DCE0012058780AB1211B180A612114880A1C7
:040026007F057E00D4
:10002A00EF1FAA0670011E4A600BE4FDEDC3940C93
:05003A0050EE0D80F7FF
:01003F00229E
:02123100A9070B
:10123300E4FBC2B7E91392B7120026D2B7E9C3138E
:0C124300F90BBB08ED7F057E0002002ABD
:1012A900E4FBC2B7ECC313FCD2B730B703430480E5
:0912B9001200260BBB08EBAF0488
:0112C2002209
:1010FB00C200D2B77F0C7E0012002AC2B77F507E8F
:10110B000012002AD2B77F0A7E0012002AA2B792E1
:06111B0000120026A200F4
:0111210022AB
:100EFF00E4F9FFFE1210FB7FCC1212317F44121265
:100F0F00317FC87E0012002A1210FB7FCC121231E3
:100F1F007FBE1212311212A9A9071212A9EFC454DF
:0A0F2F00F0FEE9C4540F4206AF06BD
:010F39002295
:0713690055331027040315A2
:06132A0012133012133013
:0913300000000000000000002292
:1012DD00E4FEC2A3EF1392A4121330EFC313FFD297
:0812ED00A31213300EBE08EA43
:0112F50022D6
:10124F00E4FFFEC2A3EEC313FE12133030A4034318
:0D125F000680D2A31213300FBF08E8AF06BF
:01126C00225F
:1012C300C2A500C2A3121330D2A51212DDAF0512BC
:0A12D30012DDC2A512132A02133027
:06107F00ED25E02481FFD5
:10108500E4FEC2A50000C2A3121330D2A5000012CF
:1010950012DD12124FAE07C2A50000D2A312132A09
:0310A500121330F3
:0110A8002225
:041052008E338F3416
:10105600E4FCFD7F8E1212C3EC25E02480FFE5340C
:101066002CF582E43533F583E493FD1212C30CBCF0
:0910760007E67D807F8E0212C3A3
:061122008B418A42894363
:10112800E4FDC2AF12107FAB41AA42A9438D82757C
:0F1138008300EF1204C412107F0DBD07E7D2AF82
:011147002285
:1010D300E4FCC2A5C2A3FD7F8E1212C37DA67F903E
:1010E3001212C37D807F8E1212C37F51121085AC02
:0810F300077E137F6902105211
:0C101F00015A00015B00015C00015D0152
:100B2900E4D2B3D2B4D2B5D2B6A2B633F9A2B5E4FF
:100B390033FFA2B4E433FEA2B3E433FDEE25E0258E
:100B4900E0FEED33333354F84EFEEF25E04E49FF16
:100B5900640F600DE55B7009E55DB40104055A8019
:100B690003E4F55AE55A640A702EAC07F55AE55DB7
:100B790064017024F55D755B01EC24F9601424FCB3
:100B8900600D24FE600614700C7F01227F02227F13
:100B990003227F04227F0022EF540FFEBE0F09E5D6
:100BA9005BB40104055C800DE55BB40108EE640FDC
:100BB9006003E4F55CE55CB40A11E4F55CE55BB45B
:0D0BC9000109BE0F06755D01E4F55B7F00BC
:010BD60022FC
:0A135600000000000000000000008D
:10102B004A0000000000000000000000000160000A
:06103B00015F00015E00F0
:03002300020F3A8F
:0D0F3A00C0E0C083C082C0D075D000C007E9
:100F4700754F0030981DC298AF60056074002FF58B
:100F570082E43400F583E599F0E560C3940A400321
:030F6700756000B2
:0B0F6A00D007D0D0D082D083D0E0327E
:0613480014F9120499FFE4
:08134E008F993099FDC299222C
:1010A9008B448A458946AF051DEF601DAB44054653
:1010B900E546AA45700205451213480000000000E4
:0A10C9000000000000000080DD229E
:1011F3008B3A8A3B893CAB3AAA3BA93C12049960DF
:0F1203000D053CE53C7002053B12134880E822C4
:060F75008B4C8A4D894EF1
:100F7B00E4FFE560C39D4027EFC39D501C74002F19
:100F8B00F582E43400F583E0AB4CAA4DA94E8F8279
:100F9B007583001204C40F80DFE4F5607F01227FAC
:010FAB000045
:010FAC002222
:10126D00759850758920758840438E40758BB8757B
:0E127D008DB8758780C298C299D2ACD2AF22CC
:080DDD008F3D8E3C8D3B8C3AEA
:100DE500783F7C007D007BFF7A1379567E007F0576
:100DF500120473753FAAAF3DAE3CAD3BAC3A12034E
:100E0500228F40E4FFFE7D207C41AB3DAA3CA93BFF
:100E1500A83A12013E1203227C007D0A1204E68DD7
:100E250041853E42E53F254025412542F5437B006E
:090E35007A00793F7D050210A945
:060CEE008B418A4289439C
:100CF40078477C007D007BFF7A13795B7E007F055B
:100D04001204737B007A0079477D05120F75EF603A
:100D140057E54764AA704EE54725482549254A65A5
:100D24004B703FAC491202EEE4FBFA792078411291
:100D34000247C004C005C006C007AC48E41202EE76
:100D4400D003D002D001D00012004DAB41AA42A979
:100D540043120549AB44AA45A946E54A1204B27FA9
:0A0D640001227F00227F00227F00A1
:010D6E002262
:10131A006162630D0A000000000000000000000086
:101041004A000A00000000000000000000016C00DE
:03004300020FE5C4
:100FE500C0E0C083C082C0D075D008E59A30E01E4D
:100FF500539AFEAF6C056C740A2FF582E43400F544
:1010050083E59BF0E56CC3940A4003756C00D0D072
:07101500D082D083D0E0324D
:0613090014F9120499FF23
:0B130F008F9BE59A30E1FB539AFD2212
:10128B008B618A628963AF051DEF6011AB610563EA
:0E129B00E563AA627002056212130980E9225F
:060FAD008B648A65896671
:100FB300E4FFE56CC39D4027EFC39D501C740A2FCB
:100FC300F582E43400F583E0AB64AA65A9668F82F9
:100FD3007583001204C40F80DFE4F56C7F01227F68
:010FE300000D
:010FE40022EA
:0F133900759A50759CFD438E1475AF01D2AF228B
:080E3E008F538E528D518C5030
:100E460078557C007D007BFF7A1379207E007F0534
:100E56001204737555AAAF53AE52AD51AC5012037E
:100E6600228F56E4FFFE7D207C41AB53AA52A95146
:100E7600A85012013E1203227C007D0A1204E68D60
:100E860057855458E555255625572558F5597B005D
:090E96007A0079557D0502128BEA
:101212008B678A688969AB67AA68A96912049960B1
:0F1222000D0569E5697002056812130980E8225D
:060C63008B108A118912BA
:100C690078167C007D007BFF7A1379257E007F054D
:100C79001204737B007A0079167D05120FADEF60BF
:100C890061E51664AA7058E5162517251825196512
:100C99001A70497BFF7A13791A121212AC18E412EE
:100CA90002EEE4FBFA79207841120247C004C0053C
:100CB900C006C007AC17E41202EED003D002D0017F
:100CC900D00012004DAB10AA11A912120549AB139D
:100CD900AA14A915E5191204B27F01227F00227F07
:040CE90000227F0066
:010CED0022E4
:1000460002038EE86480F8E933E83360110460F057
:10005600ED33EC337009E8FCE9FDEAFEEBFF220420
:1000660060DED3EB9FEA9EE99DE8C2E78CF0C2F71B
:1000760095F0400CE8CCF8E9CDF9EACEFAEBCFFBE7
:1000860012035985D0F05804700320D5B3E80470E4
:10009600075002B2D502039892D5EC0460F7E4CC7F
:1000A600C0E0C398F8603B94186008400DD0E0FBB0
:1000B600020370E4FBFAC9FC8028E830E406E4C9D0
:1000C600FBE4CAFCE830E305E4C9CACBFCE8540704
:1000D6006010F8C3E913F9EA13FAEB13FBEC13FC0F
:1000E600D8F130F52FC3E49CFCEF9BFFEE9AFEEDB2
:1000F60099FDD0E0FBEF4E4D4C701222DB0302035C
:1001060095EC2CFCEF33FFEE33FEED33FDED30E7DF
:10011600EB020370EF2BFFEE3AFEED39FDD0E0FB6C
:1001260050130BBB0003020398ED13FDEE13FEEF15
:0801360013FFEC13FC0203703F
:10013E00EC4D6011E8497017ED33EC3304600DE4BB
:10014E00FCFFFEFD22E933E8330470F802038E1241
:10015E00035958046009E4CC248150062850090242
:10016E000398284003020395C0E0EB4A7044B9801F
:10017E0006D0E0FB020384EF4E701CBD8008EBFF3F
:10018E00EAFEE9FD80EBE98DF0A4FEE5F002022720
:10019E00E9CDF9EAFEEBFFEF89F0A4FCE5F0CE899C
:1001AE00F0A42EFFE435F0CD89F0A42DFEE435F059
:1001BE008067EF4E7005BD80D780C3EF8BF0A4AC87
:1001CE00F0EE8BF0A42CFCE435F0F8EF8AF0A42CC2
:1001DE00E5F038FCE433CB8DF0A42CFCE5F03BF8D5
:1001EE00EE8AF0A42CFCE5F038F8E433CF89F0A4C5
:1001FE002CFCE5F038CF3400CE89F0A42FFFE5F0CB
:10020E003EFEE433C98DF0A42EFEE5F039CD8AF022
:10021E00A42FFFE5F03EFEE43DFD33D0E0FB50079A
:10022E000BBB000F020398EC2CFCEF33FFEE33FEFA
:06023E00ED33FD02037028
:10024400020398EC5D046005E85904700302038E10
:10025400120359580460F6EC4860F2EC7004FDFE99
:10026400FF22C860DB2481C85009C398600250068D
:100274000203959850CAF582E9294B4A7005AB826E
:1002840002038475F0007C1A7880C3EF9BEE9AED2C
:1002940099400DC3EF9BFFEE9AFEED99FDE842F005
:1002A400DC23ACF0D0E0FFD0E0FED0E0FDAB822058
:1002B400E7101BEB60BAEC2CFCEF33FFEE33FEEDE2
:1002C40033FD020370E803F830E705C0F075F00071
:1002D400EF2FFFEE33FEED33FD40B830E7C280AAC6
:1002E40075F020800E75F010800575F0087D007E95
:1002F400007F003392D530D50312053BEC33401018
:10030400EF33FFEE33FEED33FDEC33FCD5F0ED229D
:0E031400E5F0247EA2D513CC92E7CDCEFF22D9
:10032200EDD2E7CD33EC3392D524814006E4FFFED3
:10033200FDFC22FCE4CFCECDCC24E0501174FF8032
:10034200EDC3CC13CCCD13CDCE13CECF13CF0470CF
:07035200F030D5DE02053B8F
:10035900E9D2E7C933E833F892D5EDD2E7CD33ECEA
:0703690033FC5002B2D52263
:10037000EC30E7100FBF000C0EBE00080DBD0004EE
:100380000BEB6014A2D5EB13FCED92E7FD2274FF9A
:10039000FCFDFEFF22E480F8A2D574FF13FC7D80F3
:0303A000E480EF07
:100BE300020D6FE493A3F8E493A34003F68001F2AC
:100BF30008DFF48029E493A3F85407240CC8C33313
:100C0300C4540F4420C8834004F456800146F6DFE1
:100C1300E4800B010204081020408090101CE47E45
:100C2300019360BCA3FF543F30E509541FFEE493D6
:100C3300A360010ECF54C025E060A840B8E493A39D
:100C4300FAE493A3F8E493A3C8C582C8CAC583CAC8
:100C5300F0A3C8C582C8CAC583CADFE9DEE780BE80
:01105100009E
:1003A300E709F608DFFA8046E709F208DFFA803E3C
:1003B30088828C83E709F0A3DFFA8032E309F60829
:1003C300DFFA8078E309F208DFFA807088828C8391
:1003D300E309F0A3DFFA806489828A83E0A3F60845
:1003E300DFFA805889828A83E0A3F208DFFA804C1F
:1003F30080D280FA80C680D4806980F280338010F6
:1004030080A680EA809A80A880DA80E280CA80335E
:1004130089828A83ECFAE493A3C8C582C8CCC583D6
:10042300CCF0A3C8C582C8CCC583CCDFE9DEE780A6
:100433000D89828A83E493A3F608DFF9ECFAA9F025
:10044300EDFB2289828A83ECFAE0A3C8C582C8CC7B
:10045300C583CCF0A3C8C582C8CCC583CCDFEADE94
:10046300E880DB89828A83E493A3F208DFF980CCF6
:1004730088F0EF60010E4E60C388F0ED2402B404EF
:100483000050B9F582EB2402B4040050AF23234596
:0604930082239003F373C5
:10049900BB010689828A83E0225002E722BBFE0261
:0904A900E32289828A83E4932294
:1004B200BB010689828A83F0225002F722BBFE0129
:0204C200F32223
:1004C400F8BB010DE58229F582E5833AF583E8F06E
:1004D400225006E92582C8F622BBFE05E92582C81A
:0204E400F22202
:1004E600BC000BBE0029EF8DF084FFADF022E4CCFA
:1004F600F875F008EF2FFFEE33FEEC33FCEE9DECC3
:10050600984005FCEE9DFE0FD5F0E9E4CEFD22ED08
:10051600F8F5F0EE8420D21CFEADF075F008EF2F52
:10052600FFED33FD4007985006D5F0F222C398FD43
:050536000FD5F0EA22E0
:0E053B00C3E49FFFE49EFEE49DFDE49CFC22D1
:10054900BB010789828A8302056F5005E9F8020514
:0A05590063BBFE05E9F802057B22F2
:0C056300ECF608EDF608EEF608EFF622C4
:0C056F00ECF0A3EDF0A3EEF0A3EFF022FF
:0C057B00ECF208EDF208EEF208EFF222BC
:00000001FF
