:0300000002129851
:0C129800787FE4F6D8FD75815C0212DF5F
:1015E100C291C290E9139287E9C313139286E9135A
:1015F10013543F139285E9131313541F139284E973
:10160100C4540F139283E9C4135407139282E9C49B
:1016110013135403139281E9C41313135401139246
:0716210080D2907F057E00DE
:10162800D3EF9400EE9400400F7DC77C01DCFEDD13
:08163800FAEF1F70EB1E80E8C1
:011640002287
:10109400E4FBC294D291D2907F01FE121628A2865C
:1010A400E43325E0FFE433FEA287E433FDEEFCEFF6
:1010B4004DFDA285E4FE337802C333CE33CED8F996
:1010C400FFEE4CFCEF4DFDA284E4FE337803C33302
:1010D400CE33CED8F9FFEE4CFCEF4DFDA283E433C2
:1010E400C4F8540FC868FFE4C454F0484CFCEF4DF6
:1010F400FDA282E4FE337805C333CE33CED8F9FFA4
:10110400EE4CFCEF4DFDA281E4FE337806C333CEF2
:1011140033CED8F9FFEE4CFCEF4DFDA280E4FE3354
:101124007807C333CE33CED8F9FFEE4CEF4D30E71A
:101134000F0BEBD3946450030210A2C2907F0022E1
:04114400C2907F01D5
:011148002284
:02197500A907C0
:10197700E4FA121094EF700E7F01FE1216280AEA9D
:0D198700D3946440ED22C2941215E1C29089
:011994002230
:02199500A907A0
:10199700E4FA121094EF700E7F01FE1216280AEA7D
:0D19A700D3946440ED22D2941215E1C29059
:0119B4002210
:101AD000D2A6D2A77F301219757F0C1219757F011B
:031AE00002197573
:02193100AE07FF
:10193300EE70047E808013BE01047E90800CBE0294
:10194300047E888005BE03027E98EE2DFF02197582
:10190E008B418A428943AB41AA42A943120499FFF3
:10191E00601012199574012543F543E43542F542E2
:02192E0080E453
:011930002294
:051B3B008E588F5922B5
:091B32008F1B8E1A8D198C1822EC
:100FAC00D6F7BBFACEC2B6C83A00A1E600B4D3BBA2
:100FBC00FACEC2B6C83A00C8D5C6DA3A0000CAB1F1
:100FCC00BCE43A002D003A00A1D4A1D4D6F7B2CBA0
:100FDC00B5A5A1D4A1D400312EBCD2B5E700322ED8
:100FEC00C9E8D6C300332EC6E4CBFB00A1D4A1D4F0
:100FFC00BCD2B5E7A1D4A1D40045313A4F46460046
:10100C0045323A4F46460045333A4F464600453442
:10101C003A4F46460045313A4F4E200045323A4F42
:10102C004E200045333A4F4E200045343A4F4E2067
:10103C0000A1D4A1D4C9E8D6C3A1D4A1D400312E27
:10104C00CAB1BCE400322ECEC2B6C800C6E4CBFB9B
:10105C0000A1D4CAB1BCE4C8D5C6DAC9E8D6C3A1CC
:10106C00D400C8D5C6DA202000CAB1BCE4202000C8
:10107C0061626364000000000000000000000000DA
:08108C0000000011223344555D
:0C172A00011F00011C02C100021D000094
:100AC4007F01121975E4FDFF1219317BFF7A0F794A
:100AD400AC12190E7D07E4FF1219317BFF7A0F79EE
:100AE400B612190EE4FD7F011219317BFF7A0F79DA
:100AF400B912190E7D077F011219317BFF7A0F7924
:100B0400B612190EE4FD7F021219317BFF7A0F79B8
:100B1400C312190E7D037F021219317BFF7A0F79FC
:100B2400C912190EE4FD7F031219317BFF7A0F7984
:100B3400CA12190E7D037F031219317BFF7A0F79D4
:040B4400C912190EAB
:100B480078337C007D007BFF7A1079817E007F07F7
:100B58001204737F051211498F3A1217698F3BE40B
:100B6800F53FF53EF53DF53CF540E53AB401047531
:100B78001F01227D05E4FF121931E53B75F00A8457
:100B88004430FF121995E53B75F00A84E5F04430CE
:100B9800FF1219957544007545007546407B007A2B
:100BA80000793C12151DEF6401702EAF3FAE3EADCB
:100BB8003DAC3C1203228F3B7D057F01121931E5C4
:100BC8003B75F00A844430FF121995E53B75F00A2D
:100BD80084E5F04430FF1219957B007A00793312CE
:100BE80019537D037F02121931E539C4540F44307B
:100BF800FF121995E539540F4430FF1219957BFF00
:100C08007A0F79D012190EE537C4540F4430FF1209
:100C18001995E537540F4430FF1219957BFF7A0F69
:100C280079D012190EE536C4540F4430FF121995C5
:100C3800E536540F4430FF1219957D037F031219CE
:100C480031E535C4540F4430FF121995E535540F7A
:100C58004430FF1219957BFF7A0F79D212190EE5ED
:100C680034C4540F4430FF121995E534540F4430FE
:100C7800FF1219957BFF7A0F79D212190EE533C44A
:100C8800540F4430FF121995E533540F4430FF12C6
:100C98001995E55C7003020B48E55B20E703020B3E
:100CA80048900001E0F5457F007E007D707C411290
:050CB8001580E4F55B6E
:030CBD00020B48DF
:100EAE007F01121975051FE4FDFF1219317BFF7AC0
:100EBE000F79D412190EE4FD7F011219317BFF7ADE
:100ECE000F79E312190EE4FD7F021219317BFF7ABE
:100EDE000F79EA12190EE4FD7F031219317BFF7AA6
:060EEE000F79F112190E4C
:100EF4007F051211498F33E533B40213051F851F93
:100F04001CE51F64057031751F02851F1C8029E5CF
:100F140033B40312151F851F1CE51FB4011A751F76
:100F240004751C048012E533B40404E4F51F22E5BF
:100F340033B40104851C1F22E51C24FD60251460C4
:100F440040240270AB7D037F031219317F201219F4
:100F5400957D037F021219317F201219957D037F3D
:100F640001803A7D037F011219317F201219957D8A
:100F7400037F031219317F201219957D037F0280AC
:100F84001C7D037F011219317F201219957D037F87
:100F9400021219317F201219957D037F0312193132
:080FA4007F11121995020EF4F1
:100CC000E4F533F5347F011219757D01E4FF121943
:100CD000317BFF7A0F79F812190EE4FD7F011219AA
:100CE000317BFF7A10790512190EE4FD7F0212198B
:100CF000317BFF7A10790C12190E7D047F011219D5
:100D0000317BFF7A10791312190E7D047F021219BC
:0A0D1000317BFF7A10791A12190ED8
:100D1A00E4F538F5377536207535417F02121149E9
:100D2A008F397544007545007546347B007A007921
:100D3A003512151DEF64016003020DCEE53430E073
:100D4A000FE4FD7F011219317BFF7A107921800DA2
:100D5A00E4FD7F011219317BFF7A10790512190E11
:100D6A00E53430E10FE4FD7F021219317BFF7A107E
:100D7A007928800DE4FD7F021219317BFF7A107900
:100D8A000C12190EE5347D047F0130E20B12193181
:100D9A007BFF7A10792F80091219317BFF7A10793B
:100DAA001312190EE5347D047F0230E30B12193158
:100DBA007BFF7A10793680091219317BFF7A107914
:100DCA001A12190EE539B40404751F0122E53964B3
:100DDA0002706A0533E533B40503753301E533243C
:100DEA00FE601D14602A14603924036003020D1A80
:100DFA007D077F021219317F201219957D03801E0B
:100E0A007D037F011219317F201219957D038020FD
:100E1A007D037F021219317F201219957D077F0108
:100E2A0080107D077F011219317F201219957D07E5
:100E3A007F021219317F11121995020D1AE53964D0
:100E4A00016003020D1AE53324FE601C14602814A5
:100E5A00603424036003020D1AE53430E00553348C
:100E6A00FE8030433401802BE53430E1055334FDF4
:100E7A008003433402801CE53430E2055334FB809E
:100E8A0003433404800DE53430E3055334F780031B
:100E9A004334088534457F007E007D007C001215AE
:040EAA0080020D1A9B
:10164100E4F5337F011219757D01E4FF1219317B35
:10165100FF7A10793D12190EE4FD7F011219317BD9
:10166100FF7A10794A12190EE4FD7F021219317BBB
:08167100FF7A10795112190EE5
:101679007F051211498F34E534B40108E533700C44
:0C168900751F0522E534B404E7751F014D
:011695002232
:0518C4007F01121975FF
:1018C9007F051211498F33E533B40404751F0122D2
:0F18D900E4FDFF1219317BFF7A10795812190EB6
:0218E80080DF9F
:101AE3005389F0758ACD758CD4C28DD28CD2AFD286
:021AF300A92226
:03000B00021824B4
:04182400C0E0C0D090
:10182800C28D758ACD758CD4051EE51E7002051D06
:10183800B4F40DE51DB40108751D00751E00B20055
:05184800D0D0D0E03219
:1005B400E4F53378347C00FD7BFF7A107988FE7F84
:1005C400071204737F011219757B007A00793412C3
:1005D4001953E4FDFF1219317BFF7A10795D12196A
:1005E4000EE4FD7F011219317BFF7A10796E121926
:1005F4000EE4FD7F021219317BFF7A10797512190E
:100604000E7D037F01121931E53AC4540F4430FFC3
:10061400121995E53A540F4430FF1219957BFF7A6D
:100624000F79D012190EE538C4540F4430FF121953
:1006340095E538540F4430FF1219957BFF7A0F79F2
:10064400D012190EE537C4540F4430FF121995E542
:1006540037540F4430FF1219957D037F021219316C
:10066400E536C4540F4430FF121995E536540F444F
:1006740030FF1219957BFF7A0F79D212190EE535E6
:10068400C4540F4430FF121995E535540F4430FF1C
:100694001219957BFF7A0F79D212190EE534C454DE
:1006A4000F4430FF121995E534540F4430FF1219EA
:0406B40095121AE39E
:1006B8007F051211498F3BE533B40C004003020853
:1006C800439006D0F82828730206F40207050207AB
:1006D8002702074C02075E0207710207930207A56B
:1006E8000207C50207EB0207FE0208127D037F011D
:1006F8003000030207F2121931E53A80437D037F87
:1007080001300008121931E53A02081E121931E5C4
:100718003AC4540F4430FF121995E53A02083B7D5C
:10072800047F0130000C1219317BFF7A0F79D00257
:1007380007D51219317BFF7A0F79D012190EE538D7
:10074800C402083B7D057F013000030207F212193D
:1007580031E53802083B7D067F013000030207F2CD
:10076800121931E537C402083B7D067F01300008C5
:10077800121931E53702081E121931E537C4540F32
:100788004430FF121995E53702083B7D037F02309C
:1007980000028056121931E536C402083B7D037FFA
:1007A80002300007121931E536806B121931E5362F
:1007B800C4540F4430FF121995E53680767D047FC6
:1007C8000230000E1219317BFF7A0F79D212190EFE
:1007D800804D1219317BFF7A0F79D212190EE53547
:1007E800C480507D057F0230000512193180301217
:1007F8001931E535803D7D067F023000051219313B
:10080800801D121931E534C480297D067F0230002D
:1008180012121931E534C4540F4430FF1219957F70
:10082800208015121931E534C4540F4430FF1219D1
:1008380095E534540F4430FF121995E53B64036085
:10084800030209060533E533B40C03E4F5337D03ED
:100858007F01121931E53AC4540F4430FF1219953B
:10086800E53A540F4430FF1219957BFF7A0F79D07F
:1008780012190EE538C4540F4430FF121995E538A3
:10088800540F4430FF1219957BFF7A0F79D0121953
:100898000EE537C4540F4430FF121995E537540F4D
:1008A8004430FF1219957D037F02121931E536C4D1
:1008B800540F4430FF121995E536540F4430FF1297
:1008C80019957BFF7A0F79D212190EE535C4540FAA
:1008D8004430FF121995E535540F4430FF1219952D
:1008E8007BFF7A0F79D212190EE534C4540F4430C5
:1008F800FF121995E534540F4430FF121995E53B62
:1009080064016003020AABE533B40C004003020A39
:10091800AB900920F82828730209440209660209E5
:10092800830209A80209C50209E7020A04020A2685
:10093800020A3F020A5D020A76020A94E53AC454A2
:100948000F04C454F0FFE53A540F4FF53AC4540F5E
:10095800D394095003020AAB533A0F020AABE53AA3
:10096800540F04FFE53A54F04FF53A540FD3940965
:100978005003020AAB533AF0020AABE538C4540FED
:1009880004C454F0FFE538540F4FF538C4540FD35E
:1009980094095003020AABE53A540FF538020AAB42
:1009A800E538540F04FFE53854F04FF538540FD3A9
:1009B80094095003020AAB5338F0020AABE537C476
:1009C800540F04C454F0FFE537540F4FF537C4549F
:1009D8000FD394095003020AAB53370F020AABE551
:1009E80037540F04FFE53754F04FF537540FD394BD
:1009F800095003020AAB5337F0020AABE536C45478
:100A08000F04C454F0FFE536540F4FF536C4540FA5
:100A1800D394025003020AAB53360F020AABE536F1
:100A2800540F04FFE53654F04FF536540FD39409AC
:100A380040715336F0806CE535C4540F04C454F04B
:100A4800FFE535540F4FF535C4540FD39405405383
:100A580053350F804EE535540F04FFE53554F04FFC
:100A6800F535540FD39409403A5335F08035E534C1
:100A7800C4540F04C454F0FFE534540F4FF534C484
:100A8800540FD39405401C53340F8017E534540F8A
:100A980004FFE53454F04FF534540FD39409400360
:100AA8005334F0E53B640460030206B8751F01FB8C
:0B0AB8007A0079341217A4C28CC2A986
:010AC3002210
:10142600E4F5957596FF1218EA121AB9121AD01237
:08143600189D1218751211F93E
:10143E007521FF75221075237C78247C007D007B3E
:10144E00FF7A10798F7E007F05120473E4F52CF578
:10145E002B752A94752941F530F52FF52EF52D753E
:10146E003101F532E51F146015146017146019145C
:10147E00601B14601D240570B7120AC480B2120ED0
:10148E00AE80AD120CC080A812164180A31218C4F3
:07149E00809E1205B4809945
:040026007F057E00D4
:10002A00EF1FAA0670011E4A600BE4FDEDC3940C93
:05003A0050EE0D80F7FF
:01003F00229E
:021A1200A90722
:101A1400E4FBC2B7E91392B7120026D2B7E9C313A5
:0C1A2400F90BBB08ED7F057E0002002AD4
:101A6C00E4FBC2B7ECC313FCD2B730B7034304801A
:091A7C001200260BBB08EBAF04BD
:011A8500223E
:10189D00C201D2B77F0C7E0012002AC2B77F507EE4
:1018AD000012002AD2B77F0A7E0012002AA2B79238
:0618BD0001120026A20149
:0118C3002202
:10176900E4F9FFFE12189D7FCC121A127F44121A57
:10177900127FC87E0012002A12189D7FCC121A12FD
:101789007FBE121A12121A6CA907121A6CEFC454EE
:0A179900F0FEE9C4540F4206AF064B
:0117A3002223
:070003005533102605051717
:061B0600121B0C121B0C67
:091B0C00000000000000000022AE
:101AA000E4FEC2A3EF1392A4121B0CEFC313FFD2E8
:081AB000A3121B0C0EBE08EA94
:011AB800220B
:101A3000E4FFFEC2A3EEC313FE121B0C30A403434B
:0D1A40000680D2A3121B0C0FBF08E8AF06F2
:011A4D002276
:0519B500E4FCFD7F8E43
:1019BA00C2A500C2A3121B0CD2A5121AA0AF05120F
:0A19CA001AA0C2A5121B06021B0C96
:0617D000ED25E02481FF7D
:1017D600E4FEC2A50000C2A3121B0CD2A500001293
:1017E6001AA0121A30AE07C2A50000D2A3121B0619
:0317F600121B0CB7
:0117F90022CD
:04184D008E338F3413
:101851001219B5EC25E02480FFE5342CF582E4353E
:1018610033F583E493FD1219BA0CBC07E67D807F42
:041871008E0219BA10
:0617A4008B3C8A3D893EEA
:1017AA001219B5EC25E02480FFAB3CAA3DA93E8C7A
:1017BA00827583001204B2FD1219BA0CBC07E47DCB
:0617CA00807F8E0219BAB7
:061953008B418A4289432A
:10195900E4FD1217D0AB41AA42A9438D82758300D9
:0B196900EF1204F11217D00DBD07E7CC
:011974002250
:10187500E4FCC2A5C2A3FD7F8E1219BA7DA67F9096
:101885001219BA7D807F8E1219BA7F511217D6AC04
:08189500077E007F0302184DDD
:0C173600014E00014F0001500001510164
:10114900E4F541D2B3D2B4D2B5D2B6A2B633F541A1
:10115900A2B5E433F9A2B4E433FEA2B3E433FDEE5D
:1011690025E025E0FEED33333354F84EFEE925E062
:101179004E4541FE640F600DE54F7009E551B4011C
:1011890004054E8003E4F54EEF654E702EAC06F56E
:101199004EE55164017024F551754F01EC24F96055
:1011A9001424FC600D24FE600614700C7F01227F5C
:1011B90002227F03227F04227F0022EE540FFDBD0D
:1011C9000F09E54FB401040550800DE54FB401083E
:1011D900ED640F6003E4F550EFB55011E4F550E507
:0F11E9004FB40109BD0F06755101E4F54F7F00AA
:0111F80022D4
:051B40000000000000A0
:101742000512000000000001170001110001100045
:030023000216962C
:0B169600C0E0C0D075D000C000C0074D
:1016A100309834C298AF99E51120E72B20E612BF9C
:1016B100AA0A4311407512AA0511801B5311BF805C
:1016C10016E511540F2412F8A6070511E511540F60
:0716D100FFBF050343118078
:0916D800D007D000D0D0D0E032E0
:061B240014F9120499FF00
:081B2A008F993099FDC2992248
:1017FA008B4B8A4C894DAF051DEF601DAB4B054DD8
:10180A00E54DAA4C7002054C121B24000000000092
:0A181A000000000000000080DD2245
:1019D4008B528A538954AB52AA53A9541204996066
:0F19E4000D0554E55470020553121B2480E822B0
:1018EA00759850758920758840438E40758BB875F8
:1018FA008DB8758780C298C29953B7EF53B8EFD2A3
:04190A00ACD2AF228A
:081580008F448E438D428C4123
:1015880078467C007D007BFF7A1B79407E007F05D2
:101598001204737546AAAF44AE43AD42AC41120380
:1015A800228F47E4FFFE7D207C41AB44AA43A94239
:1015B800A84112013E1203227C007D0A1205138DF8
:1015C80048854549E546254725482549F54A7B008C
:0915D8007A0079467D050217FA3C
:06151D008B418A42894364
:10152300E51130E755E512251325142515FF65163A
:101533007042AC141202EEE4FBFA792078411202F5
:1015430047C004C005C006C007AC13E41202EED0C6
:1015530003D002D001D00012004DAB41AA42A943EF
:10156300120576AB44AA45A946E5151204DFE4F556
:0C157300117F0122E4F5117FFF227F00B0
:01157F002249
:101752004A000000000000000000000000015A00E2
:03176200015B0028
:030043000214A5FF
:0B14A500C0E0C083C082C0D075D0083A
:1014B000E4FFE59A30E05D539AFEAF9BE55C701B5C
:1014C0007400255BF582E43400F583EFF0055BE5FD
:1014D0005BD3940A403E755B008039E55B20E734BE
:1014E00020E615BFAA0D755B4090000074AAF005B8
:1014F0005B8021535BBF801CE55B540F2400F582A9
:10150000E43400F583EFF0055BE55B540FFFBF02A9
:0415100003435B80B6
:09151400D0D0D082D083D0E032A7
:061AF50014F9120499FF30
:0B1AFB008F9BE59A30E1FB539AFD221F
:101A4E008B558A568957AF051DEF6011AB5505575B
:0E1A5E00E557AA5670020556121AF580E922C5
:101AB900C2AF759A50759CFD438E1443B60143B568
:071AC9000175AF01D2AF224D
:1019F3008B3B8A3C893DAB3BAA3CA93D12049960D1
:0F1A03000D053DE53D7002053C121AF580E82205
:1013A6000D0A0041542B43574D4F44453D33004FE2
:1013B6004B0041542B5253540072656164790041CD
:1013C600542B43575341503D224C574C222C22312B
:1013D60032333435363738222C312C340041542BF5
:1013E60043574A41503D224D4552435552595F415C
:1013F600373841222C227A6C676D637531382200AA
:1014060041542B4349504D55583D310041542B43CF
:1014160049505345525645523D312C3830383600E6
:03176500015C0024
:0E1B150000007F557E0C7D9BDDFEDEFCDFFABE
:011B2300229F
:10000E00E4FEEEC39F500C007D0B7CBEDCFEDDFCDF
:03001E000E80EF62
:0100210022BC
:061A86008B3B8A3C893D08
:101A8C007B00853B41853C42853D430B7A007900C8
:031A9C00121324FE
:011A9F002224
:1016E1001219F37BFF7A1379A61219F3E5374538FE
:1016F10045366032E53A4539602CE53A153A7002D3
:10170100153914453960167F0112000EAB36AA3720
:10171100A938121A86EA494B60E0E4F55BE53A45DF
:091721003970037F01227F0022D0
:1011F900E4FFC2AC7536FF7537137538B575390319
:10120900753AE87BFF7A1379A91216E17536FF75ED
:1012190037137538BF753913753A887BFF7A137997
:10122900B81216E17536FF7537137538B575390378
:10123900753AE87BFF7A1379C51216E17536FF75A1
:1012490037137538B5753903753AE87BFF7A137921
:10125900E31216E17536FF7537137538B57539031D
:10126900753AE87BFF7A1479061216E17536FF752F
:1012790037137538B5753903753AE87BFF7A1479F0
:0E128900121216E1EF7005755C01F55BD2AC38
:011297002234
:1000460002038EE86480F8E933E83360110460F057
:10005600ED33EC337009E8FCE9FDEAFEEBFF220420
:1000660060DED3EB9FEA9EE99DE8C2E78CF0C2F71B
:1000760095F0400CE8CCF8E9CDF9EACEFAEBCFFBE7
:1000860012035985D0F05804700320D5B3E80470E4
:10009600075002B2D502039892D5EC0460F7E4CC7F
:1000A600C0E0C398F8603B94186008400DD0E0FBB0
:1000B600020370E4FBFAC9FC8028E830E406E4C9D0
:1000C600FBE4CAFCE830E305E4C9CACBFCE8540704
:1000D6006010F8C3E913F9EA13FAEB13FBEC13FC0F
:1000E600D8F130F52FC3E49CFCEF9BFFEE9AFEEDB2
:1000F60099FDD0E0FBEF4E4D4C701222DB0302035C
:1001060095EC2CFCEF33FFEE33FEED33FDED30E7DF
:10011600EB020370EF2BFFEE3AFEED39FDD0E0FB6C
:1001260050130BBB0003020398ED13FDEE13FEEF15
:0801360013FFEC13FC0203703F
:10013E00EC4D6011E8497017ED33EC3304600DE4BB
:10014E00FCFFFEFD22E933E8330470F802038E1241
:10015E00035958046009E4CC248150062850090242
:10016E000398284003020395C0E0EB4A7044B9801F
:10017E0006D0E0FB020384EF4E701CBD8008EBFF3F
:10018E00EAFEE9FD80EBE98DF0A4FEE5F002022720
:10019E00E9CDF9EAFEEBFFEF89F0A4FCE5F0CE899C
:1001AE00F0A42EFFE435F0CD89F0A42DFEE435F059
:1001BE008067EF4E7005BD80D780C3EF8BF0A4AC87
:1001CE00F0EE8BF0A42CFCE435F0F8EF8AF0A42CC2
:1001DE00E5F038FCE433CB8DF0A42CFCE5F03BF8D5
:1001EE00EE8AF0A42CFCE5F038F8E433CF89F0A4C5
:1001FE002CFCE5F038CF3400CE89F0A42FFFE5F0CB
:10020E003EFEE433C98DF0A42EFEE5F039CD8AF022
:10021E00A42FFFE5F03EFEE43DFD33D0E0FB50079A
:10022E000BBB000F020398EC2CFCEF33FFEE33FEFA
:06023E00ED33FD02037028
:10024400020398EC5D046005E85904700302038E10
:10025400120359580460F6EC4860F2EC7004FDFE99
:10026400FF22C860DB2481C85009C398600250068D
:100274000203959850CAF582E9294B4A7005AB826E
:1002840002038475F0007C1A7880C3EF9BEE9AED2C
:1002940099400DC3EF9BFFEE9AFEED99FDE842F005
:1002A400DC23ACF0D0E0FFD0E0FED0E0FDAB822058
:1002B400E7101BEB60BAEC2CFCEF33FFEE33FEEDE2
:1002C40033FD020370E803F830E705C0F075F00071
:1002D400EF2FFFEE33FEED33FD40B830E7C280AAC6
:1002E40075F020800E75F010800575F0087D007E95
:1002F400007F003392D530D503120568EC334010EB
:10030400EF33FFEE33FEED33FDEC33FCD5F0ED229D
:0E031400E5F0247EA2D513CC92E7CDCEFF22D9
:10032200EDD2E7CD33EC3392D524814006E4FFFED3
:10033200FDFC22FCE4CFCECDCC24E0501174FF8032
:10034200EDC3CC13CCCD13CDCE13CECF13CF0470CF
:07035200F030D5DE02056862
:10035900E9D2E7C933E833F892D5EDD2E7CD33ECEA
:0703690033FC5002B2D52263
:10037000EC30E7100FBF000C0EBE00080DBD0004EE
:100380000BEB6014A2D5EB13FCED92E7FD2274FF9A
:10039000FCFDFEFF22E480F8A2D574FF13FC7D80F3
:0303A000E480EF07
:1012A400021426E493A3F8E493A34003F68001F226
:1012B40008DFF48029E493A3F85407240CC8C3334B
:1012C400C4540F4420C8834004F456800146F6DF1A
:1012D400E4800B010204081020408090172AE47E69
:1012E400019360BCA3FF543F30E509541FFEE4930F
:1012F400A360010ECF54C025E060A840B8E493A3D6
:10130400FAE493A3F8E493A3C8C582C8CAC583CA00
:10131400F0A3C8C582C8CAC583CADFE9DEE780BEB8
:011768000080
:1003A300E709F608DFFA8046E709F208DFFA803E3C
:1003B30088828C83E709F0A3DFFA8032E309F60829
:1003C300DFFA8078E309F208DFFA807088828C8391
:1003D300E309F0A3DFFA806489828A83E0A3F60845
:1003E300DFFA805889828A83E0A3F208DFFA804C1F
:1003F30080D280FA80C680D4806980F280338010F6
:1004030080A680EA809A80A880DA80E280CA80335E
:1004130089828A83ECFAE493A3C8C582C8CCC583D6
:10042300CCF0A3C8C582C8CCC583CCDFE9DEE780A6
:100433000D89828A83E493A3F608DFF9ECFAA9F025
:10044300EDFB2289828A83ECFAE0A3C8C582C8CC7B
:10045300C583CCF0A3C8C582C8CCC583CCDFEADE94
:10046300E880DB89828A83E493A3F208DFF980CCF6
:1004730088F0EF60010E4E60C388F0ED2402B404EF
:100483000050B9F582EB2402B4040050AF23234596
:0604930082239003F373C5
:10049900BB010689828A83E0225002E722BBFE0261
:0904A900E32289828A83E4932294
:1004B200BB010CE58229F582E5833AF583E02250FF
:1004C20006E92582F8E622BBFE06E92582F8E22249
:0D04D200E58229F582E5833AF583E4932263
:1004DF00BB010689828A83F0225002F722BBFE01FC
:0204EF00F322F6
:1004F100F8BB010DE58229F582E5833AF583E8F041
:10050100225006E92582C8F622BBFE05E92582C8EC
:02051100F222D4
:10051300BC000BBE0029EF8DF084FFADF022E4CCCC
:10052300F875F008EF2FFFEE33FEEC33FCEE9DEC95
:10053300984005FCEE9DFE0FD5F0E9E4CEFD22EDDB
:10054300F8F5F0EE8420D21CFEADF075F008EF2F25
:10055300FFED33FD4007985006D5F0F222C398FD16
:050563000FD5F0EA22B3
:0E056800C3E49FFFE49EFEE49DFDE49CFC22A4
:10057600BB010789828A8302059C5005E9F80205BA
:0A05860090BBFE05E9F80205A8226B
:101324008B3E8A3F8940AB41AA42A943120499608B
:1013340063AB3EAA3FA940120499605F854144858E
:1013440042458543468B478A488949AB44AA45A907
:1013540046120499FF6023AB47AA48A9491204998D
:101364006F7017042546F546E43545F545740125A7
:1013740049F549E43548F54880D1AB44AA45A94626
:101384001204997002800D74012540F540E4353F44
:10139400F53F809DAB3EAA3FA940227B007A0079AD
:0213A400002225
:0C059000ECF608EDF608EEF608EFF62297
:0C059C00ECF0A3EDF0A3EEF0A3EFF022D2
:0C05A800ECF208EDF208EEF208EFF2228F
:00000001FF
