:030000000205678F
:0C056700787FE4F6D8FD75812E0205AE09
:0C07C0007F057E347DC3DDFEDEFCDFFA29
:0107CC00220A
:10074E00120003E4FFFE12079C7D08E4FFFE120771
:01075E008614
:0E075F00E4FFFE12076F8F2E1207EE1207C086
:02076D0080F01A
:0A07E400000000000000000000000B
:0F07B0000A1300000000000000000000011D00FF
:0300230002072BA6
:10072B00C0E0C0D075D000C000C00730980CC29894
:10073B00AF1D051D74132FF8A699D007D000D0D08C
:03074B00D0E032C9
:0807EE008F993099FDC2992298
:0907DA00E4FF3098FDAF99C298CC
:0107E30022F3
:100707008B288A29892AAF051DEF6017AB28052A90
:10071700E52AAA297002052914F9120479FF12079C
:04072700EE80E3225B
:0606D5008B2B8A2C892DFD
:1006DB00E4FFE51DC39D4021EFC39D501674132FFE
:1006EB00F8E6AB2BAA2CA92D8F827583001204A4DC
:0B06FB000F80E5E4F51D7F01227F0069
:0107060022D0
:10000300759850758920758840758BFA758DFA75CA
:0B0013008780C298C299D2ACD2AF2205
:080674008F218E208D1F8C1ECA
:10067C0078237C007D007BFF7A0779E47E007F0580
:10068C001204537523AAAF21AE20AD1FAC1E12036A
:10069C00028F24E4FFFE7D207C41AB21AA20A91F00
:1006AC00A81E12011E1203027C007D0A1204C68DC4
:1006BC0025852226E523252425252526F5277B00BF
:0906CC007A0079237D050207077D
:0605F3008B088A09890A49
:1005F900780E7C007D007BFF7A0779E97E007F0514
:100609001204537B007A00790E7D051206D5EF603E
:1006190057E50E64AA704EE50E250F2510251165C4
:1006290012703FAC101202CEE4FBFA792078411225
:100639000227C004C005C006C007AC0FE41202CEF1
:10064900D003D002D001D00012002DAB08AA09A90D
:100659000A120529AB0BAA0CA90DE5111204927F08
:0A06690001227F00227F00227F00A3
:010673002264
:0D07CD00E4F5C7F5C5F5C675C380F5C42277
:10076F0075C78375C5018FC48EC375C65A75C6A567
:06077F0000AFC21207CD1D
:010785002251
:1007860075C78375C5028FC48EC38DC275C65A756B
:06079600C6A5000207CD1C
:10079C0075C78375C5038FC48EC375C65A75C6A538
:0407AC00000207CD73
:1000260002036EE86480F8E933E83360110460F097
:10003600ED33EC337009E8FCE9FDEAFEEBFF220440
:1000460060DED3EB9FEA9EE99DE8C2E78CF0C2F73B
:1000560095F0400CE8CCF8E9CDF9EACEFAEBCFFB07
:1000660012033985D0F05804700320D5B3E8047024
:10007600075002B2D502037892D5EC0460F7E4CCBF
:10008600C0E0C398F8603B94186008400DD0E0FBD0
:10009600020350E4FBFAC9FC8028E830E406E4C910
:1000A600FBE4CAFCE830E305E4C9CACBFCE8540724
:1000B6006010F8C3E913F9EA13FAEB13FBEC13FC2F
:1000C600D8F130F52FC3E49CFCEF9BFFEE9AFEEDD2
:1000D60099FDD0E0FBEF4E4D4C701222DB0302037C
:1000E60075EC2CFCEF33FFEE33FEED33FDED30E720
:1000F600EB020350EF2BFFEE3AFEED39FDD0E0FBAD
:1001060050130BBB0003020378ED13FDEE13FEEF55
:0801160013FFEC13FC0203507F
:10011E00EC4D6011E8497017ED33EC3304600DE4DB
:10012E00FCFFFEFD22E933E8330470F802036E1281
:10013E00033958046009E4CC248150062850090282
:10014E000378284003020375C0E0EB4A7044B9807F
:10015E0006D0E0FB020364EF4E701CBD8008EBFF7F
:10016E00EAFEE9FD80EBE98DF0A4FEE5F002020760
:10017E00E9CDF9EAFEEBFFEF89F0A4FCE5F0CE89BC
:10018E00F0A42EFFE435F0CD89F0A42DFEE435F079
:10019E008067EF4E7005BD80D780C3EF8BF0A4ACA7
:1001AE00F0EE8BF0A42CFCE435F0F8EF8AF0A42CE2
:1001BE00E5F038FCE433CB8DF0A42CFCE5F03BF8F5
:1001CE00EE8AF0A42CFCE5F038F8E433CF89F0A4E5
:1001DE002CFCE5F038CF3400CE89F0A42FFFE5F0EB
:1001EE003EFEE433C98DF0A42EFEE5F039CD8AF043
:1001FE00A42FFFE5F03EFEE43DFD33D0E0FB5007BB
:10020E000BBB000F020378EC2CFCEF33FFEE33FE3A
:06021E00ED33FD02035068
:10022400020378EC5D046005E85904700302036E70
:10023400120339580460F6EC4860F2EC7004FDFED9
:10024400FF22C860DB2481C85009C39860025006AD
:100254000203759850CAF582E9294B4A7005AB82AE
:1002640002036475F0007C1A7880C3EF9BEE9AED6C
:1002740099400DC3EF9BFFEE9AFEED99FDE842F025
:10028400DC23ACF0D0E0FFD0E0FED0E0FDAB822078
:10029400E7101BEB60BAEC2CFCEF33FFEE33FEED02
:1002A40033FD020350E803F830E705C0F075F000B1
:1002B400EF2FFFEE33FEED33FD40B830E7C280AAE6
:1002C40075F020800E75F010800575F0087D007EB5
:1002D400007F003392D530D50312051BEC33401058
:1002E400EF33FFEE33FEED33FDEC33FCD5F0ED22BE
:0E02F400E5F0247EA2D513CC92E7CDCEFF22FA
:10030200EDD2E7CD33EC3392D524814006E4FFFEF3
:10031200FDFC22FCE4CFCECDCC24E0501174FF8052
:10032200EDC3CC13CCCD13CDCE13CECF13CF0470EF
:07033200F030D5DE02051BCF
:10033900E9D2E7C933E833F892D5EDD2E7CD33EC0A
:0703490033FC5002B2D52283
:10035000EC30E7100FBF000C0EBE00080DBD00040E
:100360000BEB6014A2D5EB13FCED92E7FD2274FFBA
:10037000FCFDFEFF22E480F8A2D574FF13FC7D8013
:03038000E480EF27
:1005730002074EE493A3F8E493A34003F68001F249
:1005830008DFF48029E493A3F85407240CC8C33389
:10059300C4540F4420C8834004F456800146F6DF58
:1005A300E4800B01020408102040809007B0E47E31
:1005B300019360BCA3FF543F30E509541FFEE4934D
:1005C300A360010ECF54C025E060A840B8E493A314
:1005D300FAE493A3F8E493A3C8C582C8CAC583CA3F
:1005E300F0A3C8C582C8CAC583CADFE9DEE780BEF7
:0107BF000039
:10038300E709F608DFFA8046E709F208DFFA803E5C
:1003930088828C83E709F0A3DFFA8032E309F60849
:1003A300DFFA8078E309F208DFFA807088828C83B1
:1003B300E309F0A3DFFA806489828A83E0A3F60865
:1003C300DFFA805889828A83E0A3F208DFFA804C3F
:1003D30080D280FA80C680D4806980F28033801016
:1003E30080A680EA809A80A880DA80E280CA80337F
:1003F30089828A83ECFAE493A3C8C582C8CCC583F7
:10040300CCF0A3C8C582C8CCC583CCDFE9DEE780C6
:100413000D89828A83E493A3F608DFF9ECFAA9F045
:10042300EDFB2289828A83ECFAE0A3C8C582C8CC9B
:10043300C583CCF0A3C8C582C8CCC583CCDFEADEB4
:10044300E880DB89828A83E493A3F208DFF980CC16
:1004530088F0EF60010E4E60C388F0ED2402B4040F
:100463000050B9F582EB2402B4040050AF232345B6
:0604730082239003D37305
:10047900BB010689828A83E0225002E722BBFE0281
:09048900E32289828A83E49322B4
:10049200BB010689828A83F0225002F722BBFE0149
:0204A200F32243
:1004A400F8BB010DE58229F582E5833AF583E8F08E
:1004B400225006E92582C8F622BBFE05E92582C83A
:0204C400F22222
:1004C600BC000BBE0029EF8DF084FFADF022E4CC1A
:1004D600F875F008EF2FFFEE33FEEC33FCEE9DECE3
:1004E600984005FCEE9DFE0FD5F0E9E4CEFD22ED29
:1004F600F8F5F0EE8420D21CFEADF075F008EF2F73
:10050600FFED33FD4007985006D5F0F222C398FD63
:050516000FD5F0EA2200
:0E051B00C3E49FFFE49EFEE49DFDE49CFC22F1
:10052900BB010789828A8302054F5005E9F8020554
:0A05390043BBFE05E9F802055B2252
:0C054300ECF608EDF608EEF608EFF622E4
:0C054F00ECF0A3EDF0A3EEF0A3EFF0221F
:0C055B00ECF208EDF208EEF208EFF222DC
:00000001FF
