:0300000002077A7A
:0C077A00787FE4F6D8FD75812D0207C1E0
:1008E800C291C290E9139287E9C313139286E91360
:1008F80013543F139285E9131313541F139284E979
:10090800C4540F139283E9C4135407139282E9C4A1
:1009180013135403139281E9C4131313540113924C
:0709280080D2907F057E00E4
:10092F00D3EF9400EE9400400F7DC77C01DCFEDD19
:08093F00FAEF1F70EB1E80E8C7
:01094700228D
:10056700E4FBC292D291D2907F01FE12092FA2869C
:10057700E43325E0FFE433FEA287E433FDEEFCEF2E
:100587004DFDA285E4FE337802C333CE33CED8F9CE
:10059700FFEE4CFCEF4DFDA284E4FE337803C3333A
:1005A700CE33CED8F9FFEE4CFCEF4DFDA283E433FA
:1005B700C4F8540FC868FFE4C454F0484CFCEF4D2E
:1005C700FDA282E4FE337805C333CE33CED8F9FFDC
:1005D700EE4CFCEF4DFDA281E4FE337806C333CE2B
:1005E70033CED8F9FFEE4CFCEF4DFDA280E4FE338D
:1005F7007807C333CE33CED8F9FFEE4CEF4D30E753
:100607000F0BEBD394645003020575C2907F002251
:04061700C2907F010D
:01061B0022BC
:02000300A9074B
:10000500E4FA120567EF700E7F01FE12092F0AEA66
:0D001500D3946440ED22C2921208E8C2901C
:0100220022BB
:020A8900A907BB
:100A8B00E4FA120567EF700E7F01FE12092F0AEAD6
:0D0A9B00D3946440ED22D2921208E8C2907C
:010AA800222B
:100B5800D2A6D2A77F301200037F0C1200037F01B8
:030B680002000385
:020A6700AE07D8
:100A6900EE70047E808013BE01047E90800CBE026D
:100A7900047E888005BE03027E98EE2DFF020003E6
:100A44008B258A268927AB25AA26A927120479FF94
:100A54006010120A8974012527F527E43526F52646
:020A640080E42C
:010A6600226D
:050B8C008E2B8F2C22CE
:090B83008F1E8E1D8D1C8C1B229F
:030AA900011F002A
:10061C00120B06120A1DE4F5917592FFD297C29641
:02062C00C29575
:10062E00E4F50BF50AF509F5081206CC8F0C7510DA
:10063E000075110075121F7B007A007908120806EA
:10064E00EF6021E51F30E004C2978002D297E51FCC
:10065E0030E104D2968002C296E51F30E204D295B4
:10066E008002C295209705431F018003531FFE3061
:10067E009605431F028003531FFD309505431F044B
:10068E008003531FFB120948AC07E41202CE8F0BF6
:10069E008E0A8D098C08851F11120887E50CB4018E
:1006AE0005B29702062EE50CB40205B29602062E8E
:0B06BE00E50C6403600302062EB295F9
:0306C90002062EF8
:040B24007F057E00CB
:100B2800EF1FAA0670011E4A600BE4FDEDC3940C8A
:050B380050EE0D80F7F6
:010B3D002295
:020AE800A9075C
:100AEA00E4FBC2B7E91392B7120B24D2B7E9C313D6
:0C0AFA00F90BBB08ED7F057E00020B2805
:100B3E00E4FBC2B7ECC313FCD2B730B70343048057
:090B4E00120B240BBB08EBAF04F1
:010B5700227B
:100A1D00C200D2B77F0C7E00120B28C2B77F507E6A
:100A2D0000120B28D2B77F0A7E00120B28A2B792B4
:060A3D0000120B24A200D0
:010A43002290
:10094800E4F9FFFE120A1D7FCC120AE87F44120A5E
:10095800E87FC87E00120B28120A1D7FCC120AE815
:100968007FBE120AE8120B3EA907120B3EEFC454D1
:0A097800F0FEE9C4540F4206AF067A
:010982002252
:0C0AAC00012100012200012300012401AF
:1006CC00E4D2B3D2B4D2B5D2B6A2B633F9A2B5E461
:1006DC0033FFA2B4E433FEA2B3E433FDEE25E025F0
:1006EC00E0FEED33333354F84EFEEF25E04E49FF78
:1006FC00640F600DE5227009E524B4010405218026
:10070C0003E4F521E521640A702EAC07F521E524FC
:10071C0064017024F524752201EC24F9601424FC86
:10072C00600D24FE600614700C7F01227F02227F74
:10073C0003227F04227F0022EF540FFEBE0F09E537
:10074C0022B401040523800DE522B40108EE640FE8
:10075C006003E4F523E523B40A11E4F523E522B4A0
:0D076C000109BE0F06752401E4F5227F008F
:01077900225D
:0A0B79000000000000000000000072
:100AB8004A000000000000000000000000012D00B6
:030023000209834C
:10098300C0E0C083C082C0D075D000C00730981DBE
:10099300C298AF2D052D74002FF582E43400F58342
:1009A300E599F0E52DC3940A4003752D00D007D0D7
:0809B300D0D082D083D0E032E5
:060B6B0014F9120479FFE9
:080B71008F993099FDC2992211
:1009F3008B178A188919AF051DEF601DAB170519F1
:100A0300E519AA1870020518120B6B00000000000C
:0A0A13000000000000000080DD225A
:100AC9008B288A29892AAB28AA29A92A120479609C
:0F0AD9000D052AE52A70020529120B6B80E82211
:0609BB008B188A19891A4D
:1009C100E4FFE52DC39D4027EFC39D501C74002F0C
:1009D100F582E43400F583E0AB18AA19A91A8F82D5
:1009E1007583001204A40F80DFE4F52D7F01227FBF
:0109F1000005
:0109F20022E2
:100B0600759850758920758840438E40758BB875E9
:0E0B16008DB8758780C298C299D2ACD2AF223A
:080887008F108E0F8D0E8C0DF9
:10088F0078127C007D007BFF7A0B79797E007F05E3
:10089F001204537512AAAF10AE0FAD0EAC0D1203AA
:1008AF00028F13E4FFFE7D207C41AB10AA0FA90E2F
:1008BF00A80D12011E1203027C007D0A1204C68DC0
:1008CF0014851115E512251325142515F5167B0032
:0908DF007A0079127D050209F38B
:060806008B0D8A0E890F24
:10080C0078137C007D007BFF7A0B797E7E007F0560
:10081C001204537B007A0079137D051209BBEF603B
:10082C0057E51364AA704EE5132514251525166596
:10083C0017703FAC151202CEE4FBFA792078411206
:10084C000227C004C005C006C007AC14E41202CED7
:10085C00D003D002D001D00012002DAB0DAA0EA9EE
:10086C000F120529AB10AA11A912E5161204927FDA
:0A087C0001227F00227F00227F008E
:01088600224F
:1000260002036EE86480F8E933E83360110460F097
:10003600ED33EC337009E8FCE9FDEAFEEBFF220440
:1000460060DED3EB9FEA9EE99DE8C2E78CF0C2F73B
:1000560095F0400CE8CCF8E9CDF9EACEFAEBCFFB07
:1000660012033985D0F05804700320D5B3E8047024
:10007600075002B2D502037892D5EC0460F7E4CCBF
:10008600C0E0C398F8603B94186008400DD0E0FBD0
:10009600020350E4FBFAC9FC8028E830E406E4C910
:1000A600FBE4CAFCE830E305E4C9CACBFCE8540724
:1000B6006010F8C3E913F9EA13FAEB13FBEC13FC2F
:1000C600D8F130F52FC3E49CFCEF9BFFEE9AFEEDD2
:1000D60099FDD0E0FBEF4E4D4C701222DB0302037C
:1000E60075EC2CFCEF33FFEE33FEED33FDED30E720
:1000F600EB020350EF2BFFEE3AFEED39FDD0E0FBAD
:1001060050130BBB0003020378ED13FDEE13FEEF55
:0801160013FFEC13FC0203507F
:10011E00EC4D6011E8497017ED33EC3304600DE4DB
:10012E00FCFFFEFD22E933E8330470F802036E1281
:10013E00033958046009E4CC248150062850090282
:10014E000378284003020375C0E0EB4A7044B9807F
:10015E0006D0E0FB020364EF4E701CBD8008EBFF7F
:10016E00EAFEE9FD80EBE98DF0A4FEE5F002020760
:10017E00E9CDF9EAFEEBFFEF89F0A4FCE5F0CE89BC
:10018E00F0A42EFFE435F0CD89F0A42DFEE435F079
:10019E008067EF4E7005BD80D780C3EF8BF0A4ACA7
:1001AE00F0EE8BF0A42CFCE435F0F8EF8AF0A42CE2
:1001BE00E5F038FCE433CB8DF0A42CFCE5F03BF8F5
:1001CE00EE8AF0A42CFCE5F038F8E433CF89F0A4E5
:1001DE002CFCE5F038CF3400CE89F0A42FFFE5F0EB
:1001EE003EFEE433C98DF0A42EFEE5F039CD8AF043
:1001FE00A42FFFE5F03EFEE43DFD33D0E0FB5007BB
:10020E000BBB000F020378EC2CFCEF33FFEE33FE3A
:06021E00ED33FD02035068
:10022400020378EC5D046005E85904700302036E70
:10023400120339580460F6EC4860F2EC7004FDFED9
:10024400FF22C860DB2481C85009C39860025006AD
:100254000203759850CAF582E9294B4A7005AB82AE
:1002640002036475F0007C1A7880C3EF9BEE9AED6C
:1002740099400DC3EF9BFFEE9AFEED99FDE842F025
:10028400DC23ACF0D0E0FFD0E0FED0E0FDAB822078
:10029400E7101BEB60BAEC2CFCEF33FFEE33FEED02
:1002A40033FD020350E803F830E705C0F075F000B1
:1002B400EF2FFFEE33FEED33FD40B830E7C280AAE6
:1002C40075F020800E75F010800575F0087D007EB5
:1002D400007F003392D530D50312051BEC33401058
:1002E400EF33FFEE33FEED33FDEC33FCD5F0ED22BE
:0E02F400E5F0247EA2D513CC92E7CDCEFF22FA
:10030200EDD2E7CD33EC3392D524814006E4FFFEF3
:10031200FDFC22FCE4CFCECDCC24E0501174FF8052
:10032200EDC3CC13CCCD13CDCE13CECF13CF0470EF
:07033200F030D5DE02051BCF
:10033900E9D2E7C933E833F892D5EDD2E7CD33EC0A
:0703490033FC5002B2D52283
:10035000EC30E7100FBF000C0EBE00080DBD00040E
:100360000BEB6014A2D5EB13FCED92E7FD2274FFBA
:10037000FCFDFEFF22E480F8A2D574FF13FC7D8013
:03038000E480EF27
:1007860002061CE493A3F8E493A34003F68001F267
:1007960008DFF48029E493A3F85407240CC8C33374
:1007A600C4540F4420C8834004F456800146F6DF43
:1007B600E4800B0102040810204080900AA9E47E20
:1007C600019360BCA3FF543F30E509541FFEE49338
:1007D600A360010ECF54C025E060A840B8E493A3FF
:1007E600FAE493A3F8E493A3C8C582C8CAC583CA2A
:1007F600F0A3C8C582C8CAC583CADFE9DEE780BEE2
:010AC800002D
:10038300E709F608DFFA8046E709F208DFFA803E5C
:1003930088828C83E709F0A3DFFA8032E309F60849
:1003A300DFFA8078E309F208DFFA807088828C83B1
:1003B300E309F0A3DFFA806489828A83E0A3F60865
:1003C300DFFA805889828A83E0A3F208DFFA804C3F
:1003D30080D280FA80C680D4806980F28033801016
:1003E30080A680EA809A80A880DA80E280CA80337F
:1003F30089828A83ECFAE493A3C8C582C8CCC583F7
:10040300CCF0A3C8C582C8CCC583CCDFE9DEE780C6
:100413000D89828A83E493A3F608DFF9ECFAA9F045
:10042300EDFB2289828A83ECFAE0A3C8C582C8CC9B
:10043300C583CCF0A3C8C582C8CCC583CCDFEADEB4
:10044300E880DB89828A83E493A3F208DFF980CC16
:1004530088F0EF60010E4E60C388F0ED2402B4040F
:100463000050B9F582EB2402B4040050AF232345B6
:0604730082239003D37305
:10047900BB010689828A83E0225002E722BBFE0281
:09048900E32289828A83E49322B4
:10049200BB010689828A83F0225002F722BBFE0149
:0204A200F32243
:1004A400F8BB010DE58229F582E5833AF583E8F08E
:1004B400225006E92582C8F622BBFE05E92582C83A
:0204C400F22222
:1004C600BC000BBE0029EF8DF084FFADF022E4CC1A
:1004D600F875F008EF2FFFEE33FEEC33FCEE9DECE3
:1004E600984005FCEE9DFE0FD5F0E9E4CEFD22ED29
:1004F600F8F5F0EE8420D21CFEADF075F008EF2F73
:10050600FFED33FD4007985006D5F0F222C398FD63
:050516000FD5F0EA2200
:0E051B00C3E49FFFE49EFEE49DFDE49CFC22F1
:10052900BB010789828A8302054F5005E9F8020554
:0A05390043BBFE05E9F802055B2252
:0C054300ECF608EDF608EEF608EFF622E4
:0C054F00ECF0A3EDF0A3EEF0A3EFF0221F
:0C055B00ECF208EDF208EEF208EFF222DC
:00000001FF
