:030000000206CA2B
:0C06CA00787FE4F6D8FD75812D02071141
:10083800C291C290E9139287E9C313139286E91310
:1008480013543F139285E9131313541F139284E929
:10085800C4540F139283E9C4135407139282E9C452
:1008680013135403139281E9C413131354011392FD
:0708780080D2907F057E0095
:10087F00D3EF9400EE9400400F7DC77C01DCFEDDCA
:08088F00FAEF1F70EB1E80E878
:01089700223E
:10056700E4FBC292D291D2907F01FE12087FA2864D
:10057700E43325E0FFE433FEA287E433FDEEFCEF2E
:100587004DFDA285E4FE337802C333CE33CED8F9CE
:10059700FFEE4CFCEF4DFDA284E4FE337803C3333A
:1005A700CE33CED8F9FFEE4CFCEF4DFDA283E433FA
:1005B700C4F8540FC868FFE4C454F0484CFCEF4D2E
:1005C700FDA282E4FE337805C333CE33CED8F9FFDC
:1005D700EE4CFCEF4DFDA281E4FE337806C333CE2B
:1005E70033CED8F9FFEE4CFCEF4DFDA280E4FE338D
:1005F7007807C333CE33CED8F9FFEE4CEF4D30E753
:100607000F0BEBD394645003020575C2907F002251
:04061700C2907F010D
:01061B0022BC
:02000300A9074B
:10000500E4FA120567EF700E7F01FE12087F0AEA17
:0D001500D3946440ED22C292120838C290CC
:0100220022BB
:020A3800A9070C
:100A3A00E4FA120567EF700E7F01FE12087F0AEAD8
:0D0A4A00D3946440ED22D292120838C2907D
:010A5700227C
:100B0700D2A6D2A77F301200037F0C1200037F0109
:030B1700020003D6
:020A1600AE0729
:100A1800EE70047E808013BE01047E90800CBE02BE
:100A2800047E888005BE03027E98EE2DFF02000337
:1009F3008B258A268927AB25AA26A927120479FFE6
:100A03006010120A3874012527F527E43526F526E8
:020A130080E47D
:010A150022BE
:050B3B008E2B8F2C221F
:090B32008F1E8E1D8D1C8C1B22F0
:030A5800011F007B
:06089800120AB51209CCA2
:10089E00E4F50BF50AF509F50812061C8F0C751018
:1008AE000075110075121F7B007A00790812075629
:1008BE00EF600BE51F30E004C2978002D2972097BD
:1008CE0005431F018003531FFE1208F7AC07E41205
:1008DE0002CE8F0B8E0A8D098C08851F111207D739
:0708EE00E50CB401ABB29769
:0208F50080A7DA
:040AD3007F057E001D
:100AD700EF1FAA0670011E4A600BE4FDEDC3940CDC
:050AE70050EE0D80F748
:010AEC0022E7
:020A9700A907AD
:100A9900E4FBC2B7E91392B7120AD3D2B7E9C31379
:0C0AA900F90BBB08ED7F057E00020AD7A8
:100AED00E4FBC2B7ECC313FCD2B730B703430480A9
:090AFD00120AD30BBB08EBAF0495
:010B060022CC
:1009CC00C200D2B77F0C7E00120AD7C2B77F507E0E
:1009DC0000120AD7D2B77F0A7E00120AD7A2B792AA
:0609EC0000120AD3A20074
:0109F20022E2
:1008F700E4F9FFFE1209CC7FCC120A977F44120A53
:10090700977FC87E00120AD71209CC7FCC120A97AC
:100917007FBE120A97120AEDA907120AEDEFC45417
:0A092700F0FEE9C4540F4206AF06CB
:0109310022A3
:0C0A5B0001210001220001230001240100
:10061C00E4D2B3D2B4D2B5D2B6A2B633F9A2B5E411
:10062C0033FFA2B4E433FEA2B3E433FDEE25E025A0
:10063C00E0FEED33333354F84EFEEF25E04E49FF28
:10064C00640F600DE5227009E524B40104052180D6
:10065C0003E4F521E521640A702EAC07F521E524AD
:10066C0064017024F524752201EC24F9601424FC37
:10067C00600D24FE600614700C7F01227F02227F25
:10068C0003227F04227F0022EF540FFEBE0F09E5E8
:10069C0022B401040523800DE522B40108EE640F99
:1006AC006003E4F523E523B40A11E4F523E522B451
:0D06BC000109BE0F06752401E4F5227F0040
:0106C900220E
:0A0B280000000000000000000000C3
:100A67004A000000000000000000000000012D0007
:030023000209329D
:10093200C0E0C083C082C0D075D000C00730981D0F
:10094200C298AF2D052D74002FF582E43400F58393
:10095200E599F0E52DC3940A4003752D00D007D028
:08096200D0D082D083D0E03236
:060B1A0014F9120479FF3A
:080B20008F993099FDC2992262
:1009A2008B178A188919AF051DEF601DAB17051942
:1009B200E519AA1870020518120B1A0000000000AF
:0A09C2000000000000000080DD22AC
:100A78008B288A29892AAB28AA29A92A12047960ED
:0F0A88000D052AE52A70020529120B1A80E822B3
:06096A008B188A19891A9E
:10097000E4FFE52DC39D4027EFC39D501C74002F5D
:10098000F582E43400F583E0AB18AA19A91A8F8226
:100990007583001204A40F80DFE4F52D7F01227F10
:0109A0000056
:0109A1002233
:100AB500759850758920758840438E40758BB8753B
:0E0AC5008DB8758780C298C299D2ACD2AF228C
:0807D7008F108E0F8D0E8C0DAA
:1007DF0078127C007D007BFF7A0B79287E007F05E5
:1007EF001204537512AAAF10AE0FAD0EAC0D12035B
:1007FF00028F13E4FFFE7D207C41AB10AA0FA90EE0
:10080F00A80D12011E1203027C007D0A1204C68D70
:10081F0014851115E512251325142515F5167B00E2
:09082F007A0079127D050209A28C
:060756008B0D8A0E890FD5
:10075C0078137C007D007BFF7A0B792D7E007F0562
:10076C001204537B007A0079137D0512096AEF603D
:10077C0057E51364AA704EE5132514251525166547
:10078C0017703FAC151202CEE4FBFA7920784112B7
:10079C000227C004C005C006C007AC14E41202CE88
:1007AC00D003D002D001D00012002DAB0DAA0EA99F
:1007BC000F120529AB10AA11A912E5161204927F8B
:0A07CC0001227F00227F00227F003F
:0107D6002200
:1000260002036EE86480F8E933E83360110460F097
:10003600ED33EC337009E8FCE9FDEAFEEBFF220440
:1000460060DED3EB9FEA9EE99DE8C2E78CF0C2F73B
:1000560095F0400CE8CCF8E9CDF9EACEFAEBCFFB07
:1000660012033985D0F05804700320D5B3E8047024
:10007600075002B2D502037892D5EC0460F7E4CCBF
:10008600C0E0C398F8603B94186008400DD0E0FBD0
:10009600020350E4FBFAC9FC8028E830E406E4C910
:1000A600FBE4CAFCE830E305E4C9CACBFCE8540724
:1000B6006010F8C3E913F9EA13FAEB13FBEC13FC2F
:1000C600D8F130F52FC3E49CFCEF9BFFEE9AFEEDD2
:1000D60099FDD0E0FBEF4E4D4C701222DB0302037C
:1000E60075EC2CFCEF33FFEE33FEED33FDED30E720
:1000F600EB020350EF2BFFEE3AFEED39FDD0E0FBAD
:1001060050130BBB0003020378ED13FDEE13FEEF55
:0801160013FFEC13FC0203507F
:10011E00EC4D6011E8497017ED33EC3304600DE4DB
:10012E00FCFFFEFD22E933E8330470F802036E1281
:10013E00033958046009E4CC248150062850090282
:10014E000378284003020375C0E0EB4A7044B9807F
:10015E0006D0E0FB020364EF4E701CBD8008EBFF7F
:10016E00EAFEE9FD80EBE98DF0A4FEE5F002020760
:10017E00E9CDF9EAFEEBFFEF89F0A4FCE5F0CE89BC
:10018E00F0A42EFFE435F0CD89F0A42DFEE435F079
:10019E008067EF4E7005BD80D780C3EF8BF0A4ACA7
:1001AE00F0EE8BF0A42CFCE435F0F8EF8AF0A42CE2
:1001BE00E5F038FCE433CB8DF0A42CFCE5F03BF8F5
:1001CE00EE8AF0A42CFCE5F038F8E433CF89F0A4E5
:1001DE002CFCE5F038CF3400CE89F0A42FFFE5F0EB
:1001EE003EFEE433C98DF0A42EFEE5F039CD8AF043
:1001FE00A42FFFE5F03EFEE43DFD33D0E0FB5007BB
:10020E000BBB000F020378EC2CFCEF33FFEE33FE3A
:06021E00ED33FD02035068
:10022400020378EC5D046005E85904700302036E70
:10023400120339580460F6EC4860F2EC7004FDFED9
:10024400FF22C860DB2481C85009C39860025006AD
:100254000203759850CAF582E9294B4A7005AB82AE
:1002640002036475F0007C1A7880C3EF9BEE9AED6C
:1002740099400DC3EF9BFFEE9AFEED99FDE842F025
:10028400DC23ACF0D0E0FFD0E0FED0E0FDAB822078
:10029400E7101BEB60BAEC2CFCEF33FFEE33FEED02
:1002A40033FD020350E803F830E705C0F075F000B1
:1002B400EF2FFFEE33FEED33FD40B830E7C280AAE6
:1002C40075F020800E75F010800575F0087D007EB5
:1002D400007F003392D530D50312051BEC33401058
:1002E400EF33FFEE33FEED33FDEC33FCD5F0ED22BE
:0E02F400E5F0247EA2D513CC92E7CDCEFF22FA
:10030200EDD2E7CD33EC3392D524814006E4FFFEF3
:10031200FDFC22FCE4CFCECDCC24E0501174FF8052
:10032200EDC3CC13CCCD13CDCE13CECF13CF0470EF
:07033200F030D5DE02051BCF
:10033900E9D2E7C933E833F892D5EDD2E7CD33EC0A
:0703490033FC5002B2D52283
:10035000EC30E7100FBF000C0EBE00080DBD00040E
:100360000BEB6014A2D5EB13FCED92E7FD2274FFBA
:10037000FCFDFEFF22E480F8A2D574FF13FC7D8013
:03038000E480EF27
:1006D600020898E493A3F8E493A34003F68001F29A
:1006E60008DFF48029E493A3F85407240CC8C33325
:1006F600C4540F4420C8834004F456800146F6DFF4
:10070600E4800B0102040810204080900A58E47E21
:10071600019360BCA3FF543F30E509541FFEE493E8
:10072600A360010ECF54C025E060A840B8E493A3AF
:10073600FAE493A3F8E493A3C8C582C8CAC583CADA
:10074600F0A3C8C582C8CAC583CADFE9DEE780BE92
:010A7700007E
:10038300E709F608DFFA8046E709F208DFFA803E5C
:1003930088828C83E709F0A3DFFA8032E309F60849
:1003A300DFFA8078E309F208DFFA807088828C83B1
:1003B300E309F0A3DFFA806489828A83E0A3F60865
:1003C300DFFA805889828A83E0A3F208DFFA804C3F
:1003D30080D280FA80C680D4806980F28033801016
:1003E30080A680EA809A80A880DA80E280CA80337F
:1003F30089828A83ECFAE493A3C8C582C8CCC583F7
:10040300CCF0A3C8C582C8CCC583CCDFE9DEE780C6
:100413000D89828A83E493A3F608DFF9ECFAA9F045
:10042300EDFB2289828A83ECFAE0A3C8C582C8CC9B
:10043300C583CCF0A3C8C582C8CCC583CCDFEADEB4
:10044300E880DB89828A83E493A3F208DFF980CC16
:1004530088F0EF60010E4E60C388F0ED2402B4040F
:100463000050B9F582EB2402B4040050AF232345B6
:0604730082239003D37305
:10047900BB010689828A83E0225002E722BBFE0281
:09048900E32289828A83E49322B4
:10049200BB010689828A83F0225002F722BBFE0149
:0204A200F32243
:1004A400F8BB010DE58229F582E5833AF583E8F08E
:1004B400225006E92582C8F622BBFE05E92582C83A
:0204C400F22222
:1004C600BC000BBE0029EF8DF084FFADF022E4CC1A
:1004D600F875F008EF2FFFEE33FEEC33FCEE9DECE3
:1004E600984005FCEE9DFE0FD5F0E9E4CEFD22ED29
:1004F600F8F5F0EE8420D21CFEADF075F008EF2F73
:10050600FFED33FD4007985006D5F0F222C398FD63
:050516000FD5F0EA2200
:0E051B00C3E49FFFE49EFEE49DFDE49CFC22F1
:10052900BB010789828A8302054F5005E9F8020554
:0A05390043BBFE05E9F802055B2252
:0C054300ECF608EDF608EEF608EFF622E4
:0C054F00ECF0A3EDF0A3EEF0A3EFF0221F
:0C055B00ECF208EDF208EEF208EFF222DC
:00000001FF
